:020000040800F2
:100000000020001065C0000841BB000849BB000883
:100010004BBB00084DBB00084FBB000800000000B0
:1000200000000000000000000000000051BB0008BC
:1000300053BB00080000000055BB000857BB000878
:10004000EDC10008F1C10008F5C10008F9C10008C0
:10005000FDC1000801C2000805C2000809C200086D
:100060000DC2000811C2000877BB000815C20008C5
:1000700019C200081DC2000821C2000825C20008DC
:1000800029C200082DC2000831C2000835C200088C
:1000900039C200083DC2000841C2000845C200083C
:1000A00049C200084DC2000851C2000855C20008EC
:1000B000551D000859C200085DC2000861C2000851
:1000C00065C2000869C200086DC2000871C200085C
:1000D00075C2000879C200087DC2000881C200080C
:1000E00063BB000885C2000889C200088DC20008F1
:1000F00091C2000895C2000899C200089DC200087C
:10010000A1C20008A5C20008A9C20008ADC200082B
:10011000B1C20008B5C20008B9C20008BDC20008DB
:10012000C1C20008C5C20008C9C20008CDC200088B
:10013000D1C20008D5C20008D9C20008DDC200083B
:10014000E1C20008E5C20008E9C20008EDC20008EB
:10015000F1C20008F5C20008F9C20008FDC200089B
:1001600001C3000805C3000809C300080DC3000847
:1001700011C3000815C3000819C3000800000000DF
:100180001DC3000821C30008010049B2002909D499
:10019000012210F01F018A40DFF8C01B40B2400965
:1001A00041F820207047010049B200290DD40122F6
:1001B00010F01F018A40DFF8A81B40B2400941F847
:1001C0002020BFF34F8FBFF36F8F70471CB5040023
:1001D00002224FF40171684601F0C1FCBDF8000035
:1001E0000440ADF800400A20FFF7DDFF02224FF483
:1001F0000171684601F01FFD0A20FFF7C5FF13BD1E
:100200001CB5040002224FF40171684601F0A7FCFE
:10021000BDF800000443ADF800400A20FFF7C3FF1B
:1002200002224FF40171684601F005FD0A20FFF734
:10023000ABFF13BD80B50020ADF80000022240F2F4
:100240000251684601F08BFCBDF8000010F400601C
:10025000012805DABDF8000010F48050012804DB05
:100260000020DFF8401B087003E00120DFF8341B9A
:10027000087001BD10B5DFF8304B0822C0B2C000D5
:1002800010F50060010089B2200001F068FC200038
:1002900010BD1CB54FF48071ADF80010C0B2C400A1
:1002A00004F606040222210089B2684601F0C3FC6C
:1002B0000222210089B2684601F051FCBDF800001D
:1002C000C005F5D513BD1CB50021ADF80010C0B2B6
:1002D000C40004F606040222210089B2684601F037
:1002E000AAFC0222210089B2684601F038FCBDF860
:1002F0000000C005F5D413BDF8B5050000240020AA
:10030000002041F6FF70DFF884190A88824208DB7A
:100310000A88824205DB0A88824202DB0988814220
:1003200001DA14207FE10020FFF7A4FF4288018852
:1003300013009BB213F00103012B01DB172072E1C4
:100340000B009BB213F00103012B01DB17206AE1C4
:100350008379DB0701D4162424E0037913F00C031E
:10036000042B01D016241DE00079800701D4162447
:1003700018E0100080B2222801DA162412E092B2AE
:1003800040F20110824201DB16240BE0080080B22B
:10039000B0F5805F01DA162404E089B2B1F5005FA0
:1003A00000DB16242000C0B200283DD10120FFF759
:1003B00061FF4288018813009BB213F00103012BF7
:1003C00001DB17202FE10B009BB213F00103012B7F
:1003D00001DB172027E18379DB0701D4162423E012
:1003E000037913F00C0F01D016241DE0007980076B
:1003F00001D4162418E0100080B2222801DA162455
:1004000012E092B240F20110824201DB16240BE0AE
:10041000080080B2B0F5805F01DA162404E089B2EA
:10042000B1F5005F00DB16242000C0B200286AD1BD
:100430002800C0B2042866DBDFF870690120307044
:100440000320FFF717FF01004B880A88180080B2CD
:1004500010F00100012801DB1720E4E0100080B259
:1004600010F00100012801DB1720DCE08879C007CB
:1004700005D5180080B2002801D104243EE0887917
:10048000C00732D5DFF828091F00B0F800C0BFB29E
:10049000674505D10088002802D09BB2452B01DBBF
:1004A00003242BE0087910F00C0F1CD1DFF80409AD
:1004B0000378022B06D113009BB2B3F58053B3F53A
:1004C000805F08D3007802280BD0DFF8EC080088A2
:1004D00092B2824205D1087980070FD50020307092
:1004E0000CE002240AE0042408E09BB2002B04D1B3
:1004F000DFF8BC080088002800D003242000C0B228
:10050000002800D01E242000C0B2002874D128008A
:10051000C0B2032870DB0220FFF7ACFE01004B885D
:100520000A88180080B210F00100012801DB1720B2
:1005300079E0100080B210F00100012801DB1720E3
:1005400071E08879C00705D5180080B2002801D174
:1005500004244CE08879C00740D5DFF860081E000D
:100560000788B6B2BE4237D10088002834D09BB28B
:10057000452B31DA087910F00C0004282AD1DFF875
:1005800034080378022B06D113009BB2B3F58053D5
:10059000B3F5805F08D30078022819D0DFF820086F
:1005A000008892B2824213D10879400604D5012016
:1005B000DFF81028107003E00020DFF80828107022
:1005C0000879800713D50020DFF8E01708700EE0E7
:1005D00002240CE004240AE0032408E09BB2002B70
:1005E00004D1DFF8D8070088002800D003242000B9
:1005F000C0B2002800D01D242000C0B2002810D1B5
:1006000008E02800C0B2FFF735FEC088DFF8B81751
:1006100008806D1C2800DFF8B4170978C0B2884242
:10062000EFD32000C0B2F2BD2DE9F04F85B000201D
:10063000ADF810000020ADF8060000200290002068
:10064000039000245FF0030B0325002000204FF6E9
:10065000FF76DFF87C77B8890640DFF87887B8F84E
:100660000C0006400020DFF8701708800020DFF83B
:100670006C1708700220FFF7FDFDDFF84497018832
:10068000A9F800100079800700D501250320FFF7A5
:10069000F1FD0100DFF820070A8802800979890747
:1006A00001D55FF0010BDFF808A7DFF834170B88DE
:1006B000B0F800C0BAF800E05A4692B202FB0EFE53
:1006C0001EFA8CF2934209DA02880B88DFF814C70D
:1006D000BCF800C01CFA83F39A4219DBDFF8082744
:1006E0001388B0F800C0BAF800E01FFA8BFB0BFBD0
:1006F0000EFB1BFA8CFC63450CDA0388B2F800C0D1
:10070000DFF8E8E6BEF800E01EFA8CFC634501DA8B
:100710001E2097E2DFF8A4B60B880093B9F80030EA
:10072000BBF800E0AC461FFA8CFC0CFB0EFC1CFA7C
:1007300083FC009B63450ADAB9F800300988DFF8CA
:10074000A4C6BCF800C01CFA81F18B422BDB1388D5
:10075000B9F800C0BBF800E0290089B201FB0EFE29
:100760001EFA8CF18B4209DAB9F800101288DFF812
:100770007C361B8813FA82F2914214DB0188B9F8A7
:100780000020BBF80030ADB205FB03F515FA82F28C
:1007900091420ADAB9F800100088BAF8002012FA7B
:1007A00080F0814201DA1D204CE202224FF41861F0
:1007B00001A801F0D4F904224FF41A6102A801F053
:1007C000CEF9042240F6A41103A801F0C8F97988F3
:1007D000B8F80220BDF8040010F4106F45D0BDF841
:1007E000040010F4C06F01D130202BE2BDF80400EA
:1007F00010F4C060B0F5806F01D1302022E23000EB
:1008000080B200280DD0700703D4BDF80400800525
:1008100005D4300705D4BDF80400400501D53020CB
:1008200010E20298002809D0029B4CF250301B1AAB
:10083000DFF8600A834201D3362003E2BDF80400EA
:1008400010F4C060B0F5C06F07D10398002804D041
:100850000398029B984200D301242000C0B20028D4
:1008600003D0F00601D43020ECE1DFF82C0A007848
:10087000002832D0BDF8040010F4106F11D1080028
:1008800080B202280BD0080080B2032807D01000E5
:1008900080B2022803D0100080B2032855D1302046
:1008A000D0E1BDF80400400509D4080080B2032857
:1008B00003D0100080B2032801D13020C2E1BDF87E
:1008C0000400800541D4080080B2022803D0100043
:1008D00080B2022839D13020B4E1BDF8040010F410
:1008E000106F18D1BBF80000002808D00121BAF819
:1008F0000000002801D022220AE0002208E0BAF815
:100900000000002802D00021012201E00021002285
:100910000120B88319E0BBF80000002807D02000B0
:10092000C0B2002801D0032102E0022100E0002132
:10093000BAF80000002807D0BDF80400400501D532
:10094000032202E0022200E00022080080B2032815
:1009500005D1029878620298C8F8240009E00800DE
:1009600080B2022805D10298786202A80088C8F8EF
:100970002400DFF838040078002809D1080080B28C
:10098000002803D0100080B2002801D1292059E1AD
:10099000080080B2002803D1100080B2002803D0E4
:1009A0000120DFF8F8381870DFF8F05828780028B0
:1009B00012D0BBF80000002805D04FF48060DFF8AB
:1009C0001834188008E0BAF80000002804D04FF46A
:1009D0000060DFF804341880080080B202280BD0D1
:1009E000080080B2032807D0100080B2022803D08C
:1009F000100080B203280BD10120DFF8A438187052
:100A0000BBF80000002803D10020DFF8CC331880A9
:100A10007980A8F80220DFF88C38002018800020A8
:100A2000DFF884683080DFF88468002030800020A0
:100A3000DFF87CC8ACF80000E4B2012C2BD103989D
:100A40000299884212D303980299B0FBF1F03080EA
:100A500003980399029AB1FBF2F2029901FB12008A
:100A6000002805D13088401C308001E00120308012
:100A700003980299B0FBF1F0188003980399029A49
:100A8000B1FBF2F2029901FB120000280DD0188888
:100A9000401C188009E089B2022901D10120308070
:100AA00092B2032A01D0012018800020DFF8441AF6
:100AB000088002224FF484610DF1060001F04FF826
:100AC000BBF80000002826D0BDF80600002822D080
:100AD00002224FF4806104A801F041F8BDF8100033
:100AE000002810D0BDF81010891CBDF80600414345
:100AF00001F5C241A73146F2A810B1FBF0F0DFF8D2
:100B0000F81908800EE00020ADF806000020DFF89C
:100B1000E819088006E00020ADF810000020DFF89A
:100B2000D8190880DFF8D0190888002803D1A54813
:100B30000078002806D10888002805D0A148007850
:100B4000002801D11F207DE02878002808D0BBF8BC
:100B50000000002804D0A048018851F48061018081
:100B6000DFF89819002008800020DFF89429108011
:100B70000020DFF890291080DFF88C2900201080F9
:100B80000020DFF8543A18700020DFF8503A18704F
:100B90000020DFF84C3A1880002088F84000002040
:100BA00087F8400000203885BDF80400800538D55E
:100BB0000298002802D10020088010E00298DFF897
:100BC000A83AB0FBF3F3052B02D20C20088006E014
:100BD000182043439BB20A2093FBF0F00880BDF835
:100BE000040040051DD50398029B984202D2088854
:100BF000108016E00398DFF8703AB0FBF3F0052898
:100C000002D20120108005E0400080B20A2390FB50
:100C1000F3F0108013880888022190FBF1F0C318CC
:100C20001380BBF80000002802D00220FFF74BFB26
:100C3000BAF80000002802D00320FFF744FB01F0BF
:100C4000D3F8002005B0BDE8F08FFF20DFF81C1AB4
:100C50000978002903D0DFF8180A00880DE0DFF8D2
:100C600040160978002907D0C821DFF874291180BF
:100C70000021DFF8042A118080B270470020574914
:100C800008700020DFF8F419087070471A1100206E
:100C900080B54A480088002802D00220FFF7F9FA00
:100CA00043480088002802D00320FFF7F2FA0C2006
:100CB00050F4806050F4006080B2C04380B2FFF70F
:100CC00085FA0020454908700020DFF8D01508702B
:100CD0000020DFF8CC1508700020DFF8FC18087041
:100CE0000020DFF8F81808700020DFF8C015088031
:100CF0000020DFF8BC1508800020DFF8001808800D
:100D00000020DFF8FC1708800020DFF8F8170880C3
:100D10000020DFF8F41708800020DFF8881508802D
:100D20000020DFF88415088000202A4981F840005F
:100D30000020DFF8AC18088000202249087000204D
:100D4000DFF8301908700020DFF84C15087001BD7D
:100D50000020DFF8441508707047000000E100E053
:100D600080E100E01CB5ADF80010DFF814492278EE
:100D70000300DBB29A4200D0207089B24FF6FF70B8
:100D8000814205D002224FF49A71684600F053FF69
:100D90002078ADF8000002224FF49871684600F008
:100DA0004AFF13BD4D110020A41000204711002060
:100DB000161100204C1100202011002018110020D5
:100DC0001E11002042110020261100204B1100208E
:100DD0008C0F0020D00F0020221100204111002094
:100DE000301100202A1100202E1100202C1100208B
:100DF0002DE9F84F0E0000270024DFF888885FF007
:100E0000FF31A8F80010DFF88098012189F8001060
:100E1000C10607D50124DFF868180A7812F0EF023E
:100E20000A700FE0DFF858180A78D20606D50200DB
:100E3000D2B212F00F02012A40F02A820A7812F090
:100E40000F020A7010F00F000500DFF834A89AF8BE
:100E500000B05FEA0B1B15EB0B0B5846C0B2122813
:100E600010D022280ED0242811D042280AD044289D
:100E700018D0482816D0822804D0842812D0882878
:100E800010D015E00220FFF737FA070010E0DFF876
:100E9000FC17DFF8FC0702F0D7F80700380080B233
:100EA000002805D1DFF8EC070078FFF725FA0700E6
:100EB000380080B2002840F041810020DFF8D817C8
:100EC00008805846C0B2112800F00D81122844D085
:100ED00013283CD0142800F02D81182800F02A8116
:100EE000212800F0F880222800F0FF80232800F05D
:100EF0002181242863D0282800F01C81312828D0A3
:100F0000322800F01781342800F01481382800F0CE
:100F10001181412800F0D180422800F0B880432898
:100F200000F00881442800F0E080482873D0812830
:100F300000F0B580822800F09C80832800F0FA80C1
:100F4000842800F08E80882800F0CF80F4E01327FA
:100F500013E11327FFF7FCFE0FE1FFF76BF9DFF852
:100F600018080078002800D15127380080B20028E6
:100F700024D102F014FC0700380080B200280DD103
:100F8000002089F8000001F0DFFF0700380080B280
:100F9000002803D10120DFF8E4170870380080B280
:100FA00000280BD0380080B2FF2807D099F8000045
:100FB000002801D101F0CAFF02F042FCDDE0FFF79A
:100FC00033FB0700380080B2002813D1002089F8D5
:100FD0000000DFF8AC47200001F0BAFF070038003E
:100FE00080B2002806D12088FFF70AF90120DFF837
:100FF00084160870380080B200280BD0380080B208
:10100000FF2807D099F80000002801D102F016F857
:10101000FFF73EFEB1E0FFF718FE0700380080B290
:1010200000280DD1002089F8000002F009F807001F
:10103000380080B2002803D10120DFF84016087084
:10104000380080B200280BD0380080B2FF2807D0CB
:1010500099F80000002801D101F0F4FFFFF70EFE1F
:101060008BE001F0EFFFFFF709FE002089F8000098
:1010700083E001F0E7FF0700FFF700FE002089F89A
:101080000000380080B2002877D15FF0420B01F0F9
:10109000D5FFFFF7FDFD002089F800006DE001F0AD
:1010A000D1FF0700FFF7EAFD002089F800003800B3
:1010B00080B2002861D15FF0410B01F0BFFF070053
:1010C000FFF7E6FD002089F80000380080B2002814
:1010D00053D15FF0210B02F0B3FB01F037FF0700A3
:1010E000FFF736FE49E0FFF733FEE4B2002C04D0F0
:1010F0005846C0B280B201F026FFDFF870050078D4
:10110000002815D19AF8000010F00C0F10D0DFF86D
:101110007C050088002803D00220FFF7D4F807E000
:10112000DFF86C050088002802D00320FFF7CBF819
:10113000FE2722E0112720E012271EE09AF8000087
:1011400002280BD0042805D0082816D101F07AFF18
:10115000FFF794FD01F072FFFFF79AFD380080B2AF
:10116000162807D102F06CFB01F0F0FE01208AF88E
:10117000000002E002208AF80000380080B2FF2858
:1011800026D10120DFF834170870DFF80C055FFA6C
:101190008BFBA0F800B00088122806D0132804D0DA
:1011A000242807D0482805D009E04FF4FA60A8F8B1
:1011B000000007E042F22830A8F8000002E0C82052
:1011C000A8F80000B8F800003238A8F800005FE086
:1011D0002800C0B29AF8001011F00F0188424ED0DA
:1011E000380080B2002803D1300080B2002820D01F
:1011F0002900C9B29AF800000143080719D5DFF8A1
:101200007C040078002803D001F01CFFFFF736FDB6
:10121000DFF878040088002803D00220FFF739F8AF
:1012200007E0DFF86C040088002802D00320FFF7F5
:1012300030F8380080B200280DD09AF80000082855
:1012400002D104208AF800009AF8000050F0100043
:101250008AF8000008E0300080B2002802D0370091
:1012600055F010058AF800500020DFF8501608707D
:10127000390089B29AF80000FFF774FD08E00020F9
:10128000DFF83816087000219AF80000FFF76AFDB1
:10129000BDE8F18FB13C4FC356110020461100202C
:1012A000431100200E110020101100200011002019
:1012B000FE100020F8B5DFF804462078002800F082
:1012C0001781002000260025DFF8B803B0F90000E0
:1012D00000286AD1DFF8C0030688B6B23609008854
:1012E000122806D0132804D0242816D0482828D045
:1012F000ECE0DFF894030078002801D101F026FE2D
:1013000002F09EFADFF864030078002803D0DFF8CB
:101310006003058800E00125D8E0DFF86C03007861
:10132000002801D101F08AFEFFF7B2FCDFF83C0390
:101330000078002803D0DFF83803058800E0012595
:10134000C4E0DFF87C050078002813D0A2480078BC
:10135000002801D12D251AE0DFF868050078002863
:1013600006D1DFF828030088002801D01B250EE0F5
:101370001A250CE0DFF814030088002801D01B2593
:1013800005E0082600250120DFF83C15087028003C
:1013900080B2002808D0DFF8F0020078002801D1E0
:1013A00001F050FEFFF76AFC90E0DFF8EC7238883D
:1013B000122806D0132804D024281FD0482839D05A
:1013C00084E0DFF8C4120878002816D000200870E6
:1013D00001F0BAFD010089B2002907D10120DFF830
:1013E0009C1308703E7816F00F0606E080B2FF28C6
:1013F00003D001F0ABFD02F023FA67E0DFF88812BA
:101400000878002815D000200870DFF8740301F078
:101410009FFD010089B2002904D10120954908707F
:10142000042606E080B2FF2803D001F007FEFFF794
:101430002FFC4BE0DFF850020078002846D0DFF8A0
:1014400080040078002824D06548B0F900100129F4
:101450003CDBDFF82412B1F90020B0F900309A42E9
:1014600034DB002202800020088001F0E9FD010049
:1014700089B2002905D10120DFF84C140870082634
:1014800024E080B2FF2821D001F0DCFDFFF7F6FB5D
:101490001CE0DFF8F8010088002804D0DFF82404FD
:1014A0000078002812D001F0CBFD010089B200299C
:1014B00005D10120DFF810140870082606E080B27C
:1014C000FF2803D001F0BEFDFFF7D8FB3000C0B20B
:1014D00000280DD000202070280080B2002801D004
:1014E00056F01006290089B23000C0B2FFF73AFC6E
:1014F000F1BD0000321100201C1100200811002055
:10150000061100200A1100200C110020DFF8B003A2
:10151000007800285FD0DFF8B4130888002809D0CD
:10152000DFF8AC0300880A88904203D300202A49E0
:1015300008700BE0DFF89803028809888A4202D21B
:101540000188491C0180012023490870224908783C
:10155000002810D0DFF87C23108800280BD0DFF89B
:10156000780303881288934203D20288521C0280B7
:1015700001E0002008700878002826D0DFF85C130E
:10158000088DDFF85C23128990420CD201201349A8
:1015900008701348B0F9000001281CDB36480188A8
:1015A000491C018017E00D4A1078002813D0002054
:1015B0001070012081F840000948B0F900000128AE
:1015C00009DB00202C49088005E004490878002840
:1015D00001D0002008707047441100204511002000
:1015E0000211002080B5DFF8FC02008800281DD021
:1015F0000020ADF8000002224FF48861684600F038
:10160000AEFABDF80000C00710D4204800880028BA
:101610000CD01A480078002804D01B210420FFF7C2
:10162000E7FB20E00020DFF89C120870DFF8900252
:101630000078002817D011480078002813D0DFF870
:10164000A8020078002804D12C210420FFF7D0FB49
:1016500009E0DFF898020078002804D11A2104205C
:10166000FFF7C6FBFFE701BDA0860100481100207F
:101670001211002040110020041100203F11002011
:101680004C110020FC1000204911002018110020EE
:10169000161100204B1100201411002038B5002035
:1016A000ADF8000002220421684600F058FA934D7C
:1016B000BDF8000080B2000A2870022206216846A8
:1016C00000F04DFABDF80000800200F6FF708C4972
:1016D0000880FEF7AFFD002404E02000C0B2FEF752
:1016E000D8FD641C20002978C0B28842F5D301F0EF
:1016F000F1FF002083490870002070490870002025
:101700007049087000207049087000207A490870FC
:1017100000207D49087000207249088000206C4933
:10172000088000206949088000206B49088000205B
:101730006849088000206249087000206C490870E0
:1017400000206C49088000200D49088000206F4966
:10175000088000206E4908806E4801210170002138
:101760000078FFF7FFFA00206B49088000206B49E2
:10177000087002F00FFB31BD4D1100205011002008
:101780002211002038B50020ADF802000120ADF88C
:10179000000002F0ABFA624D2878002805D0022242
:1017A00040F60E01684600F0DAF900F0CCF90400CA
:1017B000E00713D54148007800280FD102224FF4EA
:1017C00090710DF1020000F0CAF94FF6EE7004407E
:1017D0000021BDF80200C0B2FFF70AFBE00615D5F4
:1017E00036480078002811D14A4A1078C0060DD436
:1017F000107830F01000012808D04FF6EF70044048
:101800000021107810F00F00FFF7F2FA2B48007853
:10181000002801D0FFF74EFD287800284CD0BDF8F5
:101820000000C00706D400213A48007810F00F00ED
:10183000FFF7DEFAA0050CD53A480021018002220C
:101840003949098800F0F7F94FF6FF50044002F0DB
:10185000C6F8BDF80000800703D53448007800289A
:1018600007D0BDF8000080071DD43048007800285C
:1018700019D002F0F8F82D480078002806D0BDF8FD
:10188000000050F40070ADF8000006E0BDF8001054
:101890004FF6FF500140ADF80010022240F60E0155
:1018A000684600F0C8F900F04EF9C10504D54FF6BE
:1018B000FF61084002F03EF931BD00004A110020EE
:1018C00043110020411100203F1100200811002089
:1018D000061100200C1100200A1100208C0F00209E
:1018E0002C0800201C11002044110020451100206C
:1018F0004811002012110020401100204B1100203F
:101900001A11002049110020421100201811002056
:10191000161100204C110020141100204611002047
:1019200050110020241100203011002051110020FE
:10193000010049B2002909D4012210F01F018A4098
:10194000DFF8301440B2400941F820207047010010
:1019500049B200290DD4012210F01F018A40DFF89E
:10196000181440B2400941F82020BFF34F8FBFF355
:101970006F8F704710B572B6DFF8004400224FF445
:101980000061200002F039FB02224FF40871DFF8F9
:10199000F00300F01BF901224FF40061200002F077
:1019A0002CFB62B610BD10B5DFF8D04301224FF416
:1019B0000061200002F021FB00224FF400612000B2
:1019C00002F01BFB02224FF40871DFF8B40300F0B1
:1019D000FDF801224FF40061200002F00EFB10BD63
:1019E00080B586B000200090DFF89803016851F0C0
:1019F00001010160016811F00101009100990021CD
:101A00000091016851F040010160016811F040014E
:101A10000091009900210091016851F002010160DC
:101A2000006810F002000090009809200190012049
:101A300002900220049001A9DFF84C0302F0F2F9B1
:101A40004FF41540019000200290012003900220E5
:101A5000049001A9DFF8340302F0E4F9C0200190FA
:101A6000012002900220049001A9DFF8240302F073
:101A7000D9F907B000BD1CB502F0F6FA02F00EFB72
:101A8000FFF7AEFF02F064FB02F023FFC14802F053
:101A900057FFBA4C00220421200002F0AEFA642065
:101AA00002F062FF01220421200002F0A6FA642065
:101AB00002F05AFF02F0A0FE9320ADF800000422CD
:101AC0004FF40171684600F0B6F80020ADF8000050
:101AD00004224FF40171684600F041F8BDF800009F
:101AE0009328E9D140F20111542002F045FC012174
:101AF0005C2002F041FC582002F0DBFB0020ADF836
:101B0000000004224FF40171684600F094F802F0DE
:101B10003FFF0A20FFF70CFF02F05AFF02F079FFA7
:101B20002820FFF705FF2820FFF702FF0A2002F018
:101B300099FF1C20FFF7FCFE62B6974802F000FFF9
:101B4000002016BD704780B5FFF714FF8C48008851
:101B500002BD80B5FFF727FF8948008802BDF8B5B0
:101B600006000C00150014E0380080B2032802D1F2
:101B7000012700E0022772B63A0092B2210089B232
:101B8000300002F0CDFD62B6ED1B380080B2064495
:101B90003C19280080B2002817D0200080B2B0F590
:101BA000805F01DB2F00E6E7280080B2052801DB1B
:101BB000042700E02F00E00701D50127DBE7A0079D
:101BC000D2D5F807D6D50127D5E7F1BDF8B506007F
:101BD0000C00150012E0380080B2032802D1012762
:101BE00000E002273A0092B2210089B2300002F0F0
:101BF00097FDED1B380080B206443C19280080B2E6
:101C0000002817D0200080B2B0F5805F01DB2F00E4
:101C1000E8E7280080B2052801DB042700E02F0058
:101C2000E00701D50127DDE7A007D4D5F807D8D50F
:101C30000127D7E7F1BDF8B506000C00150014E048
:101C4000380080B2032802D1012700E0022772B6D3
:101C50003A0092B2210089B2300002F071FD62B602
:101C6000ED1B380080B206443C19280080B20028E1
:101C700017D0200080B2B0F5805F01DB2F00E6E7CF
:101C8000280080B2052801DB042700E02F00E007D0
:101C900001D50127DBE7A007D2D5F807D6D5012764
:101CA000D5E7F1BDF8B506000C00150012E03800CC
:101CB00080B2032802D1012700E002273A0092B245
:101CC000210089B2300002F03BFDED1B380080B2EC
:101CD00006443C19280080B2002817D0200080B2AA
:101CE000B0F5805F01DB2F00E8E7280080B205280F
:101CF00001DB042700E02F00E00701D50127DDE725
:101D0000A007D4D5F807D8D50127D7E7F1BD80B50E
:101D1000010089B2102905D100F0F5F810201F4903
:101D2000086016E0010089B2B1F5005F06D100F04D
:101D3000CDF94FF40050194908600AE080B2B0F5BF
:101D4000804F06D100F053F94FF4804013490860EA
:101D5000FFE701BD80B50A20FFF7F9FD00F064F848
:101D60007FF001000E49096808610A20FFF7E0FDD5
:101D700001BD000000E100E080E100E0000C024055
:101D800028110020303802400000024000180240B4
:101D90000004024044C0000808C10008143C01408F
:101DA000780E0020010049B2002909D4012210F068
:101DB0001F018A40DFF8081440B2400941F8202092
:101DC0007047010049B200290DD4012210F01F0113
:101DD0008A40DFF8F01340B2400941F82020BFF3F9
:101DE0004F8FBFF36F8F704710B5DFF8DC432000D3
:101DF00001F0BEFADFF8D4030288DFF8D4030188CB
:101E00002000FFF74FFF10BD10B5DFF8C843DFF823
:101E1000C8030288DFF8C40301882000FFF7D6FE5C
:101E2000200001F032FB10BD80B5DFF8B40340683C
:101E3000002804D1DFF8AC030188491C0180DFF8D9
:101E4000A8030078002808D0DFF8A003B0F900103C
:101E5000012902DB0188491E0180FFF757FB01BD04
:101E6000F0B4DFF88C03007800284AD1DFF884034F
:101E70000078002845D00020DFF864138A8B012AFF
:101E800000D10120C0B2002818D0002048600020F6
:101E90008883DFF8640300214160002181830020F2
:101EA000DFF8401308800120DFF850130870DFF8D6
:101EB00050030068DFF84C13086022E0DFF83C2391
:101EC000107801281DD1DFF8380303680020DFF8FF
:101ED0003853DFF83063DFF80C733C8830681B1A26
:101EE0006B434FF4FA6093FBF0F005FB04044C6085
:101EF000DFF80403446000203880002030600020B8
:101F00001070F0BC704770B5DFF8E8020078002868
:101F10006CD0FFF71EFE0400600531D5DFF8EC023F
:101F20000078002808D0DFF8C8020078002803D025
:101F30000020DFF8DC120880A949088D002802D0B3
:101F4000088D401E0885FFF78BFF0120B1490870FE
:101F5000B1480078002802D0FFF756FF10E0AF4DDF
:101F60009E4E022231882800FFF730FE022231887F
:101F7000994800884118891E89B22800FFF726FE7B
:101F8000200505D594480088002801D1FFF768FF97
:101F9000934C6088012801D100F009F9A04800782D
:101FA000002808D094484188012902D0408822287E
:101FB00001D1FFF719FFFFF7CCFD400516D5608D65
:101FC000401C6085608D8C494885944C834D02226D
:101FD00029882000FFF7FAFD022229887E48008820
:101FE0004118891E89B22000FFF7F0FD70BD38B599
:101FF00000208C4908807E480078002865D0884CF5
:102000002078002803D088480188491C018087492E
:10201000088800283AD07E4D0888298888421CD23A
:102020006D490888002808D06D48814A1289038DBF
:102030009A4202D3028DD21C02856448008800288F
:102040000BD00888002808D16B4879490989028D8E
:10205000914202D3018DC91C01855F480088002888
:1020600011D15A48008800280DD0FFF772FD0005F5
:1020700003D42888401C288008E000202880002005
:102080005D49088502E02888401C2880594800786E
:10209000002805D160480078002801D0FFF7B4FE81
:1020A00000F085F8207800280FD0624D288800289D
:1020B0000BD05D4C28882188884206D1FFF794FE1A
:1020C0002888012801D10020208031BD80B5002062
:1020D0005949088052480078002809D0464840886D
:1020E000032805D153480088002801D1FFF77CFE62
:1020F00000204D49088001BD10B50024FFF7CEFA3D
:1021000002F0F7FC00203749088000203D490860B4
:1021100000203A490870012048490870200080B228
:1021200010BD80B54548007800283FD03149087877
:10213000002803D03748007800282BD12C4800789D
:10214000002827D10878002816D1FFF7FCFC4105AC
:1021500009D501202F4908702F48007800280BD09E
:10216000FFF752FE08E01C490988002904D1000548
:1021700002D50120274908700A20FFF722FE00F04F
:1021800016F827480078002801D0FFF72DFE0A2016
:10219000FFF708FEFFF7F6FA02F099FDFFF722FAC3
:1021A0001F480078002801D000F031FB01BD80B548
:1021B0001B480078002801D001F010FA01BD000092
:1021C00000E100E080E100E0480F0020161100204F
:1021D00020110020040F0020181100201E110020E3
:1021E0008C0F0020FA1000204A110020FC10002063
:1021F0004311002046110020D00F00203D11002087
:1022000024000040B010002040420F004411002084
:10221000FE100020411100203F1100202411002059
:102220004011002006110020101100200011002094
:102230002C0800200E1100200A1100203E11002061
:102240002DE9F0470024002000204FF400651026FF
:10225000002700E07F1C380080B2022880F29C82B8
:10226000C02100225FF0C008DFF8B89A380080B2C1
:1022700008FB00F009EB000A504602F09BFD00202D
:10228000390089B208FB01F109F80100380080B279
:1022900008FB00F0484401214170380080B208FB7F
:1022A00000F0484401218170380080B208FB00F042
:1022B00048440021C170380080B208FB00F0484457
:1022C00000210171380080B208FB00F04844012170
:1022D0004171380080B208FB00F048440121C18000
:1022E000380080B208FB00F048440021018138002A
:1022F00080B208FB00F009EB000200200021C2E9D7
:102300000401380080B208FB00F0484400218161DC
:10231000A022DFF8141A380080B208FB00F048440D
:1023200010F11C0A504602F095FD00211AE0380019
:1023300080B208FB00F048440A0092B200EB82022F
:10234000380080B208FB00F048440B009BB200EB61
:102350008300036ABC461FFA8CFC280400FB0C3384
:102360001362491C08003A0092B208FB02F24A4488
:10237000928B80B29042DAD300211AE0380080B20A
:1023800008FB00F048440A0092B200EB82023800D9
:1023900080B208FB00F048440B009BB200EB8300C6
:1023A000836BBC461FFA8CFC280400FB0C33936340
:1023B000491C08003A0092B208FB02F24A44928E8D
:1023C00080B29042DAD300211AE0380080B208FBD4
:1023D00000F048440A0092B200EB8202380080B25A
:1023E00008FB00F048440B009BB200EB8300436CF9
:1023F000BC461FFA8CFC280400FB0C335364491CB8
:1024000008003A0092B208FB02F24A44B2F84020B7
:1024100080B29042D9D300211AE0380080B208FB84
:1024200000F048440A0092B200EB8202380080B209
:1024300008FB00F048440B009BB200EB8300036DE7
:10244000BC461FFA8CFC280400FB0C331365491CA6
:1024500008003A0092B208FB02F24A44B2F84C205B
:1024600080B29042D9D300211AE0380080B208FB34
:1024700000F048440A0092B200EB8202380080B2B9
:1024800008FB00F048440B009BB200EB8300836E16
:10249000BC461FFA8CFC280400FB0C339366491CD5
:1024A00008003A0092B208FB02F24A44B2F86420F3
:1024B00080B29042D9D300211AE0380080B208FBE4
:1024C00000F048440A0092B200EB8202380080B269
:1024D00008FB00F048440B009BB200EB8300436F05
:1024E000BC461FFA8CFC280400FB0C335367491CC4
:1024F00008003A0092B208FB02F24A44B2F8702097
:1025000080B29042D9D3380080B208FB00F009EBCA
:10251000000A4FF47A7003F085FBCAF8BC004FF450
:102520007A72DFF8141B380080B208FB00F04844D0
:10253000D0F8BCA0504602F08DFC380080B208FBF9
:1025400000F04844D0F8BC1018E00A893B009BB268
:10255000280080B24343981808810EE000200889C3
:10256000B0F5A050B0F5006FEFD20A893B009BB2E6
:102570003000C0B2434398180881283108894FF6CB
:10258000FF7290423FF466AE012008894FF4B052CA
:10259000801A41D0401E47D0401E4DD040F2FE323E
:1025A000801A51D0401E57D0401E5DD044F23D628B
:1025B000801A61D0401E67D0401E6DD0193873D08C
:1025C000401E79D0401E00F07F80801E00F0848085
:1025D000801E00F08980401E00F08E80C01E00F03A
:1025E0009380083800F098800B3800F09D80C01E62
:1025F00000F0A280C01E00F0A780083800F0AC8078
:102600003D3800F0B1803D3800F0B68040F2034222
:10261000801A00F0B980A1E7380080B208FB00F012
:1026200048441C3088619AE7380080B208FB00F00B
:1026300048443430886192E7380080B208FB00F0EB
:102640004844403088618AE7380080B208FB00F0D7
:1026500048444C30886182E7380080B208FB00F0C3
:102660004844643088617AE7380080B208FB00F0A3
:1026700048447030886172E7380080B208FB00F08F
:1026800048447C3088616AE7380080B208FB00F07B
:1026900048447E30886162E7380080B208FB00F071
:1026A0004844803088615AE7380080B208FB00F067
:1026B00048448230886152E7380080B208FB00F05D
:1026C0004844843088614AE7380080B208FB00F053
:1026D00048448630886142E7380080B208FB00F049
:1026E0004844883088613AE7380080B208FB00F03F
:1026F00048448A30886132E7380080B208FB00F035
:1027000048448C3088612AE7380080B208FB00F02A
:1027100048449030886122E7380080B208FB00F01E
:102720004844943088611AE7380080B208FB00F012
:1027300048449830886112E7380080B208FB00F006
:1027400048449C3088610AE7380080B208FB00F0FA
:102750004844A030886102E7380080B208FB00F0EE
:102760004844AC308861FAE6380080B208FB00F0DB
:102770004844B0308861F2E6380080B208FB00F0CF
:102780004844B4308861EAE6380080B208FB00F0C3
:102790004844B8308861E2E6200080B2BDE8F087A6
:1027A000F8B5002000241BE0388902F035FA2837FC
:1027B00038894FF6FF718842F6D12000C0B205FB80
:1027C00000F506EB0500D0F8BC0003F007FE002082
:1027D000DFF8901B08800020DFF88C1B0880641C49
:1027E0002000C0B2022811DAC025DFF838652000C9
:1027F000C0B268433044D0F8BC000028E7D02000C5
:10280000C0B268433044D0F8BC70D1E7F1BD10B419
:10281000002000200020002151E04FF6EF7003401F
:1028200048E0D088042806DADFF8400B0078082852
:1028300001D10420D080D08801285ED0022867D042
:1028400004286FD0082800F08A80102800F0A780A4
:10285000202800F0D780402800F0EA80802800F08F
:10286000F48000230120D080D088012800F0F5807A
:10287000022800F0F280042800F0EF80082800F021
:10288000F580102800F0FB80202800F0F880402818
:1028900000F0F580802800F0FB80012050700020BF
:1028A000D0700020107101205071D0780128B4D16F
:1028B00053F0100353F40073A2F88030491C080051
:1028C00080B2022880F2ED80C022DFF85834080080
:1028D00080B25043185C0028F0D0080080B202FBA0
:1028E00000F21A44B2F88030B2F87E404FF69050B1
:1028F00003401089002894D0D3E0DFF8700A0078F4
:10290000082802D10220D08001E00120D080ABE76E
:1029100053F02003A4B214F08704062C01D1042044
:10292000D080A1E753F02103200080B210F0860090
:10293000022803D0200010F0820F02D10220D080A4
:102940000CE0200080B210F0C700072804D0A4B229
:1029500014F08F040F2C01D10820D08084E753F0AD
:102960002303200080B210F08700062802D1042043
:10297000D08013E0200080B210F08600022803D03F
:10298000200010F0820F02D10220D08006E0A4B215
:1029900014F08F040F2C01D11020D08064E753F085
:1029A0002703200080B210F08F0007280AD1B2F967
:1029B0008600002802D10820D08018E046F25C0092
:1029C00010816EE0200080B210F08600022802D153
:1029D0002020D0800BE0200080B210F08700062875
:1029E0000AD1B2F98400002802D10420D0803BE74C
:1029F00046F25B00108154E014F0820FF7D1022000
:102A0000D080F4E753F00703B2F98200002805D024
:102A100092F8800010F06F00072805D114F0820FA3
:102A200001D10220D0801FE746F25A00108138E021
:102A300053F00F03B2F98800002802D18020D08023
:102A400012E746F25E0010812BE053F00803A4B2B7
:102A5000200601D50220D08006E70120507000201A
:102A6000D07000201071012050711EE701205070BD
:102A70000120D070002010710120507115E7002056
:102A800050700120D07001201071002050710CE7AF
:102A9000012050700020D070002010710120507172
:102AA00003E710BC7047000070B52DED028B0600E7
:102AB00096ED060AB8EE400ADFED980A20EE208A6D
:102AC000DFED978AD6F8940003F08AFC04000D002D
:102AD00018EE100A03F096FC22002B0003F0B6FC5F
:102AE000D6E9042303F084FDC6E90401D6E9040114
:102AF00003F03CFEC6F890003079002854D0B0783E
:102B0000002851D0F07800284ED0707800284BD1A2
:102B1000D6F89000D6F8A810884205DBD6F89C00BD
:102B2000D6F89010884239DAD6F8A400D6F890107A
:102B3000884205DBD6F89000D6F89C1088422DDA42
:102B4000B6F880104FF2FF700140A6F88010B6F979
:102B50008C00082802D0092816D01EE0B5EE408A65
:102B6000F1EE10FA0DD0D6F89C10D6F89000091AA4
:102B700000EE101AB8EEC00A80EE080AFDEEC08A18
:102B800001E0DFED678A0FE0F088102802D1D6ED72
:102B90002D8A01E0DFED628A06E005E0B6F88000EC
:102BA00050F40060A6F88000C6ED258AB6F88A00C9
:102BB000A6F88C00BDEC028B70BD00B2012806D0D7
:102BC0000DD3032807D004D3042806D007E0012042
:102BD00006E0012004E0012002E0012000E00020E6
:102BE000704710B50400208900280FD0B4F98C007C
:102BF000082803D0B4F98C00092807D1B4F8801054
:102C00004EF6FF700140A4F8801005E0B4F8800093
:102C100050F48050A4F88000208946F25A01401AEE
:102C200006D0401E3BD0401E45D0801E4FD05AE0FB
:102C3000B4F88200B4F98210491F042913D2B4F900
:102C40008210052900D10120B4F98210062900D193
:102C50000220B4F98210072900D10320B4F98210B0
:102C6000082900D10420210000B2FFF7A6FF0028A8
:102C700014D000202081B4F98200401E042802D222
:102C80000220E0800AE0B4F98200401F042805D247
:102C9000B4F8800050F48060A4F8800029E021009E
:102CA000B4F98400FFF789FF002803D000202081B9
:102CB0000420E0801DE02100B4F98600FFF77DFFCD
:102CC000002803D0002020810820E08011E02100AE
:102CD000B4F98800FFF771FF002803D0002020819D
:102CE0008020E08005E0B4F8800050F48050A4F823
:102CF0008000DFF84C09007800280DD0A06900287A
:102D00000AD0D4F8B800B4F88A10491EC840C007E9
:102D100002D52000FFF7C8FE10BD000027288F3A1B
:102D200000000000500C0020B806002070B403988A
:102D30000A00D2B2DFF80C4925880A00C0B2002888
:102D400008D00800C0B2002801D11D88EDB22A00C9
:102D5000C9B229E00800C0B2ADB280B2854201D24A
:102D60001120EEE0DFF8E0580E00F6B206204643F0
:102D700005EB06008588AD1015F00E05DFF8EC6553
:102D8000367816F00F06B542E2DA007910F0380F07
:102D900001D10720D5E01A20D3E01878032845DABE
:102DA000188820809B1C491C1000C0B20D0080B206
:102DB000ADB2A84240D3080080B20028EDD0080090
:102DC00080B254F82050080080B204EB80001E88C6
:102DD00006805E8846801B1D080080B254F82000E3
:102DE000DFF86868B042DED0080080B254F82000F6
:102DF000DFF85C68B042D6D0080080B254F82000FA
:102E0000DFF85068B042CED0080080B254F82000FD
:102E10000028C8D0080080B244F82050080080B2D2
:102E200054F82000002803D0218003E0132088E01C
:102E3000481E2080122084E00020DFF81C08218832
:102E40000180DFF8181822880A80DFF81428238808
:102E50001380002329E000251E00F6B201EB460690
:102E6000758000251E00F6B202EB4606758000252F
:102E70001E00F6B200EB8606756015E01D00EDB28F
:102E800041F2026616EB05161D00EDB201EB450599
:102E90006E801D00EDB241F6022616EB05161D00F0
:102EA000EDB202EB45056E805B1C1D00EDB226887D
:102EB000ADB2B54244D241F289351E00F6B200EB04
:102EC000860675601D00EDB204EB85056D68DFF8C0
:102ED0007C67B54208D0DFF87867B54219D0DFF8D3
:102EE0007467B542CAD0B6E71D00EDB22D0115F5E5
:102EF000B0551E00F6B201EB460675801D00EDB21E
:102F00002D0115F5D0551E00F6B202EB4606758070
:102F1000CAE71D00EDB241F2016616EB05161D0071
:102F2000EDB201EB45056E801D00EDB241F60126C4
:102F300016EB05161D00EDB202EB45056E80B3E7FA
:102F4000002070BC70477047002070470020704719
:102F500038B500200090DFF8EC06008800283FD14B
:102F60000020DFF8F406DFF8F4160A880280DFF8A4
:102F7000F4260B88138000230FE0DFF8D8461D00ED
:102F8000EDB202EB85056C6006E0DFF8C4461D007B
:102F9000EDB202EB85056C605B1C1C00E4B20D8891
:102FA000A4B2AC421CD241F289341D00EDB200EB58
:102FB00085056C601C00E4B201EB4404A47814F0B5
:102FC0000F04E4B2002C03D0022CD6D0DDD3E3E70B
:102FD000DFF878461D00EDB202EB85056C60DBE79B
:102FE00004224FF41A616846FEF7B9FDDFF8500677
:102FF000007801281DD100984FF47A71B0FBF1F0F0
:103000000090002111E0C022DFF85C36080080B299
:103010005043185C002807D0080080B202FB00F281
:1030200003EB0200009A8261491C080080B202286A
:10303000E9DB002032BD00000000002000207047C6
:1030400000207047002070472DE9F34F81B05FF0FA
:10305000000B002000200020002400250020DFF8C5
:10306000FC653088032801DB192079E1002713E093
:10307000BAF8080001F0D0FD1AF1280ABAF80800E1
:103080004FF6FF718842F3D10020390089B209FB65
:1030900001F908F809007F1C3800318880B28842A5
:1030A0004FD2380080B206EB40004088C0F30310D6
:1030B000C0B2390080B289B288422ED15FF0C00818
:1030C000DFF8A495380080B208FB00F019F8000082
:1030D0000028E0D1380080B208FB00F04844D0F866
:1030E000BCA001E01AF1280ABAF808004FF6FF71F7
:1030F00088420AD0504601F04DFD8346584680B2C2
:103100000028EFD0584680B22AE10120390089B268
:1031100008FB01F809F80800BDE75FF0C009DFF817
:103120004885380080B209FB00F018F8000000283C
:10313000B1D0380080B209FB00F04044D0F8BCA008
:103140009CE700201BE00700BFB257430F449C469A
:103150001FFA8CFC07EB8C0797F8447007F0FF0709
:103160007D195B1C1F0084461FFA8CFC02FB0CFCC3
:103170008C44BCF840C0BFB26745E4D3401C01009A
:10318000328889B291426BD2010089B206EB4101CB
:10319000897811F00F01C9B2002903D0022952D059
:1031A00029D3EBE7C021DFF8C02403009BB24B43D7
:1031B00013444FF4C077C3F8B87000230EE0070043
:1031C000BFB24F4317449C461FFA8CFC07EB8C0799
:1031D00097F8207007F0FF077D195B1C1F008446DD
:1031E0001FFA8CFC01FB0CFC9444BCF81CC0BFB261
:1031F0006745E4D3C2E7C021DFF86C2403009BB22B
:103200004B4313448027C3F8B87000230EE0070037
:10321000BFB24F4317449C461FFA8CFC07EB8C0748
:1032200097F8387007F0FF077D195B1C1F00844674
:103230001FFA8CFC01FB0CFC9444BCF834C0BFB2F8
:103240006745E4D39AE7C022DFF81C1403009BB261
:1032500053430B444FF48077C3F8B870002381E7E1
:10326000ADB2ED08584680B2002873D100201CE0B2
:103270000600B6B203FB06F31A440B009BB202EB46
:10328000830292F8742002F0FF021419491CC02333
:10329000DFF8D4230E000700BFB25F431744B7F82E
:1032A0007070B6B2BE42E3D3401CDFF8B413020024
:1032B0000B8892B29A424BD2020092B201EB4201C9
:1032C000897811F00F01C9B2002903D002293DD03D
:1032D0001ED3E9E700210EE00600B6B203FB06F3B9
:1032E0001A440B009BB202EB830292F8502002F0CA
:1032F000FF021419491CC023DB4A0E000700BFB2AD
:103300005F431744B7F84C70B6B2BE42E4D3CBE784
:1033100000210EE00600B6B203FB06F31A440B00D0
:103320009BB202EB830292F8682002F0FF021419AC
:10333000491CC023CC4A0E000700BFB25F431744AC
:10334000B7F86470B6B2BE42E4D3ADE700219EE7A1
:10335000A4B2E4080299019804800D80584680B216
:10336000BDE8FE8F18110020161100204C1100201E
:1033700030B40021002135E0C023BB4C1500EDB274
:103380005D432544B5F880500580801C1500EDB2E2
:103390005D432544D5F894500580801CD2B25A4331
:1033A0002244D2F8942012140280801C19E0C02319
:1033B000AD4C1500EDB25D432544B5F88050058055
:1033C000801C1500EDB25D432544D5F89050058072
:1033D000801CD2B25A432244D2F8902012140280A8
:1033E000801C491C9E4B0A001C8892B2A2424AD201
:1033F0000A0092B203EB42025288C2F303120C009D
:10340000A4B203EB44039B7813F00F03DBB2002B51
:1034100003D0022BB0D0CAD3E3E7C023924C1500EF
:10342000EDB25D432544B5F880500580801C150041
:10343000EDB25D432544D5F890500580801C150001
:10344000EDB25D432544D5F890502D140580801CC5
:103450001500EDB25D432544D5F894500580801CDD
:103460001500EDB25D432544D5F894502D14058028
:10347000801CD2B25A43224492F88C2002F0FF0200
:103480000280801CADE730BC7047F0B40021002101
:1034900043E0C023744C1500EDB25D43254406881B
:1034A000A5F87E60801C1500EDB25D4325440688BA
:1034B000C5F8B460801C1500EDB25D432544D2B25E
:1034C0005A432244D2F8B420038812EB0342C5F8D1
:1034D000B420801C20E0C023634C1500EDB25D4396
:1034E00025440688A5F87E60801C1500EDB25D437A
:1034F00025440688C5F89C60801C1500EDB25D432C
:103500002544D2B25A432244D2F89C20038812EBBD
:103510000342C5F89C20801C491C504B0A001C88A3
:1035200092B2A24258D20A0092B203EB42025288EF
:10353000C2F303120C00A4B203EB44039B7813F014
:103540000F03DBB2002B03D0022BA2D0C3D3E3E7DF
:10355000C023454C1500EDB25D4325440688A5F80F
:103560007E60801C1500EDB25D4325440688C5F8D9
:103570009C60801C1500EDB25D4325441600F6B238
:103580005E432644D6F89C60078816EB0746C5F8CC
:103590009C60801C1500EDB25D4325440688C5F88B
:1035A000B460801C1500EDB25D4325441600F6B2F0
:1035B0005E432644D6F8B460078816EB0746C5F884
:1035C000B460801CD2B25A432244037803F0FF0354
:1035D000A2F88A30801C9FE7F0BC704710B5002429
:1035E00010E0C021204A200080B24843105C00282F
:1035F00007D0200080B201FB00F102EB0100FFF7D1
:10360000F0FA641C200080B20228EADB10BD10B57D
:10361000FEF731FAFEF770FDFEF712FE134914486B
:10362000FFF712FD134C01202070FEF77AFD207881
:103630000128FAD0FFF7B4F8FEF784FA002010BD95
:1036400043110020080800203CBF0008009811002A
:103650000098210000983100FC0700203808002065
:103660004008002014080020500C002018110020F1
:10367000161100203C11002010B44A88521C13007F
:103680008C889BB2A34200D100220B881400A4B204
:10369000A34201D1072005E04B8801EB830398602A
:1036A0004A80002010BC7047010008884A88904278
:1036B0000ED00A88100080B201EB80008068521C96
:1036C0000A800A888B889A4203D100220A8000E08F
:1036D000002070471CB52220DFF8641608804FF4E4
:1036E0008070DFF8601608804FF48050DFF85816BD
:1036F0000880DFF858160880DFF8540600210180A2
:10370000002141800A218180DFF8480600210180E4
:10371000002141800A2181800020DFF83C160860EA
:103720000020DFF8381608600020DFF83416086043
:103730000020DFF8301608600020DFF82C16087033
:103740000020ADF8000040F60E0402222100684679
:10375000FEF705FABDF800104FF6FF500140ADF836
:103760000010022221006846FEF765FA0020DFF80B
:10377000FC1508700020DFF8F81508700020DFF84D
:10378000F41508700020DFF8F01508700020DFF84D
:10379000EC1508700020DFF8E815087013BDF8B5C7
:1037A00000240020FCF766FDDFF89455418829804D
:1037B000DFF89465008830800120FCF75BFDDFF8BE
:1037C000841542880A80DFF88425008810801088DC
:1037D00033882F8817FA83F3984208DA30881288E2
:1037E000098811FA82F1884201DA162027E00020C8
:1037F000FCF769FD0120FCF766FDDFF85C652888B1
:1038000002F010FA3060306800280FD10120DFF894
:10381000741508700A2002F005FA3060306800283C
:1038200000D10224306802F0D9FD06E00020DFF864
:1038300054150870306802F0D1FD200080B2F2BD4E
:103840007CB50020DFF8241508700020FCF721FD6E
:103850000120FCF71EFDDFF804452068002802D097
:10386000206802F0BBFDDFF8FC542868002806D071
:1038700028682168884202D0286802F0AFFDDFF88E
:10388000E064306800280AD030682168884206D099
:1038900030682968884202D0306802F09FFD00201D
:1038A000206000203060002028600020DFF8B8147D
:1038B00008700020ADF8000040F60E04022221003E
:1038C0006846FEF74CF9BDF800104FF6FF50014076
:1038D000ADF80010022221006846FEF7ACF9002086
:1038E000DFF88C1408700020DFF8881408700020BE
:1038F000DFF8841408700020DFF8801408700020BE
:10390000DFF87C140870DFF84804FFF7CDFE0028CC
:1039100002D002F063FD00200028F4D1DFF8340467
:10392000FFF7C2FE002802D002F058FD0020002858
:10393000F4D173BD80B58188C1F30321032902D17D
:1039400000F02FFA00E00220C0B202BD10B5040062
:103950000020A18889B2090B208880B240F20112B0
:1039600090420FDB04202080A1884FF2FF0001402D
:10397000A1800120E080082020810021200000F0AB
:103980009AF82BE00800C0B2002806D00800DFF843
:10399000EC231278C0B290421CD0DFF8E003017033
:1039A000DFF8AC132000FFF767FE01000800C0B28B
:1039B000002813D004202080A2884FF2FF0002408C
:1039C000A2800120E080C9B221810021200000F006
:1039D00072F803E0200002F001FD002010BD10B5D8
:1039E0000020DFF88C130870DFF87043206800288F
:1039F00009D0DFF870030068002804D1206802F0C5
:103A0000EDFC00202060DFF8580300682060DFF83C
:103A100054432068002805D0206800F0FFF80020FB
:103A2000206007E0DFF82C03FFF73EFE002801D0FE
:103A300000F0F4F8DFF840432078002812D0207816
:103A400080070FD50020207810F0FD002070C248BC
:103A5000006800F0C1F9C0B2002803D0207850F00F
:103A60000200207010BDF8B5BC4C2068002818D0AA
:103A70002568BF4E307800280ED0BA4F386800282D
:103A80000AD10120FCF705FCB54800683860012028
:103A9000FCF719FC00203070280000F0BFF800206F
:103AA0002060B1490878002802D10120087001E0A7
:103AB00000200870F1BDF8B506000C000025B248E2
:103AC000007810F00F00012801D1F02031E0B0881B
:103AD0000005000DB080AA4F387810F0070F01D113
:103AE00001203870B088397850EA0130B080300059
:103AF00000F094F800280FD096493000FFF7BCFD85
:103B000005002800C0B2002802D054F0800406E06E
:103B10003878401C387002E03878401C3870200635
:103B200005D59548017814F07F040C4304702800F3
:103B3000C0B2F2BDF8B5844D022229886846FEF76E
:103B40000EF89048007801281DD10A2002F06AF88A
:103B50000400002C17D00A2100222600300001F0BA
:103B600029F904202080A1884FF2FF000140A180A4
:103B70000120E0800720208100212000FFF79BFF2B
:103B8000200002F02BFCBDF80000801DADF8000005
:103B900077480078002803D177480078002803D0C0
:103BA00001207449087038E0724C00202070644E87
:103BB0003088BDF80010884202D23088ADF800008D
:103BC000654F308802F02EF838603868002802D13E
:103BD0000120207021E0BDF8002029883868FDF719
:103BE000BEFF0020ADF80200022240F604010DF1F4
:103BF0000200FDF7B4FFBDF8020000050AD56348D6
:103C00000021018002222B883188CB18991E89B2AD
:103C1000FDF7A5FF3868FFF799FEF1BD2DE9F843E0
:103C200004005948007810F00F00012801D1F0205D
:103C30005AE04E480078002801D1F02054E04C4D65
:103C40002878002801D007204EE0B4F800803F4ECD
:103C500018F1060292B231882000FDF7ECFF002037
:103C6000ADF80000022240F60C016846FDF777FF30
:103C7000BDF80000000528D4DFF8C890B9F800208E
:103C8000B2EB0802921F414F002038801000C0B2F2
:103C9000022810DA1FFA88F818F106085FEA5808B7
:103CA0005FEA4800D2B2D2F1020204EB0001B8464A
:103CB000404601F0CFF802223188B9F800004118DF
:103CC000891E89B23800FDF7B6FF2549086800282B
:103CD00003D00020204A106002E02D481E4A1060E8
:103CE0000C60012028700020BDE8F28338B5002068
:103CF00000251748FFF7D8FC0400002C03D0200053
:103D0000FFF718FE05002800C0B200280ED00420DE
:103D10002080A1884FF2FF000140A1800120E080B7
:103D2000EDB2258100212000FFF7C5FE002CDFD178
:103D300010480078002801D0FFF7FCFE31BD0000DC
:103D40002C1100202A1100202E11002030110020FB
:103D50004810002014100020B8100020C0100020CF
:103D6000BC100020C4100020511100205011002070
:103D70004F1100204E11002054110020521100203C
:103D800053110020551100204C1100202411002057
:103D90007809002000202049086000201F49088081
:103DA000704780B50021C18889B2090BC9B2491E8C
:103DB0000DD0491E05D0491E042908D9491F03D03A
:103DC00007E002F099FF05E003F07CFA02E004202E
:103DD00000E00520C0B202BD38B50F4C20680028B5
:103DE00006D000212068FFF766FE0020206011E069
:103DF0004FF4807001F016FF0400002C01D1072061
:103E000009E00E2206492500280001F023F82000D1
:103E100003F058FA002032BDB41000203611002003
:103E200094100020F8B4002200220022002337E082
:103E3000082704E0DFF8F4219042F9D10727FFB208
:103E400013F00302D2B2920097403E431A00920848
:103E500045F82260DFF8D8512A68A2434E68F6027E
:103E600000D522432A60DFF8CC512A68A2434E686D
:103E7000B60200D522432A60DFF8BC512A68A2436B
:103E80004E68B60300D522432A60DFF8B0512A6895
:103E9000A2434E68F60301D5144322002A605B1C3E
:103EA000102B80F0A880012515FA03F20C6814404D
:103EB0009442F4D10A7912F00302012A04D00A795B
:103EC00012F00302022A16D1866803271A00D2B222
:103ED00052009740BE43CF681A00D2B252009740BA
:103EE0003E43866042689D40AA434D68C5F3001575
:103EF0009D402A4342600A7912F00302032A0DD042
:103F0000C56803261A00D2B252009640B5438E68A7
:103F10001A00D2B2520096403543C5600A7912F0B9
:103F20000302022A17D11A00D20800EB8202156A96
:103F30000F2613F00702D2B292009640B5430E69E5
:103F400013F00702D2B29200964035431A00D2080D
:103F500000EB82021562056803261A00D2B25200F5
:103F60009640B5430E7916F003061A00D2B25200FD
:103F70009640354305604A6812F4403F8FD00022D6
:103F800000922F4A156855F480451560126812F4A6
:103F900080420092009A2B4D1A00920855F8226038
:103FA0000F2713F00302D2B292009740BE43264A75
:103FB000904201D1002742E7244A904201D10127D3
:103FC0003DE7234A904201D1022738E7214A904237
:103FD00001D1032733E7204A904201D104272EE77D
:103FE0001E4A904201D1052729E71D4A90427FF4DD
:103FF00021AF062723E7F1BC7047D2B2002A02D0D6
:1040000089B2816102E089B209048161704780B59B
:1040100014490A6803009BB21A4205D0020092B20A
:104020000A6080B2FDF773FE01BD0000001C024073
:10403000083C01400C3C0140043C0140003C014074
:1040400044380240083801400000024000040240A9
:1040500000080240000C0240001002400014024020
:1040600000180240143C014080B50B48016851F42F
:1040700000710160016851F480610160016851F4D0
:1040800080710160032003F028FB0F2003F062FB26
:1040900003F086FB002002BD003C024080B592B0D8
:1040A000002000902848016851F0805101600068AC
:1040B00010F0805000900098002000902348016884
:1040C00051F480410160006810F480400090009835
:1040D000012006905FF48030079002200C905FF47E
:1040E00080000D9008200E904FF4A8700F900220D1
:1040F00010900720119006A803F072FB0F2001908A
:1041000002200290002003904FF4A05004904FF43E
:1041100080500590052101A803F044FD03F0DFFD68
:1041200003F0E1FD4FF47A71B0FBF1F003F0EAFA2D
:10413000042003F0EBFA002200215FF0FF3003F0CF
:10414000D0FA13B000BD00BF4038024000700040FC
:1041500080B5DFF8F006DFF8F01601604FF48271E9
:104160004160002181600021C160002101610021C6
:1041700041614FF4007181611021C1610021016230
:1041800000214162002181620A21C16203F024FE04
:1041900001BD38B586B00068DFF8AC16884270D132
:1041A00000200590DFF8A406016851F40041016089
:1041B000006810F400400590059800200590DFF895
:1041C0009006016851F004010160016811F00401DA
:1041D0000591059900210591016851F004010160E4
:1041E000016811F00401059105990021059101680C
:1041F00051F004010160016811F004010591059975
:1042000000210591016851F008010160006810F07B
:104210000800059005984FF48060009002200190FE
:1042200006200490DFF82C4669462000FFF7FAFDCF
:104230004FF40065009502200190012002900620B5
:10424000049069462000FFF7EDFD4FF48050009088
:10425000022001900620049069462000FFF7E2FD4D
:10426000DFF8F44501224FF400612000FFF7C5FE9E
:104270000095012001900320039069462000FFF77C
:10428000D1FD07B030BD01B54FF4FA630122694694
:10429000DFF8B00503F007FE01BD80B54FF4FA6307
:1042A00001226946DFF89C0503F0D2FE9DF800006C
:1042B00002BD1CB5ADF80000DFF89C4500224FF4AC
:1042C00000612000FFF799FE0B20FFF7DCFF9DF84F
:1042D0000100FFF7D8FF9DF80000FFF7D4FF012091
:1042E000FFF7D1FFFFF7D9FF8DF80400FFF7D5FFE7
:1042F0008DF80500FFF7D1FF8DF80600FFF7CDFF21
:104300008DF8070001224FF400612000FFF775FED1
:10431000019816BD80B5ADF800009DF80100FFF7CB
:10432000B2FF9DF80000FFF7AEFF01BD80B5FFF7BB
:10433000B4FF8DF80000FFF7B0FF8DF80100FFF724
:10434000ACFF8DF80200FFF7A8FF8DF8030000987E
:1043500002BD80B500909DF80000FFF794FF9DF826
:104360000100FFF790FF9DF80200FFF78CFF9DF81A
:104370000300FFF788FF01BD1CB5ADF800000191F7
:10438000DFF8D44400224FF400612000FFF735FE2F
:104390000220FFF778FF9DF80100FFF774FF9DF8FA
:1043A0000000FFF770FF9DF80400FFF76CFF9DF819
:1043B0000500FFF768FF9DF80600FFF764FF9DF812
:1043C0000700FFF760FF01224FF400612000FFF7B4
:1043D00014FE13BD3EB504001500DFF8800400682C
:1043E00000900020ADF804109DF804008DF8000046
:1043F0009DF805008DF801008DF80250C0208DF861
:10440000030000994FF44170FFF7B6FF4FF441707D
:10441000FFF74FFF00909DF803000006F6D44FF41D
:104420004070FFF746FF0090002007E06946020059
:10443000D2B2895C0200D2B2A154401C01002A0011
:10444000C9B2D2B29142F1D337BD7CB50D00140090
:10445000DFF80C14096800910021002107E00A0030
:10446000D2B2825C6B460E00F6B29A55491C0A0025
:104470002300D2B2DBB29A42F1D300994FF44070DC
:10448000FFF77AFFADF804509DF804008DF80000A6
:104490009DF805008DF801008DF8024080208DF810
:1044A000030000994FF44170FFF766FF4FF441702D
:1044B000FFF7FFFE00909DF803000006F6D473BDE1
:1044C0002DE9FC47050088461600DFF898030068D0
:1044D000009000275FF08040009000994FF44370F7
:1044E000FFF74AFF4FF44370FFF7E3FE00909DF89B
:1044F00003000006F6D4ADF80080ADF80260009924
:104500004FF44270FFF738FF5FF0004000900099D1
:104510004FF44370FFF730FF4FF44370FFF7C9FECD
:1045200000909DF80000C007F6D59DF8014014F0FA
:104530001F040420FFF7BDFE0090641E18F003085E
:104540004046310089B20200D2B2D2F10402914257
:1045500001DAB04601E0D0F104084246D2B2694621
:10456000C0B201443800C0B205EB0009484600F073
:1045700071FC4046C0B2361A18EB0707DFF8D88244
:1045800000224FF400614046FFF737FD0B20FFF794
:104590007AFE0420FFF7BEFE0120FFF774FE1BE049
:1045A000B14608E0FFF7C2FE0090300080B2052857
:1045B000F6DB5FF004094A46D2B269463800C0B261
:1045C00005EB000A504600F045FC19EB07075FFABF
:1045D00089F9B6EB0906641E300080B20028E1D1EB
:1045E00001224FF400614046FFF707FDBDE8F38765
:1045F0002DE9FC4704000D0016009B480068009060
:1046000000275FF08040009000994FF44570FFF75D
:10461000B3FE4FF44570FFF74CFE00909DF8030089
:104620000006F6D4ADF80050ADF8026000994FF4E2
:104630004470FFF7A1FE5FF00040009000994FF436
:104640004570FFF799FE4FF44570FFF732FE00907A
:104650009DF80000C007F6D59DF8019019F01F09DC
:1046600015F00305300080B22900C9B2D1F1040170
:10467000884201DAB04601E0D5F10408002000903C
:104680004246D2B23800C0B204EB00016846EDB237
:104690000544280000F0DEFB00992020FFF76CFEA7
:1046A000B9F101054046C0B2361A18EB0707DFF82A
:1046B000A88100224FF400614046FFF79EFC0220D3
:1046C000FFF7E1FD2020FFF725FE1DE0B14605E0E4
:1046D000300080B20528F9DB5FF00409002000906B
:1046E0004A46D2B23800C0B204EB0001EA46504656
:1046F00000F0B0FB0098FFF72CFE19EB07075FFAFC
:1047000089F9B6EB09066D1E300080B20028DFD1B2
:1047100001224FF400614046FFF76FFCBDE8F387CC
:1047200080B50B009BB2B3F5805F04DB92B289B217
:10473000FFF7C6FE03E0D2B289B2FFF74BFE01BD20
:1047400080B50B009BB2B3F5805F04DB92B289B2F7
:10475000FFF74EFF03E0D2B289B2FFF776FE01BD4C
:104760001CB5ADF800003C4C00224FF40061200065
:10477000FFF743FC0B20FFF786FD9DF80100FFF7D4
:1047800082FD9DF80000FFF77EFD0120FFF77BFD15
:10479000FFF783FD8DF80400FFF77FFD8DF805001E
:1047A000FFF77BFD8DF80600FFF777FD8DF807001A
:1047B00001224FF400612000FFF71FFC019816BD95
:1047C000E0B5684600210022002380E80E000222A6
:1047D00040F602616846FFF7FDFD9DF800009DF878
:1047E000011050EA01209DF8021050EA01409DF8A6
:1047F000031050EA01600EBD38B500206420FFF7B9
:10480000AFFF6420FFF7ACFF04002100174800F061
:1048100097F81748844203D0164800F091F8FEE755
:10482000FFF7CEFF040049F25225AC4201D11248F5
:1048300000E01248210000F083F8AC4200D0FEE70F
:1048400031BD0000D00D0020003C00404038024047
:104850003038024000080240000C0240D8C1000875
:10486000DCC10008E0C10008E4C1000884C0000801
:104870002143658720C10008B4BF000848BD000877
:1048800010B586B000682949884220D100200090E8
:104890002748016851F400310160006810F40030CD
:1048A00000900098202001900220029001200390A7
:1048B00003200490072005901E4C01A92000FFF75B
:1048C000B1FA4020019001A92000FFF7ABFA06B031
:1048D00010BD80B5002000901748016851F0080114
:1048E0000160006810F008000090009813480F491C
:1048F00001605FF4E1314160002181600021C1600D
:10490000002101610C214161002181610021C1610F
:1049100003F04AFE01BD01B54FF6FF73012269465F
:10492000064803F07CFE009802BD000000440040F1
:1049300040380240000C024030380240C00E0020D7
:104940000EB4C0B5024603A800210190009101AB4E
:104950000121044878440C3004F086F806BC5DF868
:1049600010FB00BFC574000038B5040004F076FFEA
:10497000050014F1010F02D004480078241804F057
:104980006DFF401BA042FAD331BD00BF7408002068
:1049900080B586B0002000902F48016851F00801D2
:1049A0000160006810F0080000900098102001904D
:1049B0005FF4041002900120039001A92748FFF73B
:1049C00031FA002200210A2002F08BFE07B000BD60
:1049D00080B586B0002000901F48016851F010019A
:1049E0000160006810F01000009000984FF48040C3
:1049F00001905FF4041002900120039001A918486F
:104A0000FFF710FA01220121282002F06AFE07B008
:104A100000BD80B586B0002000900F48016851F0BD
:104A200010010160006810F01000009000984FF431
:104A3000005001905FF4041002900120039001A93E
:104A40000748FFF7EFF901220121282002F049FE73
:104A500007B000BD0000000030380240000C0240EA
:104A60000010024010B586B01E4C5FF080412160FE
:104A7000292161600021A160C0B2C8214843E060E3
:104A8000002020618020A061200004F0EDFE4FF4A2
:104A90008050029002A9200004F076FF00200090D0
:104AA000002001906946200005F092F8200004F0F3
:104AB00012FF06B010BD80B50068B0F1804F10D174
:104AC000002000900848016851F001010160006871
:104AD00010F0010000900098012200211C2002F03B
:104AE00000FE01BD780E002040380240A348006857
:104AF000704780B5A248202101800021418000211B
:104B000041600021816044F21F0181814CF25031EB
:104B1000016100224261002282830022026200229F
:104B200080F84020974A2023138000235380436855
:104B3000536000239360808990811161002050614F
:104B40000020908300201062002082F840000020A6
:104B50008D49087000F0A5F880B2002801D000F05F
:104B60007CF80020894908700020894908700020DD
:104B7000884908800020884908700020874908601B
:104B80000020874908600020864908600020864987
:104B9000086001BD00283DD0784A1168002908D17D
:104BA0001060002011684860002011680860002033
:104BB00031E0018913681B89994208D20021016004
:104BC00011684160116808601060002023E01268DD
:104BD00007E00189138999420BD35168002913D04A
:104BE0005268002A16D0118903899942F1D1012017
:104BF00011E01168016042601168002901D011685C
:104C000048601060002006E05060026000214160B2
:104C1000002000E00120704710B4584B196800E0F4
:104C20004968002917D00A890400A4B2A242F7D12A
:104C30000A684868002A00D05060002800D002604E
:104C400000220A6000224A6009891A68128991428A
:104C500000D11860FFE710BC704738B5474D2C688D
:104C6000002004E02089646880B2FFF7D5FF002CA3
:104C7000F8D10020286031BD10B50400002000E00C
:104C8000283421894FF6FF72914208D02000FFF7A7
:104C900081FF010089B20029F2D080B200E080B229
:104CA00010BD80B500200020344908603F48FFF760
:104CB000E3FF010089B2002901D080B206E03C493F
:104CC000002902D00800FFF7D7FF80B202BD2DE90E
:104CD000F84F0020334C206800284CD02E4D2F4E2A
:104CE0002F4FDFF8AC8098F8000000903B683268E6
:104CF000297828480088D4F800C0E0478146484613
:104D0000C0B2FF2837D0DFF884A09AF8000001284D
:104D100013D01FD3032817D002D3042814D019E0CE
:104D2000DFF884B0DBF80000002806D0DBF80000D4
:104D300001F054FB0020CBF800000022002148467F
:104D4000C0B202F03BFA05E03A6831684846C0B2AA
:104D500002F034FA00208AF8000000200D49088093
:104D6000002028700020306000203860002088F883
:104D7000000000202060BDE8F18F0000AC10002092
:104D80008C0F0020D00F002056110020571100205A
:104D9000581100203411002059110020C8100020A3
:104DA000CC100020D0100020D4100020E8030020F8
:104DB000A005002062F30F2262F31F42401810F09A
:104DC000030308D0C91A1FD3DB0748BF00F8012D21
:104DD00028BF20F8022D130030B4144615461039B0
:104DE00028BF20E93C00FAD8490728BF20E90C0079
:104DF00048BF40F8042D890028BF20F8022D48BF85
:104E000000F8012D30BC7047C91818BF00F8012DFB
:104E1000CB0728BF00F8012D704730B4002513E000
:104E200050F8042BD30744BFA9F101039A18091FB6
:104E3000042942F8045BFAD213468C0744BF15805C
:104E40009B1CC90748BF1D7050F8041B0029E7D1FF
:104E500030BC704762B38B0708D0521E11F8013B7B
:104E600000F8013B00F024808B07F6D1830740F067
:104E7000208000BF103A07D330B4B1E83810103AA0
:104E8000A0E83810F9D230BC530724BFB1E80810AD
:104E9000A0E8081044BF51F8043B40F8043BD20797
:104EA00024BF31F8022B20F8022B44BF0B7803708B
:104EB0007047121F17D35B0009D151F8043B20F84B
:104EC000023B1B0C121F20F8023BF6D20BE051F8FC
:104ED000043B00F8013B1B0A20F8023B1B0C121F8D
:104EE00000F8013BF3D238BF121D521E24BF11F847
:104EF000013B00F8013BF8D87047000000F5E07076
:104F00000268914203D343681A44914202D38068F5
:104F10000028F5D17047DFF86C17086890B94FF496
:104F2000805048604FF480324FF0FF30C860086115
:104F30000420DFF854378A604861C3F8BC01DFF809
:104F40004C0708600120704701F1080313F0070FB8
:104F50000EBF0023C3F1080303F007031944D21A5C
:104F60008161C26042F001034B60091D4FF0280CC3
:104F700041F802C0DFF80C271369C36170472DE9BF
:104F8000FC4B074601F1080010F0070F0FBF8946E0
:104F9000C0F1080000F0070001EB000902F1080170
:104FA00011F0070F06D002F10800C0F1080000F070
:104FB000070002441546A5EB090009EB0306A0EB28
:104FC000030B43F00303C9F80430AE4228BF04F0DA
:104FD00053FE2879C10758BF04F04EFEBBF1100FF5
:104FE00038BF04F049FEB869854208D1F9688B449E
:104FF000C7F80CB0BE614BF00100706051E17869F8
:1050000085420AD1B9688B44C7F808B07E614BF07D
:105010000100706046F80BB043E1686800F00301DE
:10502000012940F0AC80C008C0000190C0081F28D2
:1050300039D8AC68D5F80C800090454508BF04F01D
:105040001BFEA54208BF04F017FE68680099C0085F
:10505000C000B0EBC10F18BF04F00EFE009907F1BD
:10506000280000EBC100844206D039698C42C0F0B0
:105070008180E268AA427DD1A04506D100983968B6
:10508000012383409943396076E0804506D0396931
:1050900088456FD3D8F80800A8426BD1C4F80C80BB
:1050A000C8F8084068E0EC68D5F81880AC420CD02D
:1050B000A8683969884223D3C268AA4204BFA1689C
:1050C000A9421DD1C460A0601CE005F114010C6868
:1050D00034B905F110010C68A4B101E011460C6867
:1050E00004F114021068002802BF04F110021068D5
:1050F0000028F3D13869814202D300220A6001E01E
:1051000004F0BAFDB8F1000F36D0E96907F59870E0
:1051100000EB81000268954208D10460A4B9E869F7
:105120007968012282409143796025E038698045A1
:1051300008D3D8F81010A94214BFC8F81440C8F812
:10514000104001E004F098FDB4B139698C4211D3EC
:10515000C4F81880286928B1884226BF206184617C
:1051600004F08AFD686938B13969884202D3606108
:10517000846101E004F080FD01996D188B44696839
:105180004908490069604BF0010070604FEADB0498
:1051900046F80BB01F2C23D807F1280000EBC408F9
:1051A0004546BBF1100F38BF04F066FD386820FAA1
:1051B00004F1CA0705D4012101FA04F404433C6058
:1051C00007E0D8F80800396988422CBF054604F08A
:1051D00053FDC8F80860EE60B560C6F80C8060E06A
:1051E0005FEA1B2008BF002123D0B0F5803F28BF15
:1051F0001F211ED2A0F58072120C02F0080290400E
:10520000A0F58051090C01F004018840A0F580430D
:105210001B0CC2F10E0203F00203521AD21A98407C
:1052200002EBD032D01D2BFA00F101F0010101EBAD
:105230004201F161002307F59872736102EB81006E
:1052400033617A6822FA01F3DC0707D4012303FAF9
:1052500001F1114379600660B0611DE002681F2909
:105260001DBF4908C1F119010BFA01F1594600E0CF
:1052700002465068C008C000584516D002F110031D
:10528000C80F03EB8003490018680028F0D1386983
:10529000834204D31E60B261F660B66001E004F0A0
:1052A000EBFC09F10800BDE8F68B396990688A4289
:1052B00028BF8842F3D3C6609660B060F2600020D9
:1052C000B061EEE72DE9FE4F04468B46A5692E46F8
:1052D000904699463146FFF711FE0268416802EB9D
:1052E000010AAAF1270111F007000EBF0021C1F148
:1052F000080101F007010AEB0100A0F12F0706F1F8
:1053000010018F4238BF374607F118020021019281
:105310000091A8F1280259462046FFF715FE07F133
:10532000080010F0070F18BF04F0A6FC1B207860DF
:1053300007F1080104F5E07090E80C5081E80C508A
:10534000C0F800B0C0F80480C0F80C90816007225B
:105350000198009900E0001D491C00F10803534525
:105360004260F8D30129D8BF04F086FCB74200F0B0
:105370009580BF1B301D321DC15949084900D151CC
:1053800047F0010070604FEAD70BF751BBF11F0FD8
:1053900021D804EBCB0000F12805A846102F38BF18
:1053A00004F06AFC206820FA0BF1CA0705D4012139
:1053B00001FA0BF10843206006E0A86821698842E1
:1053C0002CBF804604F058FCAE60C8F80C60C6F8EC
:1053D0000880F5606FE0380A08BF002123D0B0F5DF
:1053E000803F28BF1F211ED2A0F58072120C02F050
:1053F00008029040A0F58051090C01F0040188409A
:10540000A0F580431B0CC2F10E0203F00203521AF6
:10541000D21A984002EBD032D01D27FA00F101F0E9
:10542000010101EB420104EB8102002302F59870B7
:10543000F16173613361626822FA01F3DB0707D41B
:10544000012303FA01F1114361600660B0611DE0C0
:1054500002681F291DBF4908C1F1190107FA01F1AE
:10546000394600E002465068C008C000B84216D075
:1054700002F11003C80F03EB8003490018680028ED
:10548000F0D12069834204D31E60B261F660B5603A
:1054900011E003B0BDE8F04F04F0EEBB0BE0216972
:1054A00090688A4228BF8842F3D3C6609560B06096
:1054B000F2600020B06103B0BDE8F08F2DE9F0414B
:1054C000704F05463868884608B9FFF724FDB9686B
:1054D00001EB08002F30491E20EA010188457DD2EA
:1054E00005F5D876B06828B1326889188A4275D235
:1054F000884273D304F0C4FB01001CBF0C6811F197
:10550000010F6BD03068201805F5D87230605368F1
:10551000984238BF18467060A86960BB286908B116
:10552000814200D22961316174610020F0614FF045
:10553000FF303A686A62286205F128020020D260D2
:10554000926002F1080757611761801C1032202811
:10555000F5D34D48854208BFA4F1280228D055F85C
:10556000040CC00805EBC002A2F108000A19121AC7
:10557000283A01461CE005F5E070024600E092681A
:105580007AB3136857681F44B942F8D1137B1F07D9
:1055900027D4AB691768BB4223D3D2F804C0674451
:1055A000BB421ED2A444C2F804C0E868A96922180C
:1055B0002846FFF7C9FC1FE08068C0B1036893422A
:1055C000FAD1027B130712D4026801604368E41821
:1055D000446043462846BDE8F041D0E40020BDE8E1
:1055E000F0812A69914238BF29610A19E5E7002351
:1055F00022462846FFF766FEE8688045EED2A0EB1B
:105600000800A969E86001EB0802AA6140F0010006
:10561000506048F00300486001F10800BDE8F081E7
:1056200030B4184B1A6882B94FF480525A604FF464
:1056300080344FF0FF32DA601A610422124D9C6010
:105640005A61C5F8BC21114A1A6011F1400F17D2F6
:105650008269AAB1C368283199420BD200F5E07182
:105660000C68A24203D34D682C44A24202D389683D
:105670000029F5D1C16999423CBF4FF0FF32C261A8
:1056800000F0A8BE7C100020780A00206859883CF1
:105690002DE9F84F00258946090AC9F1000B08BF1A
:1056A000002323D0B1F5803F28BF1F231ED2A1F5D0
:1056B0008072120C02F008029140A1F580531B0C7D
:1056C00003F004039940A1F58044240CC2F10E02BA
:1056D00004F00204D21A121BA14002EBD132D11DF8
:1056E00029FA01F303F0010303EB4203074607F530
:1056F000987858F8230030B31F2B0FBF4C465C0836
:10570000C4F1190409FA04F4AC46594600E06400F7
:105710004268D208D200A2EB09028A4203D21100E9
:10572000054600F06981426910304FEAD47B50F899
:105730002B00002A1CBF824294460028E7D18B46EA
:105740006046B0BBBDBB012202FA03F35B005842C6
:10575000796803430B4000F04E81584203405B1EC2
:10576000180B00F01000C340590901F00801CB40AC
:105770009A0802F00402D3405C0804F002040818FE
:10578000E3401018C3F3400620183044F3401B18C0
:1057900058F823000DE008464168C908C900A1EB8C
:1057A000090159453CBF8B46054601690029F2D1E4
:1057B00040690028F0D1002D00F01D81B868A0EBF1
:1057C0000900834580F0178139698D42C0F011814D
:1057D0006868C008C00009EB0B01884218BF04F0DC
:1057E0004BFA05EB0906B54280F00381EC68D5F869
:1057F00018A0AC420CD0A8683969884223D3C2688B
:10580000AA4204BFA168A9421DD1C460A0601CE0E7
:1058100005F114010C6834B905F110010C68A4B14C
:1058200001E011460C6804F114021068002802BF60
:1058300004F1100210680028F3D13869814202D3C4
:1058400000220A6001E004F017FABAF1000F36D026
:10585000E86908EB800001688D4209D104602000EE
:1058600014D1E8697968012282409143796026E089
:105870003869824508D3DAF81010A94214BFCAF873
:105880001440CAF8104001E004F0F6F9BCB13869E0
:10589000844212D3C4F818A0286930B1396988420B
:1058A00026BF2061846104F0E7F9686938B139697D
:1058B000884202D36061846101E004F0DDF9BBF14C
:1058C000100F0CD2D94449F00300291D6860281D2F
:1058D00051F8092042F0010240F8092088E049F01F
:1058E000030068604BF0010070604FEADB0046F88F
:1058F0000BB01F281DD807EBC00101F1280439683F
:1059000021FA00F2D307A34605D4012202FA00F0DF
:105910000843386006E0A068396988422CBF834696
:1059200004F0AAF9A660CBF80C60C6F808B0F460E1
:105930005EE05FEA1B2008BF002123D0B0F5803F66
:1059400028BF1F211ED2A0F58072120C02F008029F
:105950009040A0F58051090C01F004018840A0F5A9
:1059600080431B0CC2F10E0203F00203521AD21A3A
:10597000984002EBD032D01D2BFA00F101F001016A
:1059800001EB4201F16100227261326108EB81009A
:105990007A6822FA01F4E30707D4012404FA01F13A
:1059A000114379600660B0611DE002681F291DBFC8
:1059B0004908C1F119010BFA01F1594600E002460C
:1059C0005068C008C000584518D002F11003C80F35
:1059D00003EB8003490018680028F0D1386983423E
:1059E00004D31E60B261F660B66001E004F044F9D1
:1059F00014E104F041F90EE18B46A2E639699068A2
:105A00008A4228BF8842F1D3C6609660B060F260D7
:105A10000020B061ECE72DE9F84F06468846716832
:105A200048420140491E080B00F01000C1404A09DD
:105A300002F00802D1408B0803F00403D9404D085E
:105A400005F002051018E9401818C1F340042818A1
:105A500006F5987A2044E14009185AF82110486860
:105A6000C008C0000D46A0EB080909E001464868DF
:105A7000C008C000A0EB080048453CBF81460D4669
:105A800008690028F2D149690029F0D130698542BE
:105A9000C0F0BF806968C90808EB090BC900594507
:105AA00018BF04F0E9F805EB08008542009080F08B
:105AB000B080EF68AC69AF420CD0A8683169884209
:105AC00023D3C268AA4204BFB968A9421DD1C760E6
:105AD000B8601CE005F114010F6837B905F1100139
