:020000040800F2
:10000000584B002071020008494F0008294400089D
:10001000454F00082D150008657900080000000014
:10002000000000000000000000000000556800080B
:100030000F1F000800000000055E0008C9760008D8
:100040008B0200088B0200088B0200088B0200085C
:100050008B0200088B020008B5240008CD2400089C
:100060008B0200088B0200088B0200088B0200083C
:100070008B0200088B0200088B0200088B0200082C
:100080008B0200088B0200088B0200088B0200081C
:100090008B0200088B0200088B020008E524000890
:1000A0008B0200088B0200088B0200088B020008FC
:1000B000997700088B0200088B0200088B02000869
:1000C0008B0200088B0200088B0200088B020008DC
:1000D0008B0200088B0200088B0200088B020008CC
:1000E0008B0200088B0200088B0200088B020008BC
:1000F0008B0200088B0200088B0200088B020008AC
:100100008B0200088B0200088B0200088B0200089B
:100110008B0200088B0200088B0200088B0200088B
:10012000F51D00088B0200088B0200088B020008F6
:100130008B02000800000000000000008B02000895
:100140008B0200088B0200088B0200088B0200085B
:100150008B0200088B0200088B0200088B0200084B
:100160008B0200088B0200088B0200088B0200083B
:100170008B0200088B020008000000000000000055
:100180008B0200088B02000800F002F800F060F813
:100190000AA090E8000C82448344AAF10107DA45E2
:1001A00001D100F055F8AFF2090EBAE80F0013F0D4
:1001B000010F18BFFB1A43F001031847B08100007C
:1001C000D08100000A444FF0000C10F8013B13F0FE
:1001D000070408BF10F8014B1D1108BF10F8015BA0
:1001E000641E05D010F8016B641E01F8016BF9D193
:1001F00013F0080F1EBF10F8014BAD1C0C1B09D1EA
:100200006D1E58BF01F801CBFAD505E014F8016B5B
:1002100001F8016B6D1EF9D59142D6D370470000ED
:100220000023002400250026103A28BF78C1FBD8FF
:10023000520728BF30C148BF0B6070471FB507F099
:10024000C4FB9DE8030000F0CDF91FBD10B510BD43
:1002500000F056FA1146FFF7F1FF07F0A4FB00F09B
:1002600074FA03B4FFF7F2FF03BC00F0A5FA000034
:100270000948804709480047FEE7FEE7FEE7FEE73A
:10028000FEE7FEE7FEE7FEE7FEE7FEE70448054976
:10029000054A064B70470000857700088901000871
:1002A000580B0020584B0020582B0020582B0020C2
:1002B00070B5064600F07AF9056806F10B0020F0EB
:1002C0000704B4429CBF002070BD2B466A68BAB1D7
:1002D0001068A04210D304F1080188423CBF506866
:1002E000586007D35168101941601168091B0160FB
:1002F00058601460101D70BD13465268002AE7D183
:100300002146284600F05AF90028DED170BD70B5AC
:100310000446051F00F04AF90068002C14BF446829
:1003200070BD002C18BFAC423CBF20466468F8D3B7
:1003300001680A18AA4218BF456003D12A68054619
:100340001144016028684119A1421CBF6C6070BD56
:100350006168696021680844286070BD53EA020C36
:1003600000F069802DE9F04B4FF00006002B1FBF15
:10037000B3FA83F503FA05F424FA05F65E4012BFDA
:100380001643B2FA82F502FA05F4C5F120051EBF44
:1003900022FA05FC44EA0C04203556EA044C4FEAE4
:1003A000144418BF641C4FF000084FF0000990423D
:1003B00071EB030C39D3002919BFB1FA81F701FAA7
:1003C00007F6B0FA80F700FA07F6C7F120071EBF5C
:1003D00020FA07FC46EA0C062037B6FBF4FCA7EB34
:1003E0000507103F07F01F0BCBF120060CFA0BFBA3
:1003F0002CFA06F644BFB3460026202FA4BF5E4663
:100400004FF0000B5BEA060C08BF4FF0010B19EB35
:100410000B09ABFB027C48EB0608C01B06FB02CCB9
:100420000BFB03CC71EB0C01C1E70B4602464146C6
:100430004846BDE8F08B13B54FF000004FF00001C7
:10044000AFF30080BDE81C40704710B5431C02E0CC
:1004500010F8011B71B18107FAD14FF0013202C8C7
:100460008C1A8C4314EAC211F9D0C01A0A0603D0C0
:10047000C01E10BDC01A10BD0A0401D0801E10BDE0
:100480000902FCD0401E10BD032A40F2308010F05B
:10049000030C00F0158011F8013BBCF1020F62441F
:1004A00098BF11F801CB00F8013B38BF11F8013BB0
:1004B000A2F1040298BF00F801CB38BF00F8013B5D
:1004C00011F0030300F0C480083AC0F0088051F82E
:1004D000043B083A51F804CBA0E80810F5E7121DD8
:1004E0005CBF51F8043B40F8043BAFF30080D207F7
:1004F00024BF11F8013B11F801CB48BF11F8012BC3
:1005000024BF00F8013B00F801CB48BF00F8012BE5
:1005100070474FF000020429C0F0128010F0030C65
:1005200000F01B80CCF1040CBCF1020F18BF00F8E6
:10053000012BA8BF20F8022BA1EB0C0100F00DB895
:100540005FEAC17C24BF00F8012B00F8012B48BFF3
:1005500000F8012B70474FF0000200B51346944697
:100560009646203922BFA0E80C50A0E80C50B1F10B
:100570002001BFF4F7AF090728BFA0E80C5048BF1F
:100580000CC05DF804EB890028BF40F8042B08BFBD
:10059000704748BF20F8022B11F0804F18BF00F8B9
:1005A000012B704770477047704700000048704744
:1005B000000B0020704770477047704738B50446FD
:1005C0000A4600206946AFF30080002808BF38BD06
:1005D00002460099204600F071F8012038BD012044
:1005E00000F086B8F8B5AFF30080054600200C4651
:1005F000102000BF0646A819A0420DD93246694610
:100600000020AFF30080070008BF00F071F80098E9
:10061000A04218BF0546C419FFF7C8FF056007468A
:10062000F01D20F007004619284600F00AF8B442F1
:1006300008BFF8BDA21B31463868BDE8F84000F09D
:100640003DB800210160C0E90110704710207047DB
:1006500010B5203AC0F00B80B1E81850203AA0E85D
:100660001850B1E81850A0E81850BFF4F5AF5FEA91
:10067000027C24BFB1E81850A0E8185044BF18C944
:1006800018C0BDE810405FEA827C24BF51F8043BEB
:1006900040F8043B08BF7047D20728BF31F8023B3F
:1006A00048BF11F8012B28BF20F8023B48BF00F8D3
:1006B000012B704700487047F80A00200346406845
:1006C0008C46002818BF88423CBF03464068F8D3D8
:1006D00018681844884207D00CF1030020F0070086
:1006E000001D411A521A0146081D0A60FFF70FBE8D
:1006F00010B500F039F8BDE8104000F02FB8704791
:100700007546FFF7D7FFAE4605006946534620F011
:100710000700854618B020B5FFF7B8FDBDE82040BA
:100720004FF000064FF000074FF000084FF0000BAD
:1007300021F00701AC46ACE8C009ACE8C009ACE860
:10074000C009ACE8C0098D46704710B50446AFF348
:1007500000802046BDE81040FFF783BD002801D08F
:1007600000F02AB87047000010B5012805D000211C
:1007700003A000F027F8012010BD09A1F8E7000050
:1007800053494752544D454D3A204F7574206F667A
:100790002068656170206D656D6F727900000000E2
:1007A0003A2048656170206D656D6F727920636FC6
:1007B000727275707465640001491820ABBEFEE763
:1007C0002600020070B505460C460A2000E06D1CAC
:1007D00000F011F835B128780028F8D102E0641C47
:1007E00000F009F814B120780028F8D1BDE8704075
:1007F0000A20AFF3008008B569468DF80000032099
:10080000ABBE08BD70B50546AC6B206C00F0500067
:1008100050BB206C40F4007020642068806800F0B9
:100820004050E8B9207ED8B92068C06A00F4700052
:1008300020B12068806800F4806088B92068406832
:1008400020F0200021684860206C20F48070206433
:10085000206C00F4805018B9206C40F00100206436
:10086000204601F073FF0BE0206C00F0100018B17F
:10087000204601F06DFF03E0A06BC16C284688475D
:1008800070BD70B50546AC6B40202064606C40F0D4
:1008900004006064204601F05BFF70BD70B5044643
:1008A000A56B284601F053FF70BD000055494A680A
:1008B00022F440324A604A6843681A434A60026838
:1008C000526822F4807203685A60026853680269B1
:1008D00043EA022203685A600268526822F04072BA
:1008E00003685A600268526883681A4303685A6052
:1008F0000268926822F4006203689A600268926853
:10090000C3681A4303689A603F4B826A9A4218D0C0
:100910000268926822F0706203689A6002689268C6
:10092000836A1A4303689A600268926822F0405210
:1009300003689A6002689268C36A1A4303689A60FF
:100940000BE00268926822F0706203689A600268A5
:10095000926822F0405203689A600268926822F01E
:10096000020203689A6002689368027E43EA4202C8
:1009700003689A602022125CA2B10268526842F4B5
:10098000006203685A600268526822F46042036899
:100990005A6002685368426A521E43EA4232036850
:1009A0005A6005E00268526822F4006203685A60E7
:1009B0000268D26A22F470020368DA620268D36ABB
:1009C000828B521E43EA02520368DA62026892681E
:1009D00022F4007203689A600268936890F83020ED
:1009E00043EA422203689A600268926822F48062B5
:1009F00003689A6002689368426943EA8222036846
:100A00009A607047002301400100000F2DE9F0417A
:100A100005460F460024A046601EFD4908800120BF
:100A2000FC49087005F0100040B14FF00108FA4889
:100A3000007820F01000F849087010E0F6480078BF
:100A400000F0100028B105F00F00012801D0BDE82A
:100A5000F081F148007800F00F00EF49087005F0D0
:100A60000F05ED4806783007060E7019C6B2442E01
:100A700024D008DC122E0FD0222E10D0242E13D01A
:100A8000422E22D10AE0482E16D0822E05D0842E86
:100A900013D0882E19D112E000BF00BF00BF022082
:100AA00000F034FF044610E0DC49DD4800F0BCFBF8
:100AB000044604B109E000BF00BF00BF00BFD94831
:100AC000007800F023FF044600BF00BF002C7DD15A
:100AD0000020D54908803046342E78D01EDC2228EC
:100AE00076D00EDC142874D006DC112872D01228BF
:100AF00033D013286FD12AE018286DD02128F9D1DE
:100B0000C3E0282869D004DC232867D02428F1D149
:100B100043E031281DD03228ECD1E8E0482864D0E9
:100B20000CDC42287AD004DC382878D04128E1D186
:100B30009FE0432874D04428DCD1B2E081380828F3
:100B400049D2DFE800F08A76D36ED8D8D8AF132424
:100B5000D3E0132400F0E4FCCFE006F0E1FEB3485C
:100B6000007800B95124BCB903F018FF04464CB911
:100B70000020A849087000F022FC044614B90120A6
:100B8000AB49087044B1FF2C06D0A248007808B9E0
:100B900000F01BFC03F062FFAFE006F04BF90446E7
:100BA00074B900209B490870A24800F005FC044677
:100BB00034B9A048008806F0DFF801209E4908708B
:100BC00094B1FF2C10D09348007808E096E08FE0B5
:100BD00066E086E061E08EE084E084E084E008B9CD
:100BE00000F0F1FB06F048FC87E006F029FC044623
:100BF0004CB900208749087000F0E3FB044614B9A3
:100C000001208E49087044B1FF2C06D0814800783D
:100C100008B900F0DDFB06F097FC6EE015E068E037
:100C200063E000F0D5FB06F08FFC002079490870E6
:100C300063E000F0CDFB044606F086FC0020754919
:100C4000087004B159E0422600BF00F0BCFB06F07A
:100C500013FC00206F4908704FE000F0B9FB044618
:100C600006F072FC00206B49087004B145E0412693
:100C700000BF00F0A8FB044606F0FEFB002065491B
:100C8000087004B139E0212600BF03F0E7FE00F050
:100C90009CFB044600F044FC2FE000F041FC00BF48
:100CA00000BF00BFB8F1000F02D0304600F0E6F9F7
:100CB0006348007898B95848007800F00C0070B18B
:100CC00056480088002803DD022001F019FC06E0E8
:100CD00053480088002802DD032001F011FCFE24A7
:100CE0000BE000BF00BF00BF00BF00BF00BF00BFE0
:100CF00000BF112401E0122400BF1EE04648007826
:100D000002280DD0042806D0082816D100F060FB78
:100D100006F01AFC00BF00F056FB06F0ADFB00BF6A
:100D2000162C07D103F09AFE00F04FFB01203A4940
:100D3000087002E0022038490870FF2C26D10120FB
:100D400040490870384806800088122806D01328C9
:100D500005D0242808D048280CD106E000BF4FF465
:100D6000FA602B49088009E000BF42F22830284988
:100D7000088003E0C8202649088000BF00BF24483F
:100D80000088323800B22249088065E022480078A5
:100D900000F00F00A84257D004B9DFB11E48007818
:100DA000284300F00800A8B12448007818B100F0EA
:100DB0000FFB06F0C9FB19480088002803DD02205C
:100DC00001F0A6F806E016480088002802DD03209E
:100DD00001F09EF86CB110480078082802D1042078
:100DE0000D4908700C48007840F010000A4908705E
:100DF00005E017B13C4645F0100507480570002096
:100E00001049087021460448007805F0CFFF23E020
:100E1000A6040020C6040020D4040020CE04002034
:100E2000CC040020D0040020C8040020EA040020E4
:100E3000AA050020DC040020A1040020A00400205A
:100E4000C2040020C70400200020044908700021CB
:100E50000348007805F0AAFF00BFF8E5C7040020AA
:100E6000D404002070B57548007800287AD000249A
:100E70000025002672480088002855D17148008856
:100E8000C0F307156F480088122806D0132805D034
:100E9000242812D0482846D11EE000BF6A480078B6
:100EA00008B900F092FA03F0D9FD6848007810B153
:100EB0006748068800E0012635E06348007808B9F5
:100EC00000F081FA06F0D8FA6048007810B1604866
:100ED000068800E0012626E05E48007878B15E488A
:100EE000007808B92D2615E05C48007828B95C48E0
:100EF0000088002801DD1B260CE01A260AE058486D
:100F00000088002801DD1B2604E0082500260120BA
:100F10005449087036B14C48007808B900F058FAC6
:100F200006F012FB00BF7BE046480088122806D07E
:100F3000132805D024281DD0482870D131E000BFE7
:100F400041480078A8B100203F49087000F037FA06
:100F5000044644B90120444908703A48007800F03A
:100F60000F0506E068E0FF2C03D000F02EFA03F036
:100F700075FD54E03448007890B100203249087083
:100F80003A4800F019FA044624B90120384908709B
:100F9000042505E0FF2C03D000F015FA06F06CFAEA
:100FA0003DE02948007818B32A48007808B3314852
:100FB000B0F90000002831DD2E48B0F900002E49BC
:100FC000B1F90010884229DC00202A4908802A490A
:100FD000088000F0F6F9044624B901202149087080
:100FE00008251BE0FF2C19D000F0F2F906F0ACFA4E
:100FF00014E01B48008810B11848007870B100F068
:10100000E0F9044624B9012016490870082505E0D6
:10101000FF2C03D000F0DCF906F096FA00BF00BF09
:101020004DB10020054908700EB145F0100531465C
:10103000284605F0BBFE00BF70BD0000C7040020BD
:10104000A6040020C8040020C6040020C20400201A
:10105000C4040020A4040020A8040020A20400204E
:10106000CE040020A0040020AA050020DC040020FB
:10107000A1040020B0040020B2040020704700004A
:1010800010B56248807800F001024FF4804160485A
:1010900001F0C2FF5D488078C0F340024FF4005178
:1010A0005B4801F0B9FF59488078C0F380024FF4E3
:1010B0008051574801F0B0FF54488078C0F3C00217
:1010C0004FF40061524801F0A7FF50488078C0F308
:1010D000001202214E4801F09FFF4C488078C0F377
:1010E000401201214A4801F097FF48488078C0F338
:1010F00080122021474801F08FFF44488078C0F3D8
:10110000C0121021434801F087FF4FF4805141483D
:1011100001F07AFF4049498860F300013E48418070
:101120004FF400613B4801F06FFF3B49498860F391
:101130004101394841804FF48061364801F064FF35
:101140003549498860F38201334841804FF400718A
:10115000304801F059FF3049498860F3C3012E48F7
:1011600041804FF480712B4801F04EFF2A49498895
:1011700060F30411284841808021264801F044FF93
:101180002549498860F34511234841804021214881
:1011900001F03AFF2049498860F386111E484180DA
:1011A0004FF400411A4801F02FFF1B49498860F3B2
:1011B000C7111948418001221849194801F062FB02
:1011C0001648008800B217498880084640880121E7
:1011D00081EAD0301349498860F3CF31114841800A
:1011E0000D488078C0F3C00040B10E48408820F41C
:1011F000804000F580400B49488005E00948408860
:1012000020F480400749488010BD00007805002088
:1012100000040240000802406E050020000000208B
:1012200028060020720500202DE9F34F81B0814689
:1012300000200090002500248246834600260027D7
:10124000804600BF24E0334931F8150003F0CEFF9B
:101250000446B4B1A069B0F800A000260EE0711CED
:10126000C8B2214603F009FFA16901EBE00B9BF82E
:10127000000040441FFA80F8701C86B25645EEDB31
:1012800004E04FF000082520009006E0681C85B2BD
:101290002048801E0088A842D5DC00BF08F1070066
:1012A0004FEAE008009850BB002522E01A4931F8C7
:1012B000150003F09BFF0446ACB1A069B0F800A094
:1012C00000260DE0711CC8B2214603F0D6FEA169CC
:1012D00001EBE00B9BF80000384487B2701C86B22B
:1012E0005645EFDB03E000272420009006E0681C51
:1012F00085B20948801E0088A842D7DC00BFF81DCF
:10130000C710A9F800700298A0F800800098BDE806
:10131000FE8F0000660500206A05002002460021BD
:10132000104600BF1BE0114B33F81130B3F5D05F0E
:1013300004D0A3F5D053023B73B904E00C4B5B8897
:1013400020F8023B08E00B4B5B8820F8023B094B7E
:101350009B8820F8023B00BF00BF4B1C99B2034B97
:101360009B1E1B888B42DEDC704700006A05002054
:101370006E0500207205002010B5014600200A46C7
:1013800000BF0EE00A4B33F810306FF4B054234422
:1013900023B932F8023B074C638000BF00BF431CF7
:1013A00098B2034B9B1E1B888342EBDC10BD0000F0
:1013B00066050020780500200146002070470020C7
:1013C00070470020704700207047002070470000E1
:1013D00010B53748408820F001003549488008465C
:1013E000408820F0020048800846408820F0040031
:1013F00048800846408820F0080048800846408819
:1014000020F0100048800846408820F040004880C6
:101410000846408820F0200048800846408820F098
:10142000800048800846807800F001024FF4804137
:10143000204801F0F1FD1E488078C0F340024FF4CF
:1014400000511C4801F0E8FD19488078C0F3800283
:101450004FF48051174801F0DFFD15488078C0F344
:10146000C0024FF40061134801F0D6FD10488078A7
:10147000C0F3001202210F4801F0CEFD0C48807825
:10148000C0F3401201210B4801F0C6FD08488078E6
:10149000C0F380122021084801F0BEFD0448807886
:1014A000C0F3C0121021044801F0B6FD002010BDA9
:1014B00078050020000402400008024070B505468F
:1014C00000262C4607E0204600F032F806460EB112
:1014D000304670BD283420894FF6FF718842F2D122
:1014E0003046F6E738B504460D4645EAC40080B2FA
:1014F000009000224FF48071074801F08DFD9DF8A7
:10150000010004F0E7FC054908709DF8000004F0B4
:10151000E1FC0249487038BD00040240A4050020E7
:101520000020014908707047CC05002000BFFEE78D
:101530000146002940D02148006848B91F48016091
:1015400000201E4A126850601C4A126810607047E2
:101550001A48006800890A8990420BDD0020086063
:10156000164800684860154800680160134801602B
:101570000020ECE7114802681BE010890B899842B3
:1015800001D10120E3E710890B89984209DD106839
:1015900008604A60106808B110684160116000205E
:1015A000D5E7506820B951600A6000204860CEE756
:1015B0005268002AE1D100BF0120C8E7BC02002028
:1015C00030B507480468002504E02589646828468A
:1015D00000F00CF9002CF8D100200149086030BD62
:1015E000BC02002010B504460E48006840B100213E
:1015F0000C48006803F022F900200A4908600FE057
:101600004FF48070FEF754FE04460CB9072010BD5D
:101610000E2205492046FEF737FF204604F090FED3
:101620000020F4E79C040020E80A0020014800683C
:1016300070470000BC0200200020024908600249F7
:10164000088070479C0400200406002038B5002460
:1016500025480068002845D0244800780090244898
:1016600003682448026824480178244800881E4DF5
:101670002D68A8470446FF2C34D021480078012863
:1016800011D0022804D0032814D004281AD110E065
:101690001C48006830B11B480068FEF738FE002087
:1016A0001849086000BF00221146204604F0BAFF26
:1016B00008E000BF0E4802680E480168204604F0AA
:1016C000B1FF00BF00BF00200D4908700B49088022
:1016D000094908700749086005490860034908700E
:1016E0000149086038BD0000FC050020ED05002020
:1016F000F8050020F4050020EE050020F00500208C
:10170000EC0500200006002010B500240020074949
:1017100008600748FFF7D2FE04460CB1204610BD12
:101720000448FFF7CBFE04462046F8E7BC02002041
:10173000C00200205000002010B520201F49088062
:10174000002048804860886044F21F0088811C485F
:101750000861002048618883086281F840002020E9
:1017600018490880002048801448406848600020DC
:10177000886012488089888111480861002048618A
:101780008883086281F840000F490870FFF7BCFFAA
:1017900004460CB1FFF714FF00200C4908700C49F7
:1017A00008700C4908800C4908700C4908600C4905
:1017B00008600C4908600C49086010BD600A0020F0
:1017C000A0860100A40A0020CC050020EC05002022
:1017D000ED050020F0050020EE050020F4050020B6
:1017E000F8050020FC0500200006002030B5034667
:1017F0000E49086815E00189994211D102684168D3
:1018000002B1516001B10A6000240460446004899F
:10181000064D2D682D89AC4201D1044C216030BDAC
:1018200040680028E7D100BFF9E70000BC020020B3
:1018300070B504460025E088000B092817D2DFE8C0
:1018400000F01610050F111213140A00204604F0C0
:1018500053FB05460DE0204604F072FD054608E006
:1018600000BF00BF00BF00BF00BF042501E0052589
:1018700000BF00BF284670BD08B51D480088F8B1FC
:101880000020009002224FF48861684602F088FC34
:10189000BDF800000090BDF8000000F0010070B934
:1018A0001448008800280ADD1348007820B11B2165
:1018B0000420FFF7ABF808BD00201049087000BFF6
:1018C0000F48007890B10C48007878B10D48007846
:1018D00020B92C210420FFF799F8ECE70A4800789A
:1018E00020B91A210420FFF791F8E4E700BFE2E7EE
:1018F000D6040020CE040020A0040020A204002072
:10190000A4040020A8040020AE0400202DE9F04724
:101910008046002700250026AC48008842F6FF716B
:1019200088420BDBA9480088884207DBA74800886B
:10193000884203DBA5480088884202DA1420BDE80B
:10194000F087002000F02EFE04466588268805F00A
:101950000100002801DD1720F1E706F00100002852
:1019600001DD1720EBE7A07900F0010008B9162788
:101970001FE0207900F00C00042801D0162718E0A1
:10198000207900F00200022801D0162711E0222D54
:1019900001DA16270DE0B5F5807F01DD162708E096
:1019A000B6F5805F01DA162703E0B6F5405F00DB8D
:1019B00016271FBB012000F0F5FD04466588268828
:1019C00005F00100002801DD1720B8E706F001004E
:1019D000002801DD1720B2E7A07900F0010008B966
:1019E00016271EE0207900F00C0008B1162718E039
:1019F000207900F00200022801D0162711E0222DE4
:101A000001DA16270DE0B5F5807F01DD162708E025
:101A1000B6F5805F01DA162703E0B6F5405F00DB1C
:101A20001627002F57D1B8F1030F54DD0120684964
:101A30000870032000F0B6FD04466588268805F08E
:101A40000100002801DD172079E706F001000028D9
:101A500001DD172073E7A07900F0010010B10DB986
:101A6000042736E0A07900F0010068B359480088E7
:101A7000854204D15748008808B1442D01DD032771
:101A800027E0207900F00C00E0B9534800780228E4
:101A900005D1B6F5805F02DBB6F5405F07DB4E4847
:101AA000007802280CD04D480088864208D1207961
:101AB00000F0020002280CD100204549087008E01F
:101AC000022706E0042704E015B94248008800B167
:101AD000032707B11E27EFBBB8F1020F61DD02201B
:101AE00000F060FD04466588268805F001000028A6
:101AF00001DD172023E706F00100002801DD172093
:101B00001DE7A07900F0010010B10DB9042746E0EF
:101B1000A07900F00100A8B331480088854237D190
:101B20002F48008878B3442D32DC207900F00C0077
:101B300004282BD128480078022805D1B6F5805F0B
:101B400002DBB6F5405F09DB2348007802281BD092
:101B5000244800E025E00088864215D1207900F075
:101B6000400018B101202049087002E000201E4901
:101B70000870207900F00200022810D100201449DA
:101B800008700CE006E003E0022708E0042706E006
:101B9000032704E015B91248008800B1032707B1F4
:101BA0001D2787B9C1460AE0484600F0FBFC044601
:101BB000E0880E49088009F1010000F0FF090C4897
:101BC00000788145F0DB3846B9E60000D2040020F9
:101BD000C1040020CC040020D4040020DA0400203A
:101BE000CE040020D8040020A3040020E00400203C
:101BF000D00400200246022940D003DC39B101297B
:101C00006ED106E0032952D0222969D125E00020B7
:101C1000704741F6324082420BD133480088002899
:101C200007DD3248007B00F00200002801DD0020C3
:101C3000EEE741F6334082420ED12D48007B00F0A2
:101C40000200002808DD2848008828B929480088B3
:101C5000002801DD0020DBE742E041F6334082420C
:101C60000BD12348007B00F00200002805DD1E4850
:101C70000088002801DD0020CAE731E041F632404B
:101C8000824207D11948007B00F00400002801DDE2
:101C90000020BDE741F63340824207D11448007B63
:101CA00000F00400002801DD0020B1E718E041F653
:101CB0003240824207D10D48007B00F00800002826
:101CC00001DD0020A4E741F63340824207D10848F5
:101CD000007B00F00800002801DD002098E700BF2D
:101CE00000BF122094E70000CE040020600A00200C
:101CF000A40A0020CC04002033480078002862D0D9
:101D000032480088002809DD314800882F490988B9
:101D1000884203DB00202F4908700DE02C48008822
:101D20002A490988884204DA29480088401C284941
:101D300008800120274908702648007890B126487D
:101D4000008800280EDD254800882349098888423C
:101D500005DA22480088401C2049088002E0002063
:101D60001C4908701B48007838B31D48008D1D4978
:101D7000098988420EDA01201B4908701B48B0F916
:101D8000000000281FDD1A480088401C00B21849D6
:101D9000088018E014480078A8B1002012490870A3
:101DA00001200F4981F840001048B0F900000028D8
:101DB00009DD00200E49088005E00B48007810B1CD
:101DC0000020094908707047A4040020B6040020D0
:101DD000B4040020A8040020BA040020B8040020A5
:101DE000600A0020D0050020AE040020B0040020CE
:101DF000B204002010B5024800F01EFE10BD000025
:101E0000700600200146087810381823B0FBF3F262
:101E10000848805CC865032A05D908686FF3090083
:101E2000001D886503E008686FF309008865886D08
:101E300070470000D4790008014600208A6A8B6947
:101E4000CBB932B1012A0DD0022A03D0032A10D116
:101E50000EE000BFCB6A03F08073B3F1807F00D146
:101E6000012007E0CB6AB3F1C07F00D1012001E07F
:101E700000E000BF34E08B69B3F5005F1AD132B1E6
:101E8000012A07D0022A03D0032A11D10AE000BF99
:101E900001200EE0CB6A03F08073B3F1807F00D1A4
:101EA000012006E0CB6AB3F1C07F00D1012000E041
:101EB00000BF15E032B1012A05D0022A04D0032A5E
:101EC0000CD103E000BF00BF012008E0CB6A03F0A3
:101ED0008073B3F1807F00D1012000E000BF00BF1C
:101EE000704730B50468246824F4802405682C60A9
:101EF000046863608468402C04D10468A2600468AC
:101F0000E16003E00468A1600468E26030BD7047EE
:101F100038B504464FF480700090E00000F60605E6
:101F200002222946684602F08FF900BF02222946A4
:101F3000684602F035F9BDF8000000F48070002812
:101F4000F4D038BD10B5FFF79BF810BD10B50D48A3
:101F5000406820B90C480088401C0B4908800B4899
:101F6000007850B10A48B0F90000002805DD0848A3
:101F70000088401E00B20649088000F04BF9FFF7C8
:101F8000BBFE10BD600A002088040020C7040020AA
:101F9000A604002038B500200090022204216846E3
:101FA00002F0FEF8BDF800000090BDF80000000A45
:101FB0002A49087002220621684602F0F1F8BDF8AD
:101FC00000000090BDF8000040F6FF7101EB80209A
:101FD0002349088005F0A4FC002404E02046FFF714
:101FE00097FF601CC4B21D4800788442F6DB02F003
:101FF00037FB00201B4908701B4908701B490870FB
:102000001B4908701B4908701B4908701B49088050
:102010001B4908801B4908801B4908801B49088010
:102020001B4908701B4908701B4908801B49088020
:102030001B4908801B49088001201B4908700021AA
:102040001948007804F0B2FE0020184908801849A9
:10205000087018490870FFF7EFFA38BDD004002067
:10206000D2040020C6040020C7040020A2040020DF
:10207000A0040020A1040020A3040020D604002016
:10208000B4040020B6040020B8040020BA040020E4
:10209000A4040020C2040020C4040020DC040020AA
:1020A000CE040020CC040020D4040020C80400206A
:1020B000CA040020C00400201CB5002001900120AB
:1020C000009002F043FC4D48007840B1022240F6F7
:1020D0000E01684602F064F8BDF80000009002F0BE
:1020E000FFF8044600BF04F0010098B144480078AE
:1020F00080B902224FF4907101A802F051F8BDF8A6
:102100000400019024F01104BDF80410C8B20021AD
:10211000FEF77CFC04F01000B0B13948007898B9A3
:102120003848007800F0100070B93648007820F088
:102130001000012808D024F010043249097801F079
:102140000F000021FEF762FC2D48007808B1FEF771
:1021500089FE2A48007800284FD0BDF8000000F022
:10216000010030B92749097801F00F000021FEF77E
:102170004DFC04F4007060B1002023490880022265
:1021800022480188204802F05FF824F4007402F02D
:10219000CDFABDF8000000F0020010B11C48007834
:1021A00038B1BDF8000000F00200D8B91848007836
:1021B000C0B102F00FFB1648007828B1BDF800004E
:1021C00040F40070009004E0BDF8000020F40070BE
:1021D0000090BDF800000090022240F60E01684613
:1021E00002F032F802F07CF8044600BF04F480707C
:1021F00018B124F4807402F035F91CBDAA05002042
:10220000C7040020D4040020DE040020B205002012
:10221000AB05002010B59148007830B101209049FD
:10222000087000208F49087011E18F480088401C19
:102230008D4908800846008832280BD0084600885F
:10224000642807D008460088962803D008460088EE
:10225000C828E9D18548007800F00F0009281AD273
:10226000DFE800F0190509150D19191911000020F2
:102270007F49087013E040207D4908700FE041203D
:102280007B4908700BE001207949087007E0602065
:102290007749087003E000207549087000BF00BF4F
:1022A0007348007800F0200018B96F480088C828EB
:1022B0005ED100206E49097801F01F0100290ADD76
:1022C0006B49097801F01F026949097801F01F0183
:1022D000491E1144C8B266490978664A127891428B
:1022E0000FD06349097801F0800119B100215C4ADF
:1022F000117002E001215A4A117001215E4A1180D9
:1023000031E05B49097801F0400131B35449097863
:1023100009B9012100E00021514A117018B3564952
:102320000988491C544A11801146098881421ADDE6
:102330004F49097801F0800119B10121484A117013
:1023400002E00021464A11704B490A88411D8A4229
:1023500009DB0021484A118005E04549097801F070
:1023600001013F4A117042490978424A117000BF89
:102370004248007800F0200018B93B480088C8287F
:102380005ED100203D49097801F01F0100290ADDD6
:102390003A49097801F01F023849097801F01F0114
:1023A000491E1144C8B235490978354A127891421C
:1023B0000FD03249097801F0800119B10021294A72
:1023C000117002E00121274A117001212D4A11806C
:1023D00031E02A49097801F0400131B321490978F7
:1023E00009B9012100E000211E4A117018B32549E6
:1023F0000988491C234A11801146098881421ADD47
:102400001E49097801F0800119B10121154A1170A6
:1024100002E00021134A11701A490A88411D8A42BC
:1024200009DB0021174A118005E01449097801F001
:1024300001010C4A117011490978114A117000BF4D
:1024400009480088C82802D10020074908800548AB
:1024500001780348007801F090FF10BDA00400202F
:10246000790400207A04002092040020D404002083
:10247000CB0400209904002094040020CA0400200A
:10248000980400209604002010B501F039FF02F0F6
:10249000E5FC01200649087000BF02F0F9FC044881
:1024A00000780128F9D001F067FF002010BD00007E
:1024B0007B04002010B5012000F09EFC05F04EF8D2
:1024C00001200149086010BD143C014010B50220F4
:1024D00000F092FC05F0DAF802200149086010BD16
:1024E000143C014010B54FF4807000F085FC03F0FF
:1024F000D3FB4FF480700149086010BD143C0140CB
:1025000038B5044600200090E00000F606050222DF
:102510002946684601F098FE00BF02222946684617
:1025200001F03EFEBDF8000000F480700028F4D1F8
:1025300038BD72B600BFFEE710B5012005F030FAD5
:1025400000224FF48071094800F066FD02224FF42A
:102550000871074801F050FE01221102034800F003
:102560005BFD002005F01CFA10BD000000040240D5
:10257000A405002010B501460A884B889A420ED067
:102580000A8801F1080353F82200531C9AB20A800A
:102590000B888C88A34201D100230B8000E000202F
:1025A00010BD000010B504464FF4006000EBC401FC
:1025B0000822024801F0F4FD004810BDE2040020AA
:1025C00038B502460020009000BF92F83C00012878
:1025D00001D1022038BD012082F83C0000BF08680C
:1025E000092816D91068C0680C780A3C04EB440529
:1025F0000724AC40A0431468E0600C780A3C04EB6C
:1026000044048868A0401468E46820431468E060CB
:1026100013E0106800690C7804EB44050724AC4013
:10262000A043146820610C7804EB44048868A0403F
:10263000146824692043146820614868072817D269
:102640001068406B0C79641E04EB84051F24AC40B9
:10265000A04314686063088880B20C79641E04EBA0
:102660008404A0401468646B20431468606331E004
:1026700048680D2817D21068006B0C79E41F04EB32
:1026800084051F24AC40A04314682063088880B2EE
:102690000C79E41F04EB8404A0401468246B2043ED
:1026A0001468206316E01068C06A0C790D3C04EBD6
:1026B00084051F24AC40A0431468E062088880B2FF
:1026C0000C790D3C04EB8404A0401468E46A2043B8
:1026D0001468E062194B1A4C1068A04206D10868D1
:1026E000122803D1586840F480005860144C1068D8
:1026F000A0421CD10868102802D00868112816D101
:10270000586840F400005860086810280FD10D4840
:1027100000680D4CB0FBF4F000EB8000400000902E
:1027200002E00098401E009000980028F9D100BFF8
:10273000002082F83C0000BF00BF4BE700230140AF
:10274000002001401000002040420F0070477047F9
:102750007047000070B5044600250CB9012070BD1B
:102760001549A06A884200D000BF206C30B92046CD
:1027700000F024F80020606484F83C00206C00F035
:10278000100088B9206C20F4885040F002002064CA
:102790002046FEF78BF800206064206C20F00200D9
:1027A00040F00100206400E0012500BF002084F813
:1027B0003C0000BF2846D2E70100000F10B586B0EC
:1027C0000446142101A8FDF7C6FE29492068884265
:1027D0004CD100BF002000902648006840F4807073
:1027E000244908600846006800F48070009000BF2B
:1027F00000BF00BF002000901E481438006840F061
:1028000001001C49143908600846006800F0010006
:10281000009000BF00BF80200190032002900020A4
:10282000039001A9144800F0F5FA1448144908600F
:1028300000204860002112488160C1604FF480612F
:10284000016149004161890081610021C1614FF44A
:10285000003101620021416200F00EFA08B1FFF779
:1028600068FE00BF0648A063846300BF06B010BDC9
:102870000020014044380240000002401064024041
:1028800070060020F8B504460D461646002000905C
:1028900000BF94F83C00012801D10220F8BD0120BE
:1028A00084F83C0000BF2068806800F00100A0B9F7
:1028B0002068806840F00100216888605548006801
:1028C0005549B0FBF1F000EB4000009002E00098A9
:1028D000401E009000980028F9D12068806800F41C
:1028E0008070B0F5807F05D12068806820F480700A
:1028F000216888602068806800F0010000287ED090
:10290000206C40F20161884340F4807020642068AC
:10291000406800F4806028B1206C20F4005040F43E
:1029200080502064206C00F48050B0F5805F04D1AA
:10293000606C20F00600606401E00020606400BF6D
:10294000002084F83C0000BF344F3548A16BC863B9
:102950003448A16B08643448A16BC8646FF022004E
:10296000216808602068406840F080602168486005
:102970002068806840F4807021688860226802F1D5
:102980004C0133462A46A06B00F0ECF9786800F061
:102990001F0018BB25492068884213D024492068AD
:1029A000884204D1381D006800F01F0050B1214951
:1029B000206888422BD11948001D006800F01F00D4
:1029C000102824D22068806800F04050F8B92068B0
:1029D000806840F080402168886018E013492068D2
:1029E000884214D12068806800F0405078B920688F
:1029F000806840F080402168886008E0FFE7206C34
:102A000040F010002064606C40F001006064002021
:102A100044E700001000002040420F000023014066
:102A2000050800089D0800088308000800200140F0
:102A30000021014000220140F8B50446002000902A
:102A40008C4800684FF41651B0FBF1F7A56D2E6865
:102A500094F85C1008208840304098B120680068E5
:102A600000F0040070B12068006820F004002168C4
:102A7000086094F85C1008208840A860606D40F001
:102A80000100606594F85C1001208840304068B116
:102A90002068406900F0800040B194F85C1001208B
:102AA0008840A860606D40F00200606594F85C109A
:102AB00004208840304068B12068006800F00200BF
:102AC00040B194F85C1004208840A860606D40F02C
:102AD0000400606594F85C1010208840304078B3A2
:102AE0002068006800F0080050B394F85C101020D3
:102AF0008840A8602068006800F4802080B12068C9
:102B0000006800F4002028B9206CC8B12046216C70
:102B1000884715E0A06C98B12046A16C88470FE06B
:102B20002068006800F4807028B92068006820F0F0
:102B3000080021680860206C10B12046216C88478D
:102B400094F85C10202088403040002865D0206830
:102B5000006800F0100000285FD094F85C1020207E
:102B60008840A86094F83500052828D120680068BE
:102B700020F01600216808602068406920F080007D
:102B800021684861206C08B9A06C28B120680068F1
:102B900020F008002168086094F85C103F2088400D
:102BA000A860012084F8350000BF002084F83400BC
:102BB00000BF206D10B12046216D8847F8BD206808
:102BC000006800F4802080B12068006800F40020D4
:102BD00028B9606C10B12046616C88471DE0E06B3D
:102BE000D8B12046E16B884717E02068006800F400
:102BF000807068B92068006820F0100021680860C3
:102C0000012084F8350000BF002084F8340000BFA4
:102C1000E06B10B12046E16B8847606D38B3606DA2
:102C200000F00100F0B1052084F83500206800684C
:102C300020F001002168086000BF0098401C00904F
:102C4000B84200D905E02068006800F001000028C3
:102C5000F3D100BF012084F8350000BF002084F8C4
:102C6000340000BFE06C10B12046E16C884700BF23
:102C7000A4E70000100000202DE9F04104460025E3
:102C800000F0D0F9074614B90120BDE8F081606A70
:102C900000B100BF022084F8350000BF002084F896
:102CA000340000BF2068006820F00100216808603F
:102CB0000AE000F0B7F9C01B052805D9202060659F
:102CC000032084F83500E0E72068006800F0010088
:102CD0000028EED12068056821480540D4E90101AB
:102CE0000843E16808432169084361690843A16911
:102CF0000843E1690843216A08430543606A0428E0
:102D000003D1D4E90B01084305432068056020681E
:102D1000456925F00705606A0543606A04280DD1FE
:102D2000A06A0543E06A48B12046FFF785F828B15C
:102D300040206065012084F83500A6E720684561E1
:102D40002046FFF75FF8064694F85C103F20884065
:102D5000B06000206065012084F83500002094E711
:102D60003F8010F02DE9F04704460D4616461F46F9
:102D70004FF00008D4F8589000BF94F834000128B0
:102D800002D10220BDE8F087012084F8340000BFA2
:102D900094F83500012825D1022084F83500002060
:102DA00060653B46324629462046FFF79AF894F87C
:102DB0005C103F208840C9F808002068006840F097
:102DC000160021680860206C28B12068006840F077
:102DD0000800216808602068006840F00100216850
:102DE000086006E000BF002084F8340000BF4FF008
:102DF00002084046C6E7704710B50446044800681C
:102E0000204020B1024804602046FFF7F4FF10BDC7
:102E1000143C0140F8B502460B4600250024002072
:102E20000021D6E0012606FA01F51E6806EA05042F
:102E3000AC4274D11E7906F00306012E04D01E792F
:102E400006F00306022E13D190684F000326BE4001
:102E5000B0434F00DE68BE403043906050680126AA
:102E60008E40B0431E79C6F300168E40304350604A
:102E70001E7906F00306032E09D0D0684F00032602
:102E8000BE40B0434F009E68BE403043D0601E79C4
:102E900006F00306022E13D1CF0802F1200656F8E1
:102EA00027004E07F70E0F26BE40B0434F07FF0E18
:102EB0001E69BE403043CF0802F1200646F82700C5
:102EC00010684F000326BE40B0431E7906F003068B
:102ED0004F00BE40304310605E6806F44036002E5E
:102EE00076D000BF002600963C4E366846F48046F9
:102EF0003A4F3E603E46366806F48046009600BF74
:102F000000BF374E8F0856F827008E07370F0F2661
:102F1000BE40B043334EB24202D1002624E057E017
:102F2000314EB24201D101261EE0304EB24201D1F3
:102F3000022619E02E4EB24201D1032614E02D4E96
:102F4000B24201D104260FE02B4EB24201D1052638
:102F50000AE02A4EB24201D1062605E0284EB242CE
:102F600001D1072600E008268F073F0FBE403043FF
:102F70001B4E8F0846F82700224E3068A0435E683B
:102F800006F4801606B120431E4E3060361D3068B0
:102F9000A0435E6806F4001606B12043194E361DA4
:102FA0003060184E361F3068A0435E6806F4003665
:102FB00006B12043134E361F3060361F3068A043E1
:102FC0005E6806F4803606B120430E4E083E30603F
:102FD000491C1029FFF426AFF8BD00004438024018
:102FE000083801400000024000040240000802408E
:102FF000000C024000100240001402400018024081
:10300000001C0240083C0140024613690B400BB112
:10301000012000E0002070470AB1816101E00B044B
:103020008361704701480068704700000400002079
:10303000034800680349097808440149086070475B
:10304000040000200C00002010B50D48006840F47A
:1030500000700B4908600846006840F48060086012
:103060000846006840F480700860032000F0C8F84B
:10307000032000F007F800F02BF8002010BD00003E
:10308000003C024070B504460E4800784FF47A7157
:10309000B1FBF0F00C490968B1FBF0F5284600F0EF
:1030A00008FE08B1012070BD102C07D20022214675
:1030B000501E00F067F80548046001E00120F2E7C7
:1030C0000020F0E70C000020100000200800002085
:1030D00008B500BF002000901048006840F4804010
:1030E0000E4908600846006800F48040009000BF68
:1030F00000BF00BF00200090081F006840F0805013
:10310000091F08600846006800F08050009000BF6A
:1031100000BF052000F074F808BD000044380240EC
:1031200010B501460846002817DB00F01F030122F6
:103130009A400B4B440943F8242000BF00BF00BF56
:10314000BFF34F8F00BF00BF00BF00BF00BF00BF75
:10315000BFF36F8F00BF00BF00BF00BF10BD0000F6
:1031600080E100E001460846002809DB00F01F036B
:1031700001229A4043099B0003F1E023C3F8002198
:1031800000BF70472DE9F05F80460D4616460027C8
:1031900004F0EAFB074639462A46334601F00700A9
:1031A000C0F1070ABAF1040F02D94FF0040A01E096
:1031B000C0F1070AD14600F1040ABAF1070F02D2A2
:1031C0004FF0000A01E0A0F1030AD4464FF0010AD3
:1031D0000AFA09FAAAF1010A0AEA020A0AFA0CFA38
:1031E0004FF0010B0BFA0CFBABF1010B0BEA030BDD
:1031F0004AEA0B042146404604F0BEFBBDE8F09FBE
:1032000000BF00F00702064B19684FF6FF03194094
:10321000044B0B4343EA0221014B196000BF704786
:103220000CED00E00000FA0570B504460D460CB93F
:10323000012070BD5848006800F00700A84209D27C
:1032400055490D700846006800F00700A84201D0FB
:103250000120EEE7207800F0020002281DD120783E
:1032600000F00400042805D14C48006840F4E05008
:103270004A490860207800F00800082805D147482E
:10328000006840F46040454908604448006820F008
:10329000F000A168084341490860207800F001006F
:1032A000A8B36068012807D13C4808380068C0F31B
:1032B0004040B8B90120BCE76068022802D06068CD
:1032C000032807D1354808380068C0F3406048B982
:1032D0000120AEE7314808380068C0F3400008B963
:1032E0000120A6E72D48006820F00300616808432C
:1032F0002A490860FFF796FE064609E0FFF792FEAE
:10330000801B41F28831884202D9032091E707E00F
:103310002248006800F00C006168B0EB810FEDD12D
:103320001D48006800F00700A84209D91A490D702D
:103330000846006800F00700A84201D0012078E7A5
:10334000207800F00400042807D11448006820F415
:10335000E050E168084311490860207800F0080057
:10336000082808D10D48006820F46040216940EA2F
:10337000C1000A49086000F019F808490968C1F35A
:103380000311074A515CC8400649086006480068B6
:10339000FFF778FE00204CE7003C0240083802406E
:1033A000DC79000810000020080000202DE9F0471B
:1033B000002400250026A1462548006800F00C00E6
:1033C00020B1042805D008283AD105E0DFF8849020
:1033D00039E0DFF8849036E01D48001F006800F0F7
:1033E0003F041B48001F006800F4800078B11A48B1
:1033F0001749091F0968C1F38811A0FB0170014634
:10340000224600233846FCF7A9FF05460EE0114886
:103410000F49091F0968C1F38811A0FB017001461B
:10342000224600233846FCF799FF05460848001F4E
:103430000068C0F30140401C4600B5FBF6F902E00D
:10344000DFF8109000BF00BF4846BDE8F0870000DD
:10345000083802400024F40000127A00F8B504464F
:103460000CB90120F8BD207800F00100002874D0CC
:10347000F948006800F00C0004280DD0F6480068F8
:1034800000F00C00082813D1F348001F006800F476
:103490008000B0F5800F0BD1EF4808380068C0F30A
:1034A0004040002859D06068002856D10120D9E753
:1034B00000BF6068B0F5803F08D1E7480838006871
:1034C00040F48030E449083908601EE06068B0F5D7
:1034D000A02F0DD1E0480838006840F48020DE4974
:1034E000083908600846006840F4803008600CE045
:1034F000D9480838006820F48030D7490839086076
:103500000846006820F48020086000BF606890B121
:10351000FFF788FD054606E0FFF784FD401B6428A1
:1035200001D903209EE7CC4808380068C0F340402A
:103530000028F1D011E0FFF775FD054606E0FFF722
:1035400071FD401B642801D903208BE7C24808386D
:103550000068C0F340400028F1D1207800F002005C
:1035600002285FD1BC48006800F00C0058B1BA488E
:10357000006800F00C0008281CD1B748001F006844
:1035800000F48000B0B9B44808380068C0F34000C7
:1035900020B1E068012801D0012063E7AE48083877
:1035A000006820F0F800216940EAC100AA49083902
:1035B000086037E0E06800B30120A8490860FFF721
:1035C00031FD054606E0FFF72DFD401B022801D91D
:1035D000032047E7A04808380068C0F340000028EF
:1035E000F1D09D480838006820F0F800216940EAD1
:1035F000C10099490839086014E000209749086023
:10360000FFF710FD054606E0FFF70CFD401B022802
:1036100001D9032026E7904808380068C0F340002D
:103620000028F1D1207800F0080008282CD160692A
:10363000A8B101208A490860FFF7F4FC054606E0BE
:10364000FFF7F0FC401B022801D903200AE782485B
:103650006C300068C0F340000028F1D014E0002076
:103660007F490860FFF7DEFC054606E0FFF7DAFC5D
:10367000401B022801D90320F4E677486C3000682B
:10368000C0F340000028F1D1207800F004000428A5
:1036900070D1002770483830006800F0805090B931
:1036A00000BF002000906C483830006840F0805027
:1036B0006949383108600846006800F08050009081
:1036C00000BF00BF01276748006800F48070B0B9F0
:1036D0006448006840F4807062490860FFF7A2FC0B
:1036E000054606E0FFF79EFC401B022801D9032097
:1036F000B8E65C48006800F480700028F2D000BF93
:10370000A068012808D154486830006840F00100E2
:103710005149683108601DE0A06805280DD14E4868
:103720006830006840F004004B4968310860084682
:10373000006840F0010008600CE04748683000680D
:1037400020F001004449683108600846006820F014
:103750000400086000BFA068A8B1FFF763FC05463D
:1037600009E0FFF75FFC401B41F28831884202D933
:10377000032077E626E0384868300068C0F3400050
:103780000028EED013E0FFF74DFC054608E0FFF7F8
:1037900049FC401B41F28831884201D9032061E68F
:1037A0002D4868300068C0F340000028EFD1012F99
:1037B00007D129483830006820F080502649383138
:1037C000086000BFA069002845D02348006800F0C9
:1037D0000C0008285DD0A069022845D100201F49AF
:1037E0000866FFF71FFC054606E0FFF71BFC401BC1
:1037F000022801D9032035E6174808380068C0F3CD
:1038000040600028F1D1D4E907010843616A40EA29
:1038100081110122A06AC2EB500041EA00412C2034
:10382000005D41EA00600C49091F086001200B4956
:103830000866FFF7F7FB054606E0FFF7F3FB401BC2
:10384000022801D903200DE6034808380068C0F3B8
:1038500040600028F1D049E00838024000004742AB
:10386000800E474200700040002021490866FFF7A3
:10387000D9FB054606E0FFF7D5FB401B022801D91E
:103880000320EFE51B480068C0F340600028F2D138
:103890002CE0A069012800D1E4E51648001D066867
:1038A000A069012820D006F48001E06981421BD183
:1038B00006F03F01206A814216D147F6C0703040C1
:1038C000616AB0EB811F0FD106F440310122A06A7A
:1038D000C2EB5000B1EB004F06D106F070612C2016
:1038E000005DB1EB006F01D00120BBE50020B9E520
:1038F000000047420038024010B504460CB90120D0
:1039000010BD606A38B96068B0F5827F00D105E00B
:103910000021E16102E00021216161610021A162D9
:1039200094F8510028B9002084F85000204600F097
:1039300047F8022084F851002068006820F0400019
:1039400021680860A08800F48270218901F4044194
:103950000843A18901F400610843217C01F00201C0
:103960000843217D01F001010843218B01F400711E
:103970000843217F01F0380108432021095D01F04F
:1039800080010843218D01F400510843216808603B
:103990000421A06901EA104094F8241001F01001FC
:1039A0000843216848602068C06920F400602168ED
:1039B000C86100206065012084F8510000209FE765
:1039C00010B586B00446142101A8FCF7C4FD2A49AD
:1039D000206888424DD100BF002000902748006831
:1039E00040F48040254908600846006800F48040A3
:1039F000009000BF00BF00BF002000901F4810389B
:103A0000006840F004001D4910390860084600684D
:103A100000F00400009000BF00BF00BF0020009035
:103A20000846006840F0020008600846006800F0A0
:103A30000200009000BF00BF0C2001900220029005
:103A400000200390032004900520059001A90C4854
:103A5000FFF7E0F94FF4806001900220029000200F
:103A60000390032004900520059001A90548FFF765
:103A7000D1F906B010BD00000038004040380240C7
:103A800000080240000402402DE9FF5F044688461A
:103A900091461D460E9E012002900020019000BF1D
:103AA00094F85000012803D1022004B0BDE8F09F33
:103AB000012084F8500000BFFFF7B4FA074694F8DD
:103AC00051B060680390AA46BBF1010F0BD0039878
:103AD000B0F5827F04D1A06810B9BBF1040F02D009
:103AE00002200190DBE0B8F1000F03D0B9F1000F24
:103AF00000D015B901200190D1E094F851000428BC
:103B000002D0052084F8510000206065C4F8389088
:103B1000E587A587C4F83080E586A58620646064C3
:103B20002068006800F04000402805D02068006848
:103B300040F0400021680860E068B0F5006F4AD1AD
:103B4000606810B1BAF1010F09D1206B00882168BB
:103B5000C860206B801C2063E08E401EE08633E04E
:103B60002068806800F00200022810D1E08E70B159
:103B7000029801280BD1206B00882168C860206B57
:103B8000801C2063E08E401EE086002002902068AA
:103B9000806800F0010068B1E08F58B12068C0680B
:103BA000A16B0880A06B801CA063E08F401EE087A3
:103BB00001200290FFF736FAC01BB04204D3701CFC
:103BC00010B1032001906AE0E08E0028C8D1E08F98
:103BD0000028C5D14AE0606810B1BAF1010F09D1DF
:103BE000206B007821680873206B401C2063E08EF6
:103BF000401EE08634E02068806800F00200022861
:103C000010D1E08E70B1029801280BD1206B0078A2
:103C100021680873206B401C2063E08E401EE08604
:103C2000002002902068806800F0010068B1E08FF9
:103C300058B12068C068A16B0870A06B401CA063DD
:103C4000E08F401EE08701200290FFF7EBF9C01BD8
:103C5000B04201D3701C00B916B9032001901EE0D8
:103C6000E08E0028C7D1E08F0028C4D13A46314603
:103C7000204602F04DFD20B101200190202060651A
:103C80000DE0A06850B900BF002000902068C06817
:103C9000009020688068009000BF00BF00BF012036
:103CA00084F8510000BF002084F8500000BF019844
:103CB000FBE670B504462546681EB0F1807F01D34F
:103CC00001200FE0681E4FF0E02148610F214FF006
:103CD000FF3003F051FE00204FF0E0218861072003
:103CE0000861002070BD70477047000030B5024683
:103CF0000B4600BF92F83C00012801D1022030BDE4
:103D0000012082F83C0000BF022082F83D001068CC
:103D100044681068816824F07004186804431068CF
:103D20004460184D1068A8421BD01068B0F1804F55
:103D300017D0154D1068A84213D0144D1068A84232
:103D40000FD0134D1068A8420BD0124D1068A84236
:103D500007D0114D1068A84203D0104D1068A8423A
:103D600005D121F08001586801431068816001206D
:103D700082F83D0000BF002082F83C0000BF00BF79
:103D8000BDE70000000001400004004000080040C2
:103D9000000C0040000401400040014000180040B9
:103DA00010B504460CB9012010BD94F83D0028B9A7
:103DB000002084F83C00204600F026F8022084F819
:103DC0003D00211D206803F003FD012084F846001A
:103DD00000BF84F83E0001213F20015540200155DD
:103DE0004120015500BF00BF012084F8420043205C
:103DF0000155442001554520015500BF012084F89C
:103E00003D000020D0E7000038B504462068B0F13E
:103E1000804F17D100BF002000900B48006840F091
:103E20000100094908600846006800F001000090A0
:103E300000BF00BF002202211C20FFF7A3F91C20B5
:103E4000FFF790F938BD000040380240014691F874
:103E50003D00012801D001207047022081F83D007B
:103E60000868C06840F001000B68D8601A4B086809
:103E700098421BD00868B0F1804F17D0174B0868E4
:103E8000984213D0164B086898420FD0154B08681B
:103E900098420BD0144B0868984207D0134B08681F
:103EA000984203D0124B086898420CD10868806889
:103EB00000F00702062A0CD00868006840F00100F4
:103EC0000B68186005E00868006840F001000B68A6
:103ED00018600020C0E7000000000140000400401E
:103EE00000080040000C0040000401400040014078
:103EF000001800402DE9F04104460D46002700BFA0
:103F000094F83C00012802D10220BDE8F081012094
:103F100084F83C0000BF022084F83D0020688668D9
:103F200026F0770626F47F462068866028685028A9
:103F300033D00CDC202850D004DC00284BD01028D3
:103F400051D149E0302849D040284CD139E060288F
:103F50002DD0702807D0B0F5805F03D0B0F5005F9A
:103F600041D10DE041E0D5E902136A68206803F011
:103F70009BFC2068866846F077062068866034E0FF
:103F8000D5E902136A68206803F08EFC2068806817
:103F900040F480402168886027E0EA68696820680A
:103FA00003F096FC5021206803F089FC1DE0EA68CC
:103FB0006968206803F09FFC6021206803F07FFCA3
:103FC00013E0EA686968206803F082FC40212068F9
:103FD00003F075FC09E000BF00BF00BF296820683E
:103FE00003F06DFC01E0012700BF00BF012084F851
:103FF0003D0000BF002084F83C0000BF384684E745
:10400000704710B5044620680069C0F34000D8B17D
:104010002068C068C0F34000B0B16FF002002168B2
:104020000861012020772068806900F0030018B142
:104030002046FFF7E5FF05E0204600F0ADF82046FA
:1040400000F0ABF80020207720680069C0F3800002
:10405000D8B12068C068C0F38000B0B16FF0040030
:1040600021680861022020772068806900F4407090
:1040700018B12046FFF7C4FF05E0204600F08CF899
:10408000204600F08AF80020207720680069C0F3FD
:10409000C000D8B12068C068C0F3C000B0B16FF0F4
:1040A000080021680861042020772068C06900F0BA
:1040B000030018B12046FFF7A3FF05E0204600F0FB
:1040C0006BF8204600F069F800202077206800692E
:1040D000C0F30010D8B12068C068C0F30010B0B1C0
:1040E0006FF0100021680861082020772068C069FF
:1040F00000F4407018B12046FFF782FF05E020462B
:1041000000F04AF8204600F048F8002020772068A8
:10411000006900F0010058B12068C06800F001009B
:1041200030B16FF0010021680861204600F036F8D8
:1041300020680069C0F3C01058B12068C068C0F39F
:10414000C01030B16FF08000216808612046FFF791
:10415000CAFD20680069C0F3801058B12068C068AB
:10416000C0F3801030B16FF0400021680861204634
:1041700000F015F820680069C0F3401058B12068BD
:10418000C068C0F3401030B16FF0200021680861B2
:104190002046FFF7A9FD10BD704770477047704774
:1041A0002DE9F04705460C461646B0462F464FF01F
:1041B000000915E0012003F0F3FB02212046FDF782
:1041C00091F9FF2001F086FE07F8010B002003F0B3
:1041D000E7FB012211020748FEF71EFF601C84B2B4
:1041E000B8F10000A8F101011FFA81F8E2DCBDE896
:1041F000F0870000000402402DE9F04704460D4618
:104200001646B0464FF00009274602212846FDF722
:1042100069F909E0B8F1000F01D14FF0FF094846F4
:1042200001F058FE07F8010BB8F10000A8F10101F8
:104230001FFA81F8EEDC012211020248FEF7ECFEC3
:10424000BDE8F087000402402DE9F84305460C461E
:104250001646B0462F4615E0012003F0A1FB0421CD
:104260002046FDF73FF917F8010B01F033FE0090EF
:10427000002003F095FB012211020748FEF7CCFE57
:10428000601C84B2B8F10000A8F101011FFA81F8A6
:10429000E2DCBDE8F8830000000402402DE9F843A9
:1042A00004460D461646B046274604212846FDF72B
:1042B00019F904E0387801F00DFE00907F1CB8F188
:1042C0000000A8F101011FFA81F8F3DC01221102BC
:1042D0000248FEF7A1FEBDE8F8830000000402409A
:1042E00010B5FEF729F90148008810BDA40500208B
:1042F00010B500F09BF80148008810BDA40500200F
:1043000008B5022200216846FFF74AFF00BF42F2CB
:104310009340009002224FF401716846FFF794FF2A
:104320000020009002224FF401716846FFF738FF29
:1043300042F2934100988842E9D100200090042283
:104340004FF401716846FFF77FFF1720FEF70AFF61
:104350000620FEF707FF0720FEF704FF1C20FEF7EC
:1043600001FF0448FFF772FD002003F019FB002055
:1043700008BD0000280700207047704730B522486C
:10438000007800283FD12148007800283BD0002148
:104390001F48808B012800D1012181B100201C4AD7
:1043A000506090831B4A506090831B4A108001200C
:1043B0001A4A10708007406A194A106022E01748B4
:1043C000007801281ED183075A6A00BF144B1B686E
:1043D000D31A144C63434FF47A7493FBF4F40E4BEA
:1043E0001B8843F609556B4304EB8310084B586058
:1043F000084B58600023084C2380094C2360074C6D
:10440000237000BF00BF30BDA4040020C004002002
:10441000600A0020A40A00208804002090040020E4
:104420008C04002040420F0000BFFEE710B50122BF
:1044300011020A48FEF7F0FD00224FF48071074890
:10444000FEF7EAFD02224FF408710548FFF7D4FE9B
:10445000012211020148FEF7DFFD10BD00040240F9
:10446000A40500201CB502223D48018801A8FFF7E1
:1044700097FEBDF8040001903A48007801281AD14F
:104480000A20FBF715FF0446A4B1002020606060FD
:10449000208104202080A08820F47060A08001206A
:1044A000E080072121810021204600F0C7F9204645
:1044B000FBF72DFF00BFBDF80400801D80B2019006
:1044C0002948007810B92948007818B101202849F6
:1044D000087042E0002026490870BDF80400254914
:1044E0000988884202DD234800880190214800881D
:1044F000FBF7DEFE204908600846006818B9012075
:104500001B4908701CBDBDF80420154801881A48D5
:104510000068FFF745FE00200090022240F60401EB
:104520006846FFF73DFEBDF800000090BDF80000B2
:1045300000F4006068B10020104908800848008835
:104540000C4A12881044801E81B202220B48FFF7E9
:1045500027FE0948006800F0BBF900BFD2E7000061
:10456000B0050020C8050020A9050020B6050020E0
:10457000A8050020AE050020B8050020DE040020BC
:10458000F8B504462D48007800F00F00012801D14D
:10459000F020F8BD2A48007808B9F020F9E729484A
:1045A000007808B10720F4E72588A81D82B22648C4
:1045B00001882046FFF748FE00200090022240F6C6
:1045C0000C016846FFF7ECFDBDF800000090BDF857
:1045D000000000F40060F8B91C480178A81D081A12
:1045E000C6B200201A490880022E09DAA81D400828
:1045F0004700C6F10202E1191548FBF745FF00BF6D
:1046000011480088114A12881044801E81B202228B
:104610000F48FFF719FE00BF0E48006818B10020D0
:104620000D49086002E00D480B4908600948046024
:104630000120044908700020ABE70000D4040020EA
:10464000AA050020A9050020B2050020AC05002025
:10465000DE040020BC050020B8050020F80800207A
:1046600008B52220204908804FF480701F49088037
:1046700000011F4908801F49088000201E4908804A
:1046800048800A20888000201C49088048800A2031
:10469000888000201A4908601A4908601A49086091
:1046A0001A4908601A4908700090022240F60E016B
:1046B0006846FFF775FDBDF8000020F4007000901B
:1046C000022240F60E016846FFF7BEFD00201149A8
:1046D0000870114908701149087011490870114992
:1046E00008701149087008BDAE050020AC05002017
:1046F000B0050020B20500202C0A0020F809002097
:10470000B8050020C0050020BC050020C40500201D
:10471000AB050020AA050020A9050020A80500205F
:10472000B6050020B4050020B505002010B5002016
:10473000214908702148006848B12148006830B913
:104740001E480068FBF7E3FD00201C4908601D4877
:1047500000681A4908601A48006838B118480068AB
:10476000FFF70EFF00201649086008E01648FDF725
:1047700001FF044614B12046FFF702FF00BF1348B3
:104780000078C0B11148007800F0020098B1002410
:104790000E48007820F002000C4908700C480068B0
:1047A000FCF720FF04462CB10848007840F00200D6
:1047B0000649087000BF10BDA9050020C0050020F3
:1047C000C4050020BC050020F8090020B605002023
:1047D000B805002010B514480068D8B11248046824
:1047E0001248007878B11248006860B90120FDF7DE
:1047F0008FFB104800680E4908600120FDF780FE1D
:1048000000200A4908702046FFF7BAFE002006493A
:10481000086000BF0848007808B9012000E00020C7
:104820000549087010BD0000C0050020A905002042
:10483000C4050020BC050020AB05002070B504466F
:104840000D4600261E48007800F00F00012801D117
:10485000F02070BDA08820F47040A0801948007836
:1048600000F0070010B9012016490870A08815490A
:10487000097840EA0130A0802046FFF781FE70B140
:104880001149204601F0BFFA064616B145F08005F1
:104890000AE00C480078401C0A49087004E0094806
:1048A0000078401C0749087005F0800030B105F021
:1048B0007F00064909780843044908703046C8E774
:1048C000D4040020B5050020F8090020B60500201A
:1048D0002DE9F04104460026A08805132788B7F586
:1048E000807F0EDD04202080A08820F47060A080EE
:1048F0000120E0800821218100212046FFF79EFF52
:104900001EE01DB10F480078854215D00D48057096
:104910000D49204601F077FA06468EB1042020802A
:10492000A08820F47060A0800120E0802681002112
:104930002046FFF783FF03E02046FBF7E8FC002456
:10494000BDE8F081B40500202C0A002070B50024D9
:1049500000BF00250F48FDF70DFE04461CB12046A0
:1049600000F06AFA054665B104202080A08820F492
:104970007060A0800120E080258100212046FFF7A3
:104980005DFF002CE5D10448007808B1FFF76AFD0F
:1049900070BD00002C0A0020A805002070B500257D
:1049A0000020FDF7FFFD0446608826490880208826
:1049B000254908800120FDF7F5FD0446608823495C
:1049C00008802088224908801F4800881D490988DE
:1049D00008441F49098888420ADD1D4800881B4990
:1049E0000988084418490988884201DD162070BDED
:1049F0000020FDF785FD0120FDF782FD11480088AC
:104A0000FBF756FC134908600846006880B901208E
:104A1000114908700A20FBF74BFC0E490860084654
:104A2000006800B902250B480068FBF770FC06E03F
:104A300000200949087007480068FBF768FC284611
:104A4000D5E70000AE050020B0050020AC05002031
:104A5000B2050020B8050020C805002038B50020A8
:104A600036490870FDF754FA0120FDF751FA344831
:104A7000006818B132480068FBF749FC314800680B
:104A800048B1304800682E490968884203D02D4853
:104A90000068FBF73CFC2C48006878B12A480068A5
:104AA00027490968884209D02748006825490968CC
:104AB000884203D024480068FBF729FC00202049E5
:104AC0000860214908601F4908602049087000906B
:104AD000022240F60E016846FFF762FBBDF80000B7
:104AE00020F400700090022240F60E016846FFF7A5
:104AF000ABFB00201649087016490870164908706B
:104B0000164908701649087000BF1648FDF732FDB7
:104B100004461CB12046FBF7FAFB0024002CF4D11C
:104B200000BF1148FDF726FD04461CB12046FBF7E7
:104B3000EEFB0024002CF4D138BD0000AA050020B3
:104B4000C0050020C4050020BC050020AB050020E6
:104B5000A9050020A8050020B6050020B405002006
:104B6000B50500202C0A0020F80900201FB5002000
:104B700000900190029003901548164908604FF488
:104B80008030486000211348816001610121017675
:104B9000002180F82010C1620F4981620021C160AC
:104BA0000121C16180F830104161FDF7D3FD08B1EA
:104BB000FDF7BFFC0720009001200190002002902B
:104BC00069460448FDF7FCFC08B1FDF7B2FC1FBDC7
:104BD00000200140280600200100000F08B500BF9A
:104BE000002000900A48006840F4800008490860EE
:104BF0000846006800F48000009000BF00BF00225B
:104C000011463820FEF7BEFA3820FEF7ABFA08BD91
:104C10003038024000B587B0142102A8FBF79BFC96
:104C200000BF002001905448006840F080005249C5
:104C300008600846006800F08000019000BF00BFD7
:104C400000BF002001900846006840F004000860A2
:104C50000846006800F00400019000BF00BF00BFDC
:104C6000002001900846006840F0010008600846F6
:104C7000006800F00100019000BF00BF00BF0020ED
:104C800001900846006840F002000860084600688D
:104C900000F00200019000BF00BF00223021374821
:104CA000FEF7BAF9002247F603013548FEF7B4F9DA
:104CB000012211023248FEF7AFF940F203100290D0
:104CC0004FF4041003900020049002A92D48FEF731
:104CD000A1F830200290012003900020049005905C
:104CE00002A92648FEF796F847F603000290012035
:104CF000039000200490059002A92148FEF78AF84D
:104D00004FF400400290002003900220049002A97A
:104D10001B48FEF77FF84FF4FE50029000200390EE
:104D20000220049002A91548FEF774F84FF4807031
:104D300002900120039004900020059002A91048E1
:104D4000FEF768F8002211460620FEF71BFA06203F
:104D5000FEF708FA002202210720FEF713FA0720C7
:104D6000FEF700FA002201211720FEF70BFA1720A8
:104D7000FEF7F8F907B000BD3038024000080240E5
:104D8000000402400000024010B50E480E490860C1
:104D90004FF48270486000210B488160C16002219D
:104DA000016101214161490281610021C16101620A
:104DB000416281620A21C162FEF79EFD08B1FDF7E2
:104DC000B8FB10BD00380040D006002000B587B009
:104DD00000200390049005900690019002904FF0FF
:104DE00080401449086053204860002111488160C8
:104DF0004FF47A71C1600021016180218161FEF769
:104E0000CFFF08B1FDF795FB4FF48050039003A945
:104E10000848FFF76FF808B1FDF78BFB0020019001
:104E2000029001A90348FEF761FF08B1FDF781FB7D
:104E300007B000BD2807002070B50546A888C0F35C
:104E40000320032804D12846FCF7F2FC044601E0C5
:104E5000022400BF00BF204670BD000010B5002432
:104E6000FDF798F8FCF768FC002005490880054923
:104E7000086005490870012004490870204610BDEB
:104E8000880400208C04002090040020910400205D
:104E900010B52548007800B910BD2448007810B13D
:104EA0002348007860BB2348007848BB1F4800783F
:104EB000C8B9FFF715FA044600BF04F4806040B19A
:104EC00001201B4908701C48007858B100F088FF89
:104ED00008E01A48008828B904F4006010B10120E5
:104EE0001349087000BF1720FEF71AF9FDF72AF8DA
:104EF0001348007808B100F05FFF1720FEF732F981
:104F00004FF08040446AB4F57A7F05D3FDF71EF870
:104F100000204FF080414862FDF7CEF8FCF796FB89
:104F2000FCF7AAFC00BFB7E791040020C0040020F2
:104F3000A2040020A4040020A0040020CE0400202D
:104F4000A104002000BFFEE700BFFEE710B530233C
:104F50008370642391FBF3F3047823440370642388
:104F600091FBF3F403FB1413DAB20A2392FBF3F37D
:104F70004478234443700A2392FBF3F403FB142385
:104F800084782344837010BD2DE9FF5F0F4690465F
:104F90001C460026D8F81490B8F80C00C0F3032B78
:104FA00017B1BBF1070F0BD14846FBF74EFA86B29B
:104FB000002C49D0324649462046FBF765FA43E0CB
:104FC000BBF1090F2ED14FF0010A03974846FBF7BA
:104FD0003CFA401C00EB090519E0039882450DD10D
:104FE0002846FBF732FA86B234B12EB13246294652
:104FF0002046FBF749FA00E0002611E00AF1010023
:105000001FFA80FA2846FBF720FA401C0544039853
:10501000824505DC2878FF2802D02878FE28DCD1DC
:1050200000BF00BF86B90C2674B1094B0FCB8DE8C9
:105030000F0039460DF10900FFF788FF0D22694680
:105040002046FBF721FA00BF304604B0BDE8F09FD0
:10505000DC05002030B502469489C4F30323082BF5
:1050600005D109B9106907E01469A01D04E001EB3E
:105070004105146904EB450030BDF0B504460D460A
:105080000021A889C0F30326002C02DD01F11000E5
:1050900081B2072E01D10020F0BD01236CE0082E63
:1050A00002D12869821D04E003EB4307286900EB65
:1050B000470210881F281FD00ADCA0F1030009282E
:1050C00051D2DFE800F016325017313350501A0039
:1050D000B0F5187F12D006DC202829D02E280AD05F
:1050E0002F2840D123E0A0F2622010B301283AD14A
:1050F00020E000BF00BF00BF00BF00BF01F10F00F4
:105100004FF6F07700EA0701A3420CDA10880B286B
:1051100003D01088B0F5187F02D15088084481B2BE
:1051200001F1100081B224E000BF00BF00BF00BF4A
:1051300000BF00BF01F11F004FF6E07700EA070152
:10514000A3420FDA108840F26227B84203D01088D9
:105150007F1CB84203D15088084481B202E001F1BB
:10516000200081B205E0A34202DA5088084481B2EF
:1051700000BF00BF581C83B2A34290DD08468BE7F6
:105180002DE9F04705462020A8401FFA80F9FCF7DA
:105190004DFA04464FF000081FE02089B0F5805F0B
:1051A0001ADB2E4696B194F80CA000270AE0F9B25B
:1051B0002046FFF74FFF808800EA090000B1002673
:1051C000781C87B20EB15745F1DD00BF1EB908F15A
:1051D00001001FFA80F800BF6468002CDDD1404652
:1051E000BDE8F087014601F10A00704770B5054639
:1051F000FCF71CFA044605E02089A84201D12046AC
:1052000070BD6468002CF7D10020F9E72DE9F0416A
:1052100084460C461E469089C0F30323177B002169
:105220002EB3072B02D10020BDE8F081082B0BD153
:10523000906907781069008900FB07F1C81DC10853
:1052400004B9891C0846EFE7012508E005EB45088D
:10525000106900EB480040880144681CC5B2BD429B
:10526000F4DDC81DC10804B9891C0846DCE7072B1A
:1052700004D110694088C01DC010D5E70CB90120C9
:10528000D2E7082B04D110690089C01DC010CBE7FC
:1052900004EB4405106900EB45004088C01DC010B8
:1052A000C2E700002DE9FC5F05460E46174698460A
:1052B000DDF830B02020A84080B201903088B0F5F1
:1052C000805F0AD1FCF7B2F9044644B9BBF1000F84
:1052D00005D01B208BF8000001E0204804688CB347
:1052E0002DE02089B0F5805F28DBA946B9F1000FD9
:1052F00019D0207B00904FF0000A0DE05146204667
:10530000FFF7A8FE80880199084008B14FF0000916
:105310000AF1010000F0FF0AB9F1000F02D0009875
:105320008245EBDD00BFB9F1000F06D12089A8F856
:10533000000008F10208B81E87B200BF64680CB113
:10534000012FCEDC14B12089308002E04FF6FF70CF
:105350003080024804603846BDE8FC9F0806002003
:105360002DE9FF4F87B0824689461F46149CC846E8
:10537000B889C0F303200690387B0590CDF81090D3
:105380000698072805D0BAF5805F02DBB869007877
:105390000590159860B10698072802D0BAF5805F8D
:1053A00003DA05200BB0BDE8F08F059804901EE0ED
:1053B0000598814501DD1120F4E708F0FF0138462A
:1053C000FFF748FE0546A88888B1F848007800F045
:1053D0000F00297901F00701B0EB410F07DD2879B3
:1053E00000F0070008B90620DCE71A20DAE7F869C0
:1053F00040B1159800902346FE6949465046099AE7
:10540000B047CFE7BAF5805F4BDAB9F1000F48D06B
:10541000BE6949463846FFF71DFE05466888C01D2F
:105420004FEAE00B0396A9F10100039E56F82060B5
:1054300006F0010040B30020B1B221F0010600BF28
:105440000BE03188090A21802188B27841EA0221E3
:105450002180A41CB61C411C88B20BEBDB72B0EBA4
:10546000620FEEDB59460BEBD1725210ABEB4202EE
:10547000012A08D1218801F47F41218021883288C6
:1054800041EA122121800BE0308820807088608002
:10549000241D361DABF1040231462046FAF7F4FF15
:1054A00098E1002003900290C8468AE1D7F818B02E
:1054B0000026B8F1000F08D0BAF5805F05DB08F0D0
:1054C000FF003946FFF7D9FD064630110BEB400BC4
:1054D00008F0FF013846FFF7BDFD0546B3480078E8
:1054E00000F00F00297901F00701B0EB410F7CDCDF
:1054F000C84504D01598002878D0C84576DBB8F1A7
:10550000000F06D10698072803D005982080A41C18
:1055100024E1288800902888B0F5E06F12DB6888C5
:10552000082804DC68882F3080B200900AE0688880
:10553000102802D10620009004E06888202801D1BC
:105540000720009000981F287ED013DC1F287CD2F3
:10555000DFE800F03A535D8F9F5E909EA0E4C5C6E1
:10556000FEFEFEFEFEB0FEFEFEB1FEFEFEFEFEB242
:10557000FEFE5F00342845D012DC30283ED008DC27
:10558000202874D02D2841D02E2874D02F285CD10B
:1055900081E0312833D0322832D03328F7D130E0BF
:1055A000B0F5187F72D006DC35282CD036282BD0E9
:1055B0003728ECD129E0A0F26120002867D001282B
:1055C0006FD00228E3D18FE0159898B1A87800F049
:1055D0000F00002805DDA878304400F00F0000B966
:1055E000A41CA878C0F3031001E0B8E0E5E004EBE8
:1055F000400401E01820D5E6ACE000BF00BF00BFCA
:1056000000BF00BF00BF00BF00BF00BF00BF00BFA2
:1056100000BF00206988664A32F8111006F00F02B8
:10562000914089B20191BBF8000006F00F0109B961
:105630000021218021882180159939B12188019A82
:1056400002401143218009E016E081E00199014008
:1056500006F00F0211412288114321802188218008
:10566000A978314401F00F0101B9A41C72E013E0E4
:1056700001E000BF00BF00BF06F00F0008B1052029
:1056800090E6BBF800002080A41C63E029E029E03C
:1056900000BF00BF00BF00BF06F00F0010B1052023
:1056A00080E620E0BBF800002080BBF802006080AC
:1056B000241D4FE000BF00BF06F00F0008B1052019
:1056C00070E6BBF800002080BBF802006080BBF8E9
:1056D0000400A080BBF80600E08008343AE000BF78
:1056E00000BF00BF00BF00BF06F00F0008B10520DB
:1056F00058E66888C01DC21059462046FAF7C4FE15
:10570000688820F00F000F30001104EB4004A878E7
:1057100000F00F0008B1207820801BE006F00F0099
:1057200008B105203EE66888C01DC21059462046D3
:10573000FAF7AAFE688820F00F000F30001104EB82
:105740004004A87800F00F0008B12078208001E024
:10575000182027E600BF0120039000BF2DE00020A5
:1057600006F00F0109B900212180A97801F00F018D
:10577000002907DDA978314401F00F0111B9A41CFB
:1057800000212180002004E0A41C00212180411C74
:10579000C8B2A978C1F303118142F5DC297901F07F
:1057A000070139B90621029106E00000D404002067
:1057B000D28200081A21029100BF08F101001FFAED
:1057C00080F8049880457FF771AE039808B9029875
:1057D000E8E500BF0020E5E52DE9FF4F89B006466A
:1057E0008B469A46169CD846BAF80C00C0F30320A4
:1057F0000890002007909AF80C0006900020059071
:10580000CDF810B0089807281BD0DAF818000078F7
:1058100007900798A8B941F61040864203DB41F68D
:105820002F4086420BDDB6F5B05F02DBB6F5C05FF8
:1058300005DBB6F5D05F04DBB6F5E05F01DA06986C
:105840000790179880B10898072803D105200DB05C
:10585000BDE8F08FBBF1000F03D10B9808B12078A1
:105860000790079804901BE00798834501DD1120FD
:10587000EDE759465046FFF7EDFB0546FE48007838
:1058800000F00F01287900F03800B1EBA00F07DD20
:10589000287900F0380008B90720D8E71A20D6E7A1
:1058A000BBF1000F1ADD41F61040864203DB41F6E2
:1058B0002F4086420BDDB6F5B05F02DBB6F5C05F68
:1058C00005DBB6F5D05F09DBB6F5E05F06DADAF89E
:1058D0001810087808B10121059100BFDAF82000FE
:1058E00048B1179800902346DAF8207059463046A0
:1058F0000B9AB847ABE700200390072002900B9863
:1059000008B90020A3E7D846B2E1DAF818704FF0E2
:10591000000908F0FF015046FFF79CFB054608F020
:10592000FF005146FFF7A9FB8146D348007800F0FD
:105930000F00297901F03801B0EBA10F6FDCB8F14D
:10594000000F03D04FEA291007EB4007D84504D0D9
:10595000179800287ED0D8457CDBB8F1000F0CD119
:105960000898072809D021780698884201DA132080
:105970006DE720883880A41C5DE128880090288885
:10598000B0F5E06F12DB6888082804DC68882F30E7
:1059900080B200900AE06888102802D106200090AA
:1059A00004E06888202801D10720009000981F2873
:1059B00077D013DC1F2875D2DFE800F03B535D94ED
:1059C000DB5E95DADCF4F3F27474747474FB747453
:1059D00074FC7474747474FD74745F00342845D05E
:1059E00012DC30283ED008DC202878D02D2841D089
:1059F0002E2879D02F2855D1BDE0312833D0322838
:105A000032D03328F7D130E0B0F5187F69D007DC09
:105A100035282CD036282BD03728ECD129E00DE1C1
:105A2000A0F2612000287CD001287BD00228E2D19E
:105A3000E9E0179890B1A87800F00F00002805DD84
:105A4000A878484400F00F0000B9A41CA878C0F35F
:105A5000031000E008E104EB400401E01820F6E642
:105A6000E7E000BF00BF00BF00BF00BF00BF00BF36
:105A700000BF00BF00BF00BF00BF002168887F4A91
:105A800032F8100009F00F02904080B2019039887E
:105A900001988143179830B12088019A1040014342
:105AA00015E022E0C3E020886A88744B33F81220A6
:105AB000904308B11220CAE620886A886F4B33F8F9
:105AC0001220104009F00F029040084381B2398043
:105AD000A878484400F00F0000B9A41CA9E04BE0EE
