:020000040800F2
:10000000C83E00209D01000839510008D94700086A
:1000100035510008D51300087D830008000000005A
:100020000000000000000000000000005D6F0008FC
:100030002D27000800000000F55F0008997D0008EA
:10004000B7010008B7010008B7010008B7010008B0
:10005000B7010008B7010008B7010008B7010008A0
:10006000B7010008B7010008412B0008B7010008DC
:10007000B7010008B7010008B7010008B701000880
:10008000B7010008B7010008B7010008B701000870
:10009000B7010008B7010008B7010008B701000860
:1000A000B7010008B7010008B7010008B701000850
:1000B000797E0008B7010008B7010008B701000801
:1000C000B7010008B7010008B7010008B701000830
:1000D000B7010008B7010008B7010008B701000820
:1000E000DD2A0008B7010008B7010008B7010008C1
:1000F000B7010008B7010008B7010008B701000800
:10010000B7010008B7010008B7010008B7010008EF
:10011000B7010008B7010008B7010008B7010008DF
:10012000B7010008B7010008B7010008B7010008CF
:10013000B7010008B7010008B7010008B7010008BF
:10014000B7010008B7010008B7010008B7010008AF
:10015000B7010008B7010008B7010008B70100089F
:10016000B7010008B7010008B7010008B70100088F
:10017000B7010008B7010008B7010008000000003F
:10018000B7010008B7010008DFF80CD000F05EFAF4
:1001900000480047618B0008C83E002006488047A1
:1001A00006480047FEE7FEE7FEE7FEE7FEE7FEE75C
:1001B000FEE7FEE7FEE7FEE7657E0008890100082E
:1001C0002DE9F05F0546002092469B46884606468C
:1001D000814640241BE0284641464746224600F01F
:1001E000B6F953465A46C01A914110D311461846E3
:1001F000224600F09DF92D1A67EB01084F46224672
:100200000120002100F094F917EB00094E41201E57
:10021000A4F10104DFDC484631462A464346BDE8E6
:10022000F09F40EA01039B0703D009E008C9121FB1
:1002300008C0042AFAD203E011F8013B00F8013BA0
:10024000521EF9D27047D2B201E000F8012B491ECC
:10025000FBD270470022F6E710B513460A46044663
:100260001946FFF7F0FF204610BD421C10F8011B95
:100270000029FBD1801A70472DE9FE4F804681EAA4
:100280000300C00F0C46009021F0004123F0004510
:10029000B8EB0200A94105D24046214690461C46D3
:1002A0000B46024623F00040104347D0270DC7F30A
:1002B0000A00C3F30A510290401A019040286BDAF9
:1002C000C3F3130040F4801B0098924620B1002332
:1002D000D2EB030A63EB0B0B01985946C0F14002C5
:1002E000504600F025F906460D4650465946019AFB
:1002F00000F03DF910EB08006141002487EA11523B
:1003000084EAE7731A4340D0009A62B3019A012A43
:100310004FEA075215DC001B61EB02014FF000426F
:1003200002EA0752CDE90042001C41F58011324635
:100330002B4600F03DF903B0BDE8F08F4046214662
:10034000F9E7001B61EB0201001C41F58013001866
:100350005B412018A2F5001747EB030140EAD57076
:10036000B6196D4111E06D084FEA360645EAC075D1
:100370004FEA0752001B61EB0201001C41F580119E
:1003800049084FEA30000019514132462B4603B06C
:10039000BDE8F04F00F0FDB80098012240000023B6
:1003A000D0EB020263EBE073009821464FEAE07461
:1003B000B8EB000061EB0401E9E783F000435BE781
:1003C00081F0004158E72DE9FE4F81EA030404F073
:1003D000004421F0004100944FF0000B23F0004353
:1003E00050EA01045ED052EA03045BD0C3F30A541E
:1003F000C1F30A552C44A4F2F3340194A0FB025437
:10040000C1F3130141F48011C3F3130343F48013C8
:1004100001FB024400FB034E840A970A44EA81541C
:1004200047EA8357A4FB076802958D0A05FB0785F9
:100430004FEA932C04FB0C542705029D4FEA065803
:1004400047EA1637B5EB08056EEB070C870E920EE0
:1004500047EA811742EA8312A7FB0201B6EB0B01C0
:1004600064EB00042B0D43EA0C335E1844EB1C5084
:10047000DA465146E7FB0201C5F313044FEA0B339A
:1004800043EA14534FEA0432019C43EA0603A4F101
:100490000C040294009CCDE900B400F089F803B08C
:1004A000BDE8F08F00200146F9E70EB5C10F80EAE4
:1004B000E0700844CA07002140F233438DE80E0083
:1004C0000A460B4600F074F803B000BD70B5C1F3E6
:1004D0000A5201F000450024C1F3130140F2FF333A
:1004E00041F480119A4201DA002070BD40F233439A
:1004F0009A42A2F2334203DC524200F028F800E0B4
:1005000090402C43F1D0404270BD00F0004230F0EA
:1005100000400AD0C10D01F56071C0F3160042EA37
:100520000151C2084007114370470020014670473F
:10053000202A04DB203A00FA02F1002070479140A3
:10054000C2F1200320FA03F3194390407047202A98
:1005500004DB203A21FA02F00021704721FA02F36D
:10056000D040C2F120029140084319467047202A2A
:1005700006DBCB17203A41FA02F043EAE07306E0CB
:1005800041FA02F3D040C2F12002914008431946DB
:10059000704710B5141E73F1000408DA401C41F1D5
:1005A000000192185B411A4301D120F0010010BDF7
:1005B0002DE9F04D92469B4611B1B1FA81F202E06D
:1005C000B0FA80F220329046FFF7B2FF04460F46A1
:1005D00040EA0A0041EA0B0153465A46084313D049
:1005E000114653EA010019D0C8F140025046FFF706
:1005F000AEFF05460E46504659464246FFF798FF65
:10060000084305D0012004E020463946BDE8F08DBE
:100610000020054346EAE0762C4337430A986305F9
:10062000E40AA0EB08000022FD0A44EA47540A301D
:1006300002D500200146E9E7010510196941DDE90D
:10064000084500196941BDE8F04DA2E7064C074D89
:1006500006E0E06840F0010394E807009847103492
:10066000AC42F6D3FFF794FD80950008A0950008F2
:1006700070B58C1810F8015B15F0070301D110F864
:10068000013B2A1106D110F8012B03E010F8016B91
:1006900001F8016B5B1EF9D12B0705D40023521E14
:1006A0000DD401F8013BFAE710F8013BCB1A921C7C
:1006B00003E013F8015B01F8015B521EF9D5A1427A
:1006C000D8D3002070BD00002DE9F04105460F464B
:1006D0000024A046601EFD4908800120FC490870E6
:1006E00005F0100040B14FF00108FA48007820F002
:1006F0001000F849087010E0F648007800F010008B
:1007000028B105F00F00012801D0BDE8F081F148C3
:10071000007800F00F00EF49087005F00F05ED4874
:1007200006783007060E7019C6B2442E24D008DCB5
:10073000122E0FD0222E10D0242E13D0422E22D1D2
:100740000AE0482E16D0822E05D0842E13D0882E93
:1007500019D112E000BF00BF00BF022001F02CF849
:10076000044610E0DC49DD4800F000FB044604B11B
:1007700009E000BF00BF00BF00BFD948007801F00A
:100780001BF8044600BF00BF002C7DD10020D549D6
:1007900008803046342E78D01EDC222876D00EDC3D
:1007A000142874D006DC112872D0122833D01328F4
:1007B0006FD12AE018286DD02128F9D1C3E028286C
:1007C00069D004DC232867D02428F1D143E0312804
:1007D0001DD03228ECD1E8E0482864D00CDC422857
:1007E0007AD004DC382878D04128E1D19FE0432832
:1007F00074D04428DCD1B2E08138082849D2DFE83F
:1008000000F08A76D36ED8D8D8AF1324D3E013245F
:1008100000F0DAFDCFE007F08FFDB348007800B9B3
:100820005124BCB904F0ACFA04464CB90020A849E4
:10083000087000F0ABFD044614B90120AB49087004
:1008400044B1FF2C06D0A248007808B900F0A4FDFE
:1008500004F0F6FAAFE006F053FE044674B9002047
:100860009B490870A24800F017FD044634B9A0481F
:10087000008806F005FE01209E49087094B1FF2C07
:1008800010D09348007808E096E08FE066E086E0BC
:1008900061E08EE084E084E084E008B900F07AFD55
:1008A00007F052F987E007F033F904464CB900200D
:1008B0008749087000F06CFD044614B901208E4988
:1008C000087044B1FF2C06D08148007808B900F0C8
:1008D00065FD07F0A1F96EE015E068E063E000F067
:1008E0005DFD07F099F900207949087063E000F098
:1008F00055FD044607F090F900207549087004B1D1
:1009000059E0422600BF00F045FD07F01DF9002028
:100910006F4908704FE000F041FD044607F07CF994
:1009200000206B49087004B145E0412600BF00F08B
:1009300031FD044607F008F900206549087004B14C
:1009400039E0212600BF04F07BFA00F025FD0446C3
:1009500000F03AFD2FE000F037FD00BF00BF00BF00
:10096000B8F1000F02D0304600F0E6F96348007895
:1009700098B95848007800F00C0070B156480088CB
:10098000002803DD022002F0E0F806E0534800886A
:10099000002802DD032002F0D8F8FE240BE000BF9F
:1009A00000BF00BF00BF00BF00BF00BF00BF1124D9
:1009B00001E0122400BF1EE04648007802280DD056
:1009C000042806D0082816D100F0E8FC07F024F926
:1009D00000BF00F0DFFC07F0B7F800BF162C07D10E
:1009E00004F02EFA00F0D8FC01203A49087002E029
:1009F000022038490870FF2C26D101204049087098
:100A0000384806800088122806D0132805D02428EC
:100A100008D048280CD106E000BF4FF4FA602B49FB
:100A2000088009E000BF42F228302849088003E02E
:100A3000C8202649088000BF00BF244800883238FB
:100A400000B22249088065E02248007800F00F00DB
:100A5000A84257D004B9DFB11E480078284300F0FF
:100A60000800A8B12448007818B100F097FC07F0FE
:100A7000D3F819480088002803DD022001F057FE52
:100A800006E016480088002802DD032001F04FFE32
:100A90006CB110480078082802D104200D49087074
:100AA0000C48007840F010000A49087005E017B1C2
:100AB0003C4645F0100507480570002010490870B5
:100AC00021460448007806F0F5FC23E006080020E3
:100AD00026080020320800202C0800202A080020C8
:100AE0002E08002028080020480800204E0800207A
:100AF0003A080020010800200008002022080020F9
:100B000027080020002004490870002103480078CD
:100B100006F0D0FC00BFF8E52708002032080020CE
:100B200070B57548007800287AD00024002500268A
:100B300072480088002855D171480088C0F3071515
:100B40006F480088122806D0132805D0242812D018
:100B5000482846D11EE000BF6A48007808B900F076
:100B60001BFC04F06DF96848007810B167480688EE
:100B700000E0012635E06348007808B900F00AFC7F
:100B800006F0E2FF6048007810B16048068800E097
:100B9000012626E05E48007878B15E48007808B902
:100BA0002D2615E05C48007828B95C4800880028AC
:100BB00001DD1B260CE01A260AE0584800880028B0
:100BC00001DD1B2604E00825002601205449087099
:100BD00036B14C48007808B900F0E0FB07F01CF88B
:100BE00000BF7BE046480088122806D0132805D0B5
:100BF00024281DD0482870D131E000BF414800783A
:100C0000A8B100203F49087000F0C0FB044644B979
:100C10000120444908703A48007800F00F0506E0CA
:100C200068E0FF2C03D000F0B7FB04F009F954E0B2
:100C30003448007890B10020324908703A4800F0FA
:100C40002BFB044624B9012038490870042505E02F
:100C5000FF2C03D000F09EFB06F076FF3DE0294814
:100C6000007818B32A48007808B33148B0F900007A
:100C7000002831DD2E48B0F900002E49B1F90010EE
:100C8000884229DC00202A4908802A49088000F08F
:100C90007FFB044624B901202149087008251BE088
:100CA000FF2C19D000F07AFB06F0B6FF14E01B48C9
:100CB000008810B11848007870B100F069FB044654
:100CC00024B9012016490870082505E0FF2C03D03F
:100CD00000F064FB06F0A0FF00BF00BF4DB1002094
:100CE000054908700EB145F010053146284606F05A
:100CF000E1FB00BF70BD00002708002006080020AF
:100D000028080020260800202208002024080020AF
:100D10000408002008080020020800202C080020F9
:100D2000000800204E0800203A080020010800209A
:100D300010080020120800207047000010B50024A1
:100D40000FE004EB4400084901EB8010007830B15B
:100D500004EB4401044A02EB811000F023FF601C05
:100D600084B2022CEDDB10BD480A00202DE9F84FBB
:100D700082468B464FF00009002400200090002599
:100D80000027804600269E480088022802DD1920A0
:100D9000BDE8F88F00244EE09948801C10F814003C
:100DA000C0F3031000900098A04224D104EB44004B
:100DB000944901EB80100078D8BB04EB440001EBB0
:100DC0008010D0F8BC6009E0304600F005FB814699
:100DD000B9F1000F01D04846DAE7283630894FF6DE
:100DE000FF718842F0D1012004EB4401854A02EBF7
:100DF000811108701DE004EB4400824901EB801072
:100E00000078B0B104EB440001EB8010D0F8BC6076
:100E100003E0308900F040FC283630894FF6FF713E
:100E20008842F6D1002004EB4401764A02EB81119E
:100E30000870601C84B272480088A042ACDC0024B8
:100E400071E06F48801C10F8140000F00F0020B112
:100E5000012823D0022863D140E04FF4C07104EB95
:100E60004400684A02EB8010C0F8B81000250CE07E
:100E700004EB4400634901EB8010203010F825009A
:100E800040441FFA80F8681C85B204EB44005D49B9
:100E900001EB8010808BA842EADC41E0802104EB6A
:100EA0004400584A02EB8010C0F8B81000250CE04E
:100EB00004EB4400534901EB8010383010F8250052
:100EC00040441FFA80F8681C85B204EB44004D4989
:100ED00001EB8010808EA842EADC21E04FF48071A3
:100EE00004EB4400474A02EB8010C0F8B81000251C
:100EF0000CE004EB4400434901EB8010443010F84F
:100F0000250040441FFA80F8681C85B204EB4400B9
:100F10003C4901EB8010B0F84000A842E9DC00BF7A
:100F200000BF601C84B236480088A04289DC4FEACA
:100F3000E808B9F1000F5DD1002455E0324810F8FF
:100F4000140000F00F0020B101281AD0022848D167
:100F50002FE000250BE004EB44002A4901EB801050
:100F6000503010F82500384487B2681C85B204EB75
:100F70004400244901EB8010B0F84C00A842EADCA0
:100F80002FE000250BE004EB44001E4901EB80102C
:100F9000683010F82500384487B2681C85B204EB2D
:100FA0004400184901EB8010B0F86400A842EADC64
:100FB00017E000250BE004EB4400124901EB801020
:100FC000743010F82500384487B2681C85B204EBF1
:100FD00044000C4901EB8010B0F87000A842EADC34
:100FE00000BF00BF601C84B20748801E0088A0427A
:100FF000A4DCFF10AAF80070ABF800804846C7E6F2
:1010000024020020480A00202C02002030B50346AC
:101010000022184600BF8AE0484C14F81240C4F37E
:101020000311464C14F8124004F00F0424B1012CB3
:101030003ED0022C78D159E001EB4104404D05EB44
:101040008414B4F8804020F8024B01EB410405EB16
:101050008414B4F8904020F8024B01EB410405EBF6
:101060008414D4F890404FF6FF7505EA244420F824
:10107000024B01EB4104324D05EB8414B4F894406B
:1010800020F8024B01EB410405EB8414D4F89440A2
:101090004FF6FF7505EA244420F8024B01EB4104AA
:1010A000274D05EB841494F88C4020F8024B3BE06C
:1010B00001EB4104224D05EB8414B4F8804020F884
:1010C000024B01EB410405EB8414B4F8904020F886
:1010D000024B01EB410405EB8414D4F890404FF629
:1010E000FF7505EA244420F8024B1DE001EB4104A2
:1010F000134D05EB8414B4F8804020F8024B01EB4B
:10110000410405EB8414B4F8944020F8024B01EB41
:10111000410405EB8414D4F894404FF6FF7505EABA
:10112000244420F8024B00BF00BF541CA2B2034C61
:10113000A41E248894423FF76FAF30BD2C020020DC
:10114000480A002070B503460022184600BF98E008
:101150004F4C14F81240C4F303114D4C14F81240D4
:1011600004F00F0424B1012C44D0022C41D163E0DF
:1011700030F8025B01EB4104464E06EB8414A4F800
:101180007E5030F8025B01EB410406EB8414C4F896
:101190009C5030F8025B01EB410406EB8414D4F858
:1011A0009C4004EB054501EB410406EB8414C4F8B4
:1011B0009C5030F8025B01EB410406EB8414C4F848
:1011C000B45030F8025B01EB410406EB8414D4F810
:1011D000B44004EB054501EB410406EB8414C4F86C
:1011E000B45010F8025B01EB410406EB8414A4F840
:1011F0008A5043E030F8025B01EB4104254E06EBD8
:101200008414A4F87E5030F8025B01EB410406EB35
:101210008414C4F89C5030F8025B01EB410406EBE7
:101220008414D4F89C4004EB054501EB410406EB23
:101230008414C4F89C5021E030F8025B01EB4104B7
:10124000144E06EB8414A4F87E5030F8025B01EBD8
:10125000410406EB8414C4F8B45030F8025B01EB8F
:10126000410406EB8414D4F8B44004EB054501EBCB
:10127000410406EB8414C4F8B45000BF00BF541CF2
:10128000A2B2034CA41E248894423FF761AF70BD04
:1012900026020020480A002038B5044600200090AD
:1012A00031480088B0BB002030490988304A11809D
:1012B0002E4909882F4A118000BF26E041F2893269
:1012C0002B49091D41F820202849891C11F81010CC
:1012D00001F00F0121B1012908D0022912D10BE040
:1012E000254A2449091D41F820200BE0234A2149C1
:1012F000091D41F8202005E0214A1E49091D41F839
:10130000202000BF00BF411CC8B218490988814293
:10131000D4DC00BF04224FF41A61684603F0ADF834
:10132000009800901748007801281AD14FF47A727B
:101330000099B1FBF2F1009100200FE000EB4001B9
:10134000114A02EB8111097831B100EB40020E4BDA
:1013500003EB821200999161411C88B20228EDDBF7
:1013600000BF002038BD00004402002024020020FD
:10137000380200205002002000981100009821003F
:101380000098310004080020480A0020002070471F
:1013900000207047002070470020704700207047F1
:1013A00070B5054600262C4607E0204600F014F8EC
:1013B00006460EB1304670BD283420894FF6FF71C5
:1013C0008842F2D13046F6E70020014908707047A4
:1013D0007008002000BFFEE70146002940D02148E8
:1013E000006848B91F48016000201E4A126850601A
:1013F0001C4A1268106070471A48006800890A8900
:1014000090420BDD002008601648006848601548CF
:1014100000680160134801600020ECE71148026891
:101420001BE010890B89984201D10120E3E7108964
:101430000B89984209DD106808604A60106808B19D
:101440001068416011600020D5E7506820B95160F4
:101450000A6000204860CEE75268002AE1D100BF50
:101460000120C8E74C00002030B50748046800257B
:1014700004E025896468284600F00EF9002CF8D1B4
:1014800000200149086030BD4C00002010B5044622
:101490000E48006840B100210C48006803F0C0FB12
:1014A00000200A4908600FE04FF4807007F07AFBD3
:1014B00004460CB9072010BD0E2205492046FEF750
:1014C000B0FE204604F0EAFF0020F4E7FC0700200D
:1014D000B80E002001480068704700004C00002052
:1014E000002002490860024908807047FC0700207C
:1014F000A808002038B5002425480068002845D0F9
:10150000244800780090244803682448026824484E
:101510000178244800881E4D2D68A8470446FF2CFA
:1015200034D021480078012811D0022804D00328A3
:1015300014D004281AD110E01C48006830B11B48B0
:10154000006807F0E5FA00201849086000BF002293
:101550001146204605F014F908E000BF0E48026865
:101560000E480168204605F00BF900BF00BF0020BF
:101570000D4908700B49088009490870074908603F
:1015800005490860034908700149086038BD00003A
:10159000A0080020910800209C0800209808002046
:1015A000920800209408002090080020A408002041
:1015B00010B500240020084908600848FFF7F0FE35
:1015C00004460CB1204610BD054810B1FFF7E8FEF7
:1015D00004462046F7E700004C00002050000020A1
:1015E000FC02002010B520202049088000204880FF
:1015F0004860886044F21F0088814CF250300861D6
:10160000002048618883086281F840002020184942
:1016100008800020488015484068486000208860A5
:101620001248808988814CF250300861002048615E
:101630008883086281F840000E490870FFF7B8FF00
:1016400004460CB1FFF710FF00200B4908700B494E
:1016500008700B4908800B4908700B4908600B495A
:1016600008600B4908600B49086010BD300E00206F
:10167000740E0020700800209008002091080020BF
:101680009408002092080020980800209C08002060
:10169000A0080020A408002030B503460E490868C1
:1016A00015E00189994211D10268416802B1516087
:1016B00001B10A600024046044600489064D2D686D
:1016C0002D89AC4201D1044C216030BD4068002816
:1016D000E7D100BFF9E700004C00002070B50446D8
:1016E0000025E088000B092817D2DFE800F016106B
:1016F000050F111213140A00204604F0ABFC054636
:101700000DE0204604F0CAFE054608E000BF00BF19
:1017100000BF00BF00BF042501E0052500BF00BFDA
:10172000284670BD08B51D480088F8B1002000901B
:1017300002224FF48861684602F09FFEBDF8000067
:101740000090BDF8000000F0010070B91448008856
:1017500000280ADD1348007820B11B210420FEF781
:10176000B3FF08BD00201049087000BF0F48007883
:1017700090B10C48007878B10D48007820B92C2140
:101780000420FEF7A1FFECE70A48007820B91A21EF
:101790000420FEF799FFE4E700BFE2E734080020E9
:1017A0002C08002000080020020800200408002067
:1017B000080800200E0800202DE9F0478046002789
:1017C00000250026AC48008841F6FF7188420BDBFB
:1017D000A9480088884207DBA7480088884203DBC5
:1017E000A5480088884202DA1420BDE8F08700206E
:1017F00001F052FA04466588268805F001000028A9
:1018000001DD1720F1E706F00100002801DD1720B7
:10181000EBE7A07900F0010008B916271FE0207956
:1018200000F00C00042801D0162718E0207900F001
:101830000200022801D0162711E0222D01DA162716
:101840000DE0B5F5807F01DD162708E0B6F5805F75
:1018500001DA162703E0B6F5005F00DB16271FBB91
:10186000012001F019FA04466588268805F0010078
:10187000002801DD1720B8E706F00100002801DD8F
:101880001720B2E7A07900F0010008B916271EE082
:10189000207900F00C0008B1162718E0207900F03C
:1018A0000200022801D0162711E0222D01DA1627A6
:1018B0000DE0B5F5807F01DD162708E0B6F5805F05
:1018C00001DA162703E0B6F5005F00DB1627002FCC
:1018D00057D1B8F1030F54DD012068490870032087
:1018E00001F0DAF904466588268805F00100002831
:1018F00001DD172079E706F00100002801DD17203F
:1019000073E7A07900F0010010B10DB9042736E0AB
:10191000A07900F0010068B359480088854204D1DD
:101920005748008808B1442D01DD032727E02079BE
:1019300000F00C00E0B953480078022805D1B6F554
:10194000805F02DBB6F5005F07DB4E4800780228B7
:101950000CD04D480088864208D1207900F0020062
:1019600002280CD100204549087008E0022706E053
:10197000042704E015B94248008800B1032707B1E5
:101980001E27EFBBB8F1020F61DD022001F084F9E0
:1019900004466588268805F00100002801DD17202F
:1019A00023E706F00100002801DD17201DE7A079DC
:1019B00000F0010010B10DB9042746E0A07900F055
:1019C0000100A8B331480088854237D12F480088EC
:1019D00078B3442D32DC207900F00C0004282BD1A0
:1019E00028480078022805D1B6F5805F02DBB6F5FD
:1019F000005F09DB2348007802281BD0244800E060
:101A000025E00088864215D1207900F0400018B109
:101A100001202049087002E000201E49087020794A
:101A200000F00200022810D10020144908700CE0D8
:101A300006E003E0022708E0042706E0032704E0AD
:101A400015B91248008800B1032707B11D2787B9CF
:101A5000C1460AE0484601F01FF90446E0880E49F5
:101A6000088009F1010000F0FF090C480078814569
:101A7000F0DB3846B9E600003008002021080020DD
:101A80002A08002032080020380800202C080020F6
:101A900036080020030800203E0800202E08002001
:101AA0000246022940D003DC39B101296ED106E09B
:101AB000032952D0222969D125E00020704741F640
:101AC000324082420BD133480088002807DD32487B
:101AD000007B00F00200002801DD0020EEE741F667
:101AE000334082420ED12D48007B00F002000028D6
:101AF00008DD2848008828B929480088002801DD29
:101B00000020DBE742E041F6334082420BD123481C
:101B1000007B00F00200002805DD1E480088002838
:101B200001DD0020CAE731E041F63240824207D1B0
:101B30001948007B00F00400002801DD0020BDE70B
:101B400041F63340824207D11448007B00F0040084
:101B5000002801DD0020B1E718E041F63240824262
:101B600007D10D48007B00F00800002801DD0020AF
:101B7000A4E741F63340824207D10848007B00F0D9
:101B80000800002801DD002098E700BF00BF1220F8
:101B900094E700002C080020300E0020740E002076
:101BA0002A08002010B50446208970B1B4F88C00D2
:101BB000082803D0B4F88C00092806D1B4F88000B6
:101BC00020F48051A4F8801005E0B4F8800040F4BF
:101BD0008051A4F880102089A0F5C0405A3830B157
:101BE000012844D002284DD0042861D155E0B4F832
:101BF000820083B2B4F98200042817DDB4F98200B0
:101C0000092813DAB4F88200052800D10123B4F8BA
:101C10008200062800D10223B4F88200072800D1F0
:101C20000323B4F88200082800D10423214618B207
:101C300000F0E8FCD0B100202081B4F98200002837
:101C400006DDB4F98200052802DA0220E0800DE00A
:101C5000B4F98200042809DDB4F98200092805DA04
:101C6000B4F8800040F48061A4F8801027E0B4F953
:101C70008400214600F0C6FC18B100202081042019
:101C8000E0801CE0B4F98600214600F0BBFC18B1EE
:101C9000002020810820E08011E0B4F9880021466E
:101CA00000F0B0FC18B1002020818020E08006E028
:101CB000B4F8800040F48051A4F8801000BF00BF49
:101CC0000848007868B1A06958B194F88A10491E94
:101CD000D4F8B800C84000F0010010B1204600F070
:101CE00039F810BD0408002070B5002400BF28E0BA
:101CF00004EB4400144901EB8010D0F8BC00C8B1DB
:101D000004EB440001EB8010D0F8BC5003E02889BC
:101D1000FFF7C2FC283528894FF6FF718842F6D1BB
:101D200004EB4401084A02EB8111D1F8BC0006F033
:101D3000EFFE00BF00200549088005490880601CAF
:101D4000C4B2022CD4DB70BD480A00202C0800204D
:101D50002A08002070B52DED088B044694ED060A84
:101D6000B8EE400ADFED480A20EE200AB0EE408AC5
:101D7000002518EE100AFEF7C8FB41EC1A0B94215F
:101D80000859FEF792FB41EC1B0B53EC1A2BFEF7A4
:101D90001AFB41EC190B94ED041BB0EE410AF0EE76
:101DA000610A53EC102BFEF767FAC4E9040194EDC5
:101DB000041BB0EE410AF0EE610A51EC100BFEF785
:101DC00085FB902108512079002854D0A078002864
:101DD00051D0E07800284ED0607800284BD1902078
:101DE0000059D4F8A810814205DC90200159D4F89C
:101DF0009C00814239DD90200059D4F8A410814222
:101E000005DB90200159D4F89C0081422DDAB4F80A
:101E1000800020F40061A4F88010B4F98C00082838
:101E200002D009281FD116E0B5EEC08AF1EE10FAF3
:101E30000FD090200059D4F89C10081A00EE100A18
:101E4000B8EEC00AC0EE080ABDEEE00A10EE105A65
:101E500000E0002508E0E088102802D1D4F8B45052
:101E600000E0002500E000BF05E0B4F8800040F489
:101E70000061A4F8801094200551B4F88A10A4F8E9
:101E80008C10BDEC088B70BD27288F3A2DE9F041EE
:101E90000027002400254FF400664FF0100800BF13
:101EA00072E204EB4401F84A02EB8110C021FEF714
:101EB000D1F9002004EB4401F34A02EB81110870D0
:101EC000012004EB440102EB8111487004EB440152
:101ED00002EB81118870002004EB440102EB8111B8
:101EE000C87004EB440102EB81110871012004EB7E
:101EF000440102EB8111487104EB440102EB8111B2
:101F0000C880002004EB440102EB811108819FEDA1
:101F1000DF0B04EB4400114601EB801080ED040B55
:101F2000002004EB440102EB8111886104EB4401C1
:101F300002EB811101F11C00A022D649FEF771F9D4
:101F4000002514E004EB4400CF4901EB8010203061
:101F500050F82500310404FB010104EB4400CA4A97
:101F600002EB8010203040F82510681C85B204EB8D
:101F70004400C54901EB8010808BA842E2DC0025BB
:101F800014E004EB4400C04901EB8010383050F8F5
:101F90002500310404FB010104EB4400BA4A02EBC2
:101FA0008010383040F82510681C85B204EB4400DE
:101FB000B54901EB8010808EA842E2DC002514E0D8
:101FC00004EB4400B04901EB8010443050F8250088
:101FD000310404FB010104EB4400AB4A02EB801026
:101FE000443040F82510681C85B204EB4400A64933
:101FF00001EB8010B0F84000A842E1DC002514E0BD
:1020000004EB4400A04901EB8010503050F825004B
:10201000310404FB010104EB44009B4A02EB8010F5
:10202000503040F82510681C85B204EB44009649F6
:1020300001EB8010B0F84C00A842E1DC002514E070
:1020400004EB4400904901EB8010683050F8250003
:10205000310404FB010104EB44008B4A02EB8010C5
:10206000683040F82510681C85B204EB44008649AE
:1020700001EB8010B0F86400A842E1DC002514E018
:1020800004EB4400804901EB8010743050F82500C7
:10209000310404FB010104EB44007B4A02EB801095
:1020A000743040F82510681C85B204EB4400764972
:1020B00001EB8010B0F87000A842E1DC4FF47A70B8
:1020C00006F070FD04EB44016F4A02EB8111C1F888
:1020D000BC0004EB440102EB81114FF47A72D1F899
:1020E000BC006D49FEF79DF804EB4401664A02EB23
:1020F0008111D1F8BC003FE10121038946F25E0C59
:10210000A3EB0C02634572D028DC46F23F0CA3EB34
:102110000C02634575D014DCB3F5D05F57D009DCF1
:10212000B3F5B05F3BD06FF4B0521A44AAB3012AA2
:102130006FD144E06FF4D0521A447AB3012AF7D138
:1021400057E01B2A7BD004DC012A63D0022AEFD19E
:1021500068E01C2A7BD01D2AEAD184E01C2A6BD0BF
:102160000CDC062A69D004DC022A67D0032ADFD1FE
:102170009CE00E2A73D0192ADAD1AFE0642A6FD01E
:1021800004DC1F2A6DD0272AD2D1BFE0A12A69D052
:10219000A2F2A442002ACBD1D0E008E01FE004EB79
:1021A0004402394B03EB82121C328261D0E004EB13
:1021B0004402354B03EB821234328261C8E004EBF7
:1021C0004402314B03EB821240328261C0E004EBE7
:1021D00044022D4B03EB82124C328261B8E004EBD7
:1021E0004402294B03EB821264328261B0E042E088
:1021F00007E004EB4402244B03EB8212703282614D
:10220000A6E004EB4402204B03EB82127C32826195
:102210009EE09BE004EB44021B4B03EB82127E32F8
:10222000826195E004EB4402174B03EB821280328B
:1022300082618DE003E00AE058E03FE02EE004EB2D
:102240004402114B03EB82128232826180E004EB84
:1022500044020D4B03EB82128432826178E035E058
:102260005CE04BE062E004EB4402074B03EB8212BC
:10227000863282616CE004EB4402034B03EB821272
:102280008832826164E00000480A002000000000FB
:10229000000000005C0200201404002004EB440253
:1022A0003C4B03EB82128A32826151E004EB440220
:1022B000384B03EB82128C32826149E004EB44021A
:1022C000344B03EB82129032826141E004EB440212
:1022D000304B03EB82129432826139E004EB44020A
:1022E0002C4B03EB82129832826131E004EB440202
:1022F000284B03EB82129C32826129E004EB4402FA
:10230000244B03EB8212A032826121E004EB4402F1
:10231000204B03EB8212AC32826119E004EB4402E1
:102320001C4B03EB8212B032826111E004EB4402D9
:10233000184B03EB8212B432826109E004EB4402D1
:10234000144B03EB8212B832826101E0002100BF1E
:1023500000BF0289B2F5A05F08DB0289B2F5E05F39
:1023600004DA028904FB0822028103E0028904FBEB
:1023700006220281283000BF01894FF6FF72914288
:102380007FF4BAAE601C84B2022CFFF68AAD3846E8
:10239000BDE8F081480A002030B50022002100236A
:1023A00000BF25E103EB4304944D05EB841424782E
:1023B00004B91BE103EB4304904D05EB8410B0F826
:1023C0008020B0F87E1040F26F24A243048904B14B
:1023D00030BDC488042C05DA894C2478082C01D13E
:1023E0000424C480C488102C55D008DC012C0DD0E6
:1023F000022C16D0042C1DD0082C6ED131E0202CDC
:1024000077D0402C6BD0802CF7D193E000BF7C4C70
:102410002478082C02D10224C48001E00124C48065
:1024200095E042F0200201F08704062C01D104243B
:10243000C4808CE042F0210201F08604022C02D01C
:1024400001F0820414B90224C48009E001F0C70439
:10245000072C03D001F08F040F2C01D10824C48075
:1024600075E042F0230201F08704062C02D1042417
:10247000C4800FE001F08604022C02D001F0820437
:1024800014B90224C48005E001F08F040F2C01D19F
:102490001024C4805BE042F0270201F08F04072C77
:1024A00009D1B0F886401CB146F25C0404818FE784
:1024B0000824C4801CE001F08604022C02D12024F0
:1024C000C48015E001F08704062C0CD1B0F88440DC
:1024D00034B146F25B0404817AE734E009E01DE0A0
:1024E0000424C48004E001F082040CB90224C480F6
:1024F0002DE042F00702B0F882404CB190F88040E5
:1025000004F06F04072C03D046F25A0404815FE7FD
:1025100001F082040CB90224C48018E042F00F02DA
:10252000B0F888401CB146F25E04048150E7802474
:10253000C4800CE042F0080201F08004802C01D13C
:102540000224C48003E000220124C48000BF00BF35
:10255000C488102C22D008DC012C0DD0022C0CD009
:10256000042C0BD0082C2BD110E0202C17D0402CA1
:1025700016D0802C24D11BE000BF00BF0124447082
:102580000024C47004710124447121E001244470CA
:10259000C470002404710124447119E000BF00BF1D
:1025A000002444700124C4700471002444710FE0BD
:1025B000012444700024C47004710124447107E0B4
:1025C000012444700024C47004710124447100BFCC
:1025D00000BFC478012C02D142F0100201E022F0C9
:1025E000100242F40075A0F8805000BF5C1CA3B23A
:1025F000022BFFF6D7AE00BFEAE60000480A002033
:10260000320800200246012A06D0022A06D0032AF8
:1026100006D0042A08D105E0012070470120FCE71C
:102620000120FAE70120F8E700BF00BF0020F4E72F
:1026300033480078002862D032480088002809DD3D
:10264000314800882F490988884203DB00202F4940
:1026500008700DE02C4800882A490988884204DA6D
:1026600029480088401C2849088001202749087013
:102670002648007890B12648008800280EDD2548BD
:10268000008823490988884205DA22480088401CCE
:102690002049088002E000201C4908701B4800788F
:1026A00038B31D48008D1D49098988420EDA012082
:1026B0001B4908701B48B0F9000000281FDD1A48AC
:1026C0000088401C00B21849088018E014480078BF
:1026D000A8B100201249087001200F4981F840007C
:1026E0001048B0F90000002809DD00200E490880DC
:1026F00005E00B48007810B10020094908707047C8
:1027000004080020160800201408002008080020F3
:102710001A08002018080020300E0020740800203D
:102720000E0800201008002012080020704738B55D
:1027300004464FF480700090E00000F60605022287
:102740002946684601F001FF00BF0222294668467B
:1027500001F093FEBDF8000000F480700028F4D072
:1027600038BD000010B50348007808B1FEF7E6FA5E
:1027700010BD00000108002010B50C48406820B9C9
:102780000B480088401C0A4908800A48007850B16C
:102790000948B0F90000002805DD07480088401E00
:1027A00000B205490880FFF743FF10BD300E00203E
:1027B00018020020270800200608002038B5002055
:1027C000009002220421684601F057FEBDF8000087
:1027D0000090BDF80000000A294908700222062175
:1027E000684601F04AFEBDF800000090BDF8000008
:1027F00040F6FF7101EB80202249088005F09CFD26
:10280000002404E02046FFF792FF601CC4B21C487D
:1028100000788442F6DB02F015F900201A490870AE
:102820001A4908701A4908701A4908701A4908703C
:102830001A4908701A4908801A4908801A490880FC
:102840001A4908801A4908801A4908701A490870FC
:102850001A4908801A4908801A4908801A490880CC
:1028600001201A49087000211848007804F022FE5F
:1028700000201749088017490870FEF731FE38BD5F
:102880002E080020300800202608002027080020FD
:102890000208002000080020010800200308002092
:1028A0003408002014080020160800201808002012
:1028B0001A08002004080020220800202408002014
:1028C0003A0800202C0800202A08002032080020A6
:1028D00028080020200800201CB5002001900120BD
:1028E000009002F025FA4D48007840B1022240F6EF
:1028F0000E01684601F0C1FDBDF80000009001F036
:102900008DFE044600BF04F0010098B144480078F1
:1029100080B902224FF4907101A801F0AEFDBDF81C
:102920000400019024F01104BDF80410C8B2002185
:10293000FDF7CAFE04F01000B0B13948007898B92C
:102940003848007800F0100070B93648007820F060
:102950001000012808D024F010043249097801F051
:102960000F000021FDF7B0FE2D48007808B1FEF7FA
:10297000D7F82A48007800284FD0BDF8000000F0B2
:10298000010030B92749097801F00F000021FDF757
:102990009BFE04F4007060B10020234908800222ED
:1029A00022480188204801F0D0FD24F4007402F090
:1029B000AFF8BDF8000000F0020010B11C4800782C
:1029C00038B1BDF8000000F00200D8B9184800780E
:1029D000C0B102F0F1F81648007828B1BDF8000047
:1029E00040F40070009004E0BDF8000020F4007096
:1029F0000090BDF800000090022240F60E016846EB
:102A000001F0A3FD01F00AFE044600BF04F480704B
:102A100018B124F4807401F017FF1CBD4E0800208B
:102A200027080020320800203C080020560800201B
:102A30004F08002000B587B000BF0020019010486B
:102A4000006840F010000E4908600846006800F079
:102A50001000019000BF00BF4FF4005002904FF4EF
:102A6000041003900120049002A9064800F066F9C2
:102A700001221146282000F0DBFA07B000BD00005B
:102A8000303802400010024000B587B000BF00207F
:102A900001901048006840F010000E490860084698
:102AA000006800F01000019000BF00BF4FF48040AC
:102AB00002904FF4041003900120049002A90648EC
:102AC00000F03CF901221146282000F0B1FA07B0CD
:102AD00000BD0000303802400010024010B54FF435
:102AE000804000F01DF94FF4005000F019F910BDBE
:102AF00000B587B000BF002001900F48006840F08B
:102B000008000D4908600846006800F008000190C0
:102B100000BF00BF102002904FF40410039001206A
:102B2000049002A9054800F009F9002211460A2084
:102B300000F07EFA07B000BD30380240000C0240C1
:102B400010B5102000F0ECF810BD38B50446002098
:102B50000090E00000F6060502222946684601F0D2
:102B6000F4FC00BF02222946684601F086FCBDF84D
:102B7000000000F480700028F4D138BD00B587B0A3
:102B800000BF002001902748006840F0010025495F
:102B900008600846006800F00100019000BF00BF17
:102BA00000BF002001900846006840F04000086027
:102BB0000846006800F04000019000BF00BF00BF61
:102BC000002001900846006840F0020008600846B6
:102BD000006800F00200019000BF00BF09200290D1
:102BE000012003900220059002A90F4800F0A6F8EA
:102BF0004FF4154002900020039001200490022021
:102C0000059002A9094800F099F8C020029001201F
:102C100003900220059002A9054800F08FF807B044
:102C200000BD0000303802400000024000180240A1
:102C30000004024010B572B600224FF4006108484B
:102C400000F076F902224FF40871064801F04AFCC0
:102C50000122D102024800F06BF962B610BD0000FB
:102C6000000C02401000002010B501460A884B8875
:102C70009A420ED00A8801F1080353F82200531C2F
:102C80009AB20A800B888C88A34201D100230B8062
:102C900000E0002010BD000010B504464FF40060B5
:102CA00000EBC4010822024801F0E7FB004810BD18
:102CB0004008002070B5044600F040F9064625465D
:102CC000681C10B104480078054400BF00F036F9D4
:102CD000801BA842FAD370BD0800002010B504463E
:102CE000102C05D103F0D2F810200C49086010BD5B
:102CF000B4F5005F06D105F031F84FF400500749F4
:102D00000860F4E7B4F5804F06D104F08FFF4FF46C
:102D1000804002490860EAE700BFE8E7143C014050
:102D200010B5044604480068204020B10248046001
:102D30002046FFF7D3FF10BD143C0140F8B5024612
:102D40000B460025002400200021D6E0012606FACB
:102D500001F51E6806EA0504AC4274D11E7906F03E
:102D60000306012E04D01E7906F00306022E13D1AD
:102D700090684F000326BE40B0434F00DE68BE405F
:102D800030439060506801268E40B0431E79C6F3F0
:102D900000168E40304350601E7906F00306032E65
:102DA00009D0D0684F000326BE40B0434F009E6854
:102DB000BE403043D0601E7906F00306022E13D1C8
:102DC000CF0802F1200656F827004E07F70E0F260F
:102DD000BE40B0434F07FF0E1E69BE403043CF08D0
:102DE00002F1200646F8270010684F000326BE4077
:102DF000B0431E7906F003064F00BE40304310601A
:102E00005E6806F44036002E76D000BF002600969D
:102E10003C4E366846F480463A4F3E603E46366841
:102E200006F48046009600BF00BF374E8F0856F864
:102E300027008E07370F0F26BE40B043334EB242F5
:102E400002D1002624E057E0314EB24201D10126E2
:102E50001EE0304EB24201D1022619E02E4EB2429F
:102E600001D1032614E02D4EB24201D104260FE019
:102E70002B4EB24201D105260AE02A4EB24201D1C0
:102E8000062605E0284EB24201D1072600E00826BA
:102E90008F073F0FBE4030431B4E8F0846F8270078
:102EA000224E3068A0435E6806F4801606B12043C7
:102EB0001E4E3060361D3068A0435E6806F4001672
:102EC00006B12043194E361D3060184E361F30684B
:102ED000A0435E6806F4003606B12043134E361F49
:102EE0003060361F3068A0435E6806F4803606B155
:102EF00020430E4E083E3060491C1029FFF426AFD7
:102F0000F8BD00004438024008380140000002408B
:102F10000004024000080240000C02400010024081
:102F20000014024000180240001C0240083C01400E
:102F30000AB1816101E00B048361704701480068B8
:102F4000704700000000002003480068034909782A
:102F50000844014908607047000000200800002074
:102F600010B50D48006840F400700B490860084631
:102F7000006840F4806008600846006840F4807093
:102F80000860032000F092F80F2000F007F800F02E
:102F90002BF8002010BD0000003C024070B5044634
:102FA0000E4800784FF47A71B1FBF0F00C490968D3
:102FB000B1FBF0F5284600F0E4FF08B1012070BD38
:102FC000102C07D200222146501E00F031F805488F
:102FD000046001E00120F2E70020F0E70800002093
:102FE0000C0000200400002008B500BF0020009065
:102FF0000E48006840F480400C49086008460068AC
:1030000000F48040009000BF00BF00BF002000908F
:10301000081F006840F08050091F086008460068DB
:1030200000F08050009000BF00BF08BD443802404F
:103030002DE9F05F80460D461646002705F0FCFAA4
:10304000074639462A46334601F00700C0F1070A11
:10305000BAF1040F02D94FF0040A01E0C0F1070AE7
:10306000D14600F1040ABAF1070F02D24FF0000A6C
:1030700001E0A0F1030AD4464FF0010A0AFA09FA66
:10308000AAF1010A0AEA020A0AFA0CFA4FF0010B45
:103090000BFA0CFBABF1010B0BEA030B4AEA0B0436
:1030A0002146404605F0D0FABDE8F09F00BF00F091
:1030B0000702064B19684FF6FF031940044B0B43F8
:1030C00043EA0221014B196000BF70470CED00E09C
:1030D0000000FA057047000070B504460D460CB9B3
:1030E000012070BD5848006800F00700A84209D2CE
:1030F00055490D700846006800F00700A84201D04D
:103100000120EEE7207800F0020002281DD120788F
:1031100000F00400042805D14C48006840F4E05059
:103120004A490860207800F00800082805D147487F
:10313000006840F46040454908604448006820F059
:10314000F000A168084341490860207800F00100C0
:10315000A8B36068012807D13C4808380068C0F36C
:103160004040B8B90120BCE76068022802D060681E
:10317000032807D1354808380068C0F3406048B9D3
:103180000120AEE7314808380068C0F3400008B9B4
:103190000120A6E72D48006820F00300616808437D
:1031A0002A490860FFF7CAFE064609E0FFF7C6FE97
:1031B000801B41F28831884202D9032091E707E061
:1031C0002248006800F00C006168B0EB810FEDD17F
:1031D0001D48006800F00700A84209D91A490D707F
:1031E0000846006800F00700A84201D0012078E7F7
:1031F000207800F00400042807D11448006820F467
:10320000E050E168084311490860207800F00800A8
:10321000082808D10D48006820F46040216940EA80
:10322000C1000A49086000F045F808490968C1F37F
:103230000311074A515CC840064908600648006807
:10324000FFF7ACFE00204CE7003C0240083802408B
:10325000AC8C00080C000020040000200120014973
:10326000C86470470000474201480068704700008A
:103270000C00002000B5FFF7F7FF04490968C1F30F
:103280008221034A515CC84000BD0000083802405A
:10329000BC8C000800B5FFF7E7FF04490968C1F3DB
:1032A0004231034A515CC84000BD0000083802406A
:1032B000BC8C00082DE9F047002400250026A1461B
:1032C0002548006800F00C0020B1042805D008282B
:1032D0003AD105E0DFF8849039E0DFF8849036E0F9
:1032E0001D48001F006800F03F041B48001F0068D5
:1032F00000F4800078B11A481749091F0968C1F322
:103300008811A0FB01700146224600233846FCF7D5
:1033100057FF05460EE011480F49091F0968C1F320
:103320008811A0FB01700146224600233846FCF7B5
:1033300047FF05460848001F0068C0F30140401CD5
:103340004600B5FBF6F902E0DFF8109000BF00BFC1
:103350004846BDE8F0870000083802400024F40029
:1033600000127A0010B50648006800F0800080283E
:1033700005D1FFF7AFFE80200149891C087010BD00
:103380000C380240F8B504460CB90120F8BD20788D
:1033900000F00100002874D0F948006800F00C002B
:1033A00004280DD0F648006800F00C00082813D15E
:1033B000F348001F006800F48000B0F5800F0BD1C7
:1033C000EF4808380068C0F34040002859D06068D2
:1033D000002856D10120D9E700BF6068B0F5803FD2
:1033E00008D1E7480838006840F48030E4490839DB
:1033F00008601EE06068B0F5A02F0DD1E0480838E5
:10340000006840F48020DE490839086008460068FA
:1034100040F4803008600CE0D9480838006820F497
:103420008030D749083908600846006820F48020B9
:10343000086000BF606890B1FFF780FD054606E0B8
:10344000FFF77CFD401B642801D903209EE7CC4890
:1034500008380068C0F340400028F1D011E0FFF7C1
:103460006DFD054606E0FFF769FD401B642801D9A4
:1034700003208BE7C24808380068C0F340400028AA
:10348000F1D1207800F0020002285FD1BC4800682A
:1034900000F00C0058B1BA48006800F00C00082891
:1034A0001CD1B748001F006800F48000B0B9B448D0
:1034B00008380068C0F3400020B1E068012801D05E
:1034C000012063E7AE480838006820F0F800216961
:1034D00040EAC100AA490839086037E0E06800B353
:1034E0000120A8490860FFF729FD054606E0FFF71F
:1034F00025FD401B022801D9032047E7A0480838D2
:103500000068C0F340000028F1D09D4808380068EA
:1035100020F0F800216940EAC100994908390860A3
:1035200014E0002097490860FFF708FD054606E013
:10353000FFF704FD401B022801D9032026E790482D
:1035400008380068C0F340000028F1D1207800F06E
:10355000080008282CD16069A8B101208A490860B8
:10356000FFF7ECFC054606E0FFF7E8FC401B0228ED
:1035700001D903200AE782486C300068C0F340009C
:103580000028F1D014E000207F490860FFF7D6FC46
:10359000054606E0FFF7D2FC401B022801D90320B4
:1035A000F4E677486C300068C0F340000028F1D1A1
:1035B000207800F00400042870D1002770483830CB
:1035C000006800F0805090B900BF002000906C4867
:1035D0003830006840F0805069493831086008464A
:1035E000006800F08050009000BF00BF01276748CE
:1035F000006800F48070B0B96448006840F48070DE
:1036000062490860FFF79AFC054606E0FFF796FC62
:10361000401B022801D90320B8E65C48006800F48A
:1036200080700028F2D000BFA068012808D154485B
:103630006830006840F001005149683108601DE0C1
:10364000A06805280DD14E486830006840F004009D
:103650004B49683108600846006840F00100086086
:103660000CE047486830006820F0010044496831A8
:1036700008600846006820F00400086000BFA068E9
:10368000A8B1FFF75BFC054609E0FFF757FC401BBC
:1036900041F28831884202D9032077E626E0384893
:1036A00068300068C0F340000028EED013E0FFF758
:1036B00045FC054608E0FFF741FC401B41F288311C
:1036C000884201D9032061E62D4868300068C0F3C4
:1036D00040000028EFD1012F07D129483830006879
:1036E00020F0805026493831086000BFA0690028CA
:1036F00045D02348006800F00C0008285DD0A06980
:10370000022845D100201F490866FFF717FC05462F
:1037100006E0FFF713FC401B022801D9032035E621
:10372000174808380068C0F340600028F1D1D4E998
:1037300007010843616A40EA81110122A06AC2EBD5
:10374000500041EA00412C20005D41EA00600C4934
:10375000091F086001200B490866FFF7EFFB0546CB
:1037600006E0FFF7EBFB401B022801D903200DE622
:10377000034808380068C0F340600028F1D049E0F1
:103780000838024000004742800E47420070004067
:10379000002021490866FFF7D1FB054606E0FFF748
:1037A000CDFB401B022801D90320EFE51B48006830
:1037B000C0F340600028F2D12CE0A069012800D1BC
:1037C000E4E51648001D0668A069012820D006F42B
:1037D0008001E06981421BD106F03F01206A8142ED
:1037E00016D147F6C0703040616AB0EB811F0FD12F
:1037F00006F440310122A06AC2EB5000B1EB004F49
:1038000006D106F070612C20005DB1EB006F01D095
:103810000120BBE50020B9E5000047420038024026
:1038200010B504460CB9012010BD606A38B9606853
:10383000B0F5827F00D105E00021E16102E00021C6
:10384000216161610021A16294F8510028B9002032
:1038500084F85000204600F047F8022084F8510018
:103860002068006820F0400021680860A08800F40B
:103870008270218901F404410843A18901F40061A7
:103880000843217C01F002010843217D01F0010180
:103890000843218B01F400710843217F01F03801B6
:1038A00008432021095D01F080010843218D01F4C6
:1038B00000510843216808600421A06901EA104012
:1038C00094F8241001F01001084321684860206832
:1038D000C06920F400602168C86100206065012093
:1038E00084F8510000209FE710B586B00446444993
:1038F000206888427ED100BF0020009041480068C7
:1039000040F400403F4908600846006800F4004069
:10391000009000BF00BF00BF002000903948103861
:10392000006840F004003749103908600846006814
:1039300000F00400009000BF00BF00BF0020009016
:103940000846006840F0040008600846006800F07F
:103950000400009000BF00BF00BF00200090084698
:10396000006840F0040008600846006800F00400A9
:10397000009000BF00BF00BF002000900846006814
:1039800040F0080008600846006800F00800009059
:1039900000BF00BF0815019002200290062005908C
:1039A00001A91948FFF7CAF94FF4006001900220FD
:1039B0000290012003900620059001A91248FFF70C
:1039C000BDF94FF48050019002200290062005902E
:1039D00001A90D48FFF7B2F90122D1020B48FFF708
:1039E000A7FA4FF400600190012002900320049098
:1039F00001A900E002E00548FFF7A0F906B010BDFC
:103A0000003C00404038024000080240000C0240E8
:103A10002DE9F8430446884616461D464FF0000936
:103A20006068B0F5827F0DD1A06858B9042084F891
:103A300051003346424641462046009500F077F952
:103A4000BDE8F88300BF94F85000012801D102209E
:103A5000F6E7012084F8500000BFFFF76FFA074631
:103A600094F85100012802D04FF002097EE0B8F12D
:103A7000000F00D016B94FF0010977E0042084F858
:103A8000510000206065C4F83880A687E68720636F
:103A9000A086E08620646064A068B0F5004F0BD17A
:103AA0002068006820F040002168086020680068F5
:103AB00020F48040216808602068006800F0400021
:103AC000402805D02068006840F040002168086068
:103AD000E068F8B91AE02068806800F0010050B191
:103AE0002068007BA16B0870A06B401CA063E08F76
:103AF000401EE0870AE0FFF721FAC01BA84201D36D
:103B0000681C00B915B94FF003092FE0E08F0028B9
:103B1000E1D11EE01AE02068806800F0010050B199
:103B20002068C068A16B0880A06B801CA063E08F38
:103B3000401EE0870AE0FFF701FAC01BA84201D34C
:103B4000681C00B915B94FF003090FE0E08F002899
:103B5000E1D13A462946204603F014F908B1202065
:103B60006065606D08B14FF0010900BF012084F865
:103B7000510000BF002084F8500000BF48465FE7B6
:103B80002DE9F84F0446884616461D464FF0000AB8
:103B900000BF94F85000012802D10220BDE8F88F40
:103BA000012084F8500000BFFFF7C8F90746B1466E
:103BB00094F85100012802D04FF0020AADE0B8F1AC
:103BC000000F00D016B94FF0010AA6E0032084F8D8
:103BD000510000206065C4F83080A686E686A063A8
:103BE000A087E08760642064A068B0F5004F0BD127
:103BF0002068006820F040002168086020680068A4
:103C000040F48040216808602068006800F04000AF
:103C1000402805D02068006840F040002168086016
:103C2000E068B0F5006F2FD1606810B1B9F1010FF5
:103C300009D1206B00882168C860206B801C20633C
:103C4000E08E401EE0861BE02068806800F00200E5
:103C500002280AD1206B00882168C860206B801C74
:103C60002063E08E401EE0860AE0FFF767F9C01B84
:103C7000A84201D3681C00B915B94FF0030A4CE003
:103C8000E08E0028E0D12EE0606810B1B9F1010F9C
:103C900009D1206B007821680873206B401C2063D9
:103CA000E08E401EE0861BE02068806800F0020085
:103CB00002280AD1206B007821680873206B401C11
:103CC0002063E08E401EE0860AE0FFF737F9C01B54
:103CD000A84201D3681C00B915B94FF0030A1CE0D3
:103CE000E08E0028E0D13A462946204603F094F8B9
:103CF00008B120206065A06850B900BF0020009086
:103D00002068C068009020688068009000BF00BFF5
:103D1000606D08B14FF0010A00BF012084F8510026
:103D200000BF002084F8500000BF504636E72DE960
:103D3000FF5F0446884691461D460E9E0120029074
:103D40000020019000BF94F85000012803D1022008
:103D500004B0BDE8F09F012084F8500000BFFFF7D9
:103D6000EDF8074694F851B060680390AA46BBF19D
:103D7000010F0BD00398B0F5827F04D1A06810B971
:103D8000BBF1040F02D002200190DBE0B8F1000F7C
:103D900003D0B9F1000F00D015B901200190D1E096
:103DA00094F85100042802D0052084F85100002026
:103DB0006065C4F83890E587A587C4F83080E5864B
:103DC000A586206460642068006800F040004028F8
:103DD00005D02068006840F0400021680860E06875
:103DE000B0F5006F4AD1606810B1BAF1010F09D186
:103DF000206B00882168C860206B801C2063E08EE7
:103E0000401EE08633E02068806800F0020002284F
:103E100010D1E08E70B1029801280BD1206B008880
:103E20002168C860206B801C2063E08E401EE08605
:103E3000002002902068806800F0010068B1E08FE7
:103E400058B12068C068A16B0880A06B801CA0637B
:103E5000E08F401EE08701200290FFF76FF8C01B43
:103E6000B04204D3701C10B1032001906AE0E08ED0
:103E70000028C8D1E08F0028C5D14AE0606810B1A1
:103E8000BAF1010F09D1206B007821680873206B0B
:103E9000401C2063E08E401EE08634E0206880688D
:103EA00000F00200022810D1E08E70B102980128C3
:103EB0000BD1206B007821680873206B401C2063B5
:103EC000E08E401EE086002002902068806800F0AE
:103ED000010068B1E08F58B12068C068A16B08701C
:103EE000A06B401CA063E08F401EE0870120029081
:103EF000FFF724F8C01BB04201D3701C00B916B9FB
:103F0000032001901EE0E08E0028C7D1E08F00283A
:103F1000C4D13A463146204602F07EFF20B101204E
:103F20000190202060650DE0A06850B900BF00201E
:103F300000902068C068009020688068009000BFF2
:103F400000BF00BF012084F8510000BF002084F8AA
:103F5000500000BF0198FBE6042808D14FF0E02193
:103F6000096941F004014FF0E022116107E04FF0D0
:103F7000E021096921F004014FF0E022116170474E
:103F8000704770B504462546681EB0F1807F01D3A6
:103F900001200FE0681E4FF0E02148610F214FF033
:103FA000FF3004F051FB00204FF0E0218861072032
:103FB0000861002070BD10B5FFF7E2FF10BD0000E2
:103FC00030B502460B4600BF92F83C00012801D1F3
:103FD000022030BD012082F83C0000BF022082F8A0
:103FE0003D00106844681068816824F07004186807
:103FF000044310684460184D1068A8421BD0106834
:10400000B0F1804F17D0154D1068A84213D0144D51
:104010001068A8420FD0134D1068A8420BD0124D63
:104020001068A84207D0114D1068A84203D0104D67
:104030001068A84205D121F080015868014310683A
:104040008160012082F83D0000BF002082F83C0022
:1040500000BF00BFBDE700000000014000040040B9
:1040600000080040000C00400004014000400140F6
:104070000018004010B504460CB9012010BD94F89A
:104080003D0028B9002084F83C00204600F026F8C6
:10409000022084F83D00211D206803F019FF012053
:1040A00084F8460000BF84F83E0001213F200155FE
:1040B000402001554120015500BF00BF012084F878
:1040C000420043200155442001554520015500BFC1
:1040D000012084F83D000020D0E7000038B50446F8
:1040E0002068B0F1804F14D100BF00200090094833
:1040F000006840F00100074908600846006800F0C9
:104100000100009000BF00BF012200211C20FEF72B
:104110008FFF38BD40380240014691F83D0001282C
:1041200001D001207047022081F83D000868C06876
:1041300040F001000B68D8601A4B086898421BD009
:104140000868B0F1804F17D0174B0868984213D019
:10415000164B086898420FD0154B086898420BD050
:10416000144B0868984207D0134B0868984203D054
:10417000124B086898420CD10868806800F007026A
:10418000062A0CD00868006840F001000B6818602F
:1041900005E00868006840F001000B681860002026
:1041A000C0E700000000014000040040000800409B
:1041B000000C004000040140004001400018004095
:1041C0002DE9F04104460D46002700BF94F83C005D
:1041D000012802D10220BDE8F081012084F83C00D2
:1041E00000BF022084F83D002068866826F077062C
:1041F00026F47F46206886602868502833D00CDC7F
:10420000202850D004DC00284BD0102851D149E0A0
:10421000302849D040284CD139E060282DD0702872
:1042200007D0B0F5805F03D0B0F5005F41D10DE05D
:1042300041E0D5E902136A68206803F0E1FE2068D6
:10424000866846F077062068866034E0D5E9021378
:104250006A68206803F0D4FE2068806840F48040DB
:104260002168886027E0EA686968206803F0DCFE5E
:104270005021206803F0CFFE1DE0EA6869682068DD
:1042800003F0E5FE6021206803F0C5FE13E0EA6854
:104290006968206803F0C8FE4021206803F0BBFE77
:1042A00009E000BF00BF00BF2968206803F0B3FE2B
:1042B00001E0012700BF00BF012084F83D0000BFDE
:1042C000002084F83C0000BF384684E710B504465F
:1042D0000CB9012010BDA06900B100E000BF94F846
:1042E0003D0028B9002084F83C00204600F028F862
:1042F000242084F83D002068C06820F40050216824
:10430000C860204603F0B8FE2068006920F49040A1
:10431000216808612068406920F02A00216848610E
:104320002068C06840F400502168C8600020206404
:10433000202084F83D0084F83E000020CAE70000F9
:1043400010B586B0044615492068884223D100BFC5
:10435000002000901248006840F4003010490860C6
:104360000846006800F40030009000BF00BF202025
:104370000190022002900120039003200490072066
:10438000059001A90748FEF7D9FC4020019001A93A
:104390000448FEF7D3FC06B010BD00000044004006
:1043A00040380240000C02402DE9F84F04460E460A
:1043B000174699464FF0000A94F83D0020285AD13C
:1043C00006B117B90120BDE8F88F00BF94F83C0092
:1043D000012801D10220F6E7012084F83C0000BF4B
:1043E00000202064212084F83D00FEF7A7FD8246CE
:1043F000A784E784A068B0F5805F04D1206910B974
:104400000025B04602E035464FF0000800BF00200E
:1044100084F83C0000BF1BE0534600228021204668
:10442000CDF8009003F03EFF08B10320CBE745B97B
:10443000B8F80000C0F308002168486008F10208DD
:1044400003E02878216848606D1CE08C401EE08401
:10445000E08C0028E0D15346002240212046CDF8D0
:10446000009003F01FFF08B10320ACE7202084F880
:104470003D000020A7E70220A5E72DE9F04107460F
:104480000D461646B84629E0B5F5805F01DB344697
:1044900018E0042E01DD042000E03046044605F05B
:1044A000010008B101240DE005F0020038B104F06C
:1044B000010008B1012000E00220044602E0032CC4
:1044C00000D1012472B622462946404602F0EFF997
:1044D00062B6301B86B2A044281985B2002ED3DC08
:1044E000BDE8F0812DE9F04107460D461646B84675
:1044F00027E0B5F5805F01DB344618E0042E01DDCE
:10450000042000E03046044605F0010008B1012413
:104510000DE005F0020038B104F0010008B10120FF
:1045200000E00220044602E0032C00D101242246D0
:104530002946404602F0BBF9301B86B2A044281938
:1045400085B2002ED5DCBDE8F0812DE9F0410746AB
:104550000D461646B84629E0B5F5805F01DB3446C6
:1045600018E0042E01DD042000E03046044605F08A
:10457000010008B101240DE005F0020038B104F09B
:10458000010008B1012000E00220044602E0032CF3
:1045900000D1012472B622462946404602F0DFFBD4
:1045A00062B6301B86B2A044281985B2002ED3D142
:1045B000BDE8F0812DE9F04107460D461646B846A4
:1045C00027E0B5F5805F01DB344618E0042E01DDFD
:1045D000042000E03046044605F0010008B1012443
:1045E0000DE005F0020038B104F0010008B101202F
:1045F00000E00220044602E0032C00D10124224600
:104600002946404602F0ABFB301B86B2A044281975
:1046100085B2002ED5D1BDE8F081000010B5FEF7BF
:1046200009FB0148008810BD1000002010B500F003
:10463000D5F80148008810BD1000002038B5FEF7FD
:104640008FFC03F0AFFBFEF799FA00F0ABFC00F033
:104650007FFC2DA003F0A8FF002204212E48FEF7C6
:1046600067FC6420FEF726FB012204212A48FEF79E
:104670005FFC6420FEF71EFB04F0CAFA00BF932023
:10468000009004224FF401716846FFF75EFF00209E
:10469000009004224FF401716846FFF7EEFEBDF86A
:1046A00000009328EBD140F201142146542002F07F
:1046B00063FA012421465C2002F05EFA582002F0E1
:1046C00009F90020009004224FF401716846FFF7B9
:1046D0003CFFFEF70DFA0A2003F094FFFEF7D4F931
:1046E000FEF7A8F9282003F08DFF282003F08AFFA9
:1046F0000A2003F059FC1C2003F084FF62B607A0D7
:1047000003F052FF002038BD457468657243415480
:10471000B2E2CAD40A000000000C0240454E54B276
:10472000E2CAD40A000000007047000030B52248F9
:10473000007800283FD12148007800283BD0002194
:104740001F48808B012800D1012181B100201C4A23
:10475000506090831B4A506090831B4A1080012058
:104760001A4A10708007406A194A106022E0174800
:10477000007801281ED183075A6A00BF144B1B68BA
:10478000D31A144C63434FF4FA6493FBF4F40E4BC6
:104790001B8843F609556B4304EB8310084B5860A4
:1047A000084B58600023084C2380094C2360074CB9
:1047B000237000BF00BF30BD040800202008002087
:1047C000300E0020740E002018020020200200206D
:1047D0001C02002040420F0000BFFEE710B501227E
:1047E000D1020A48FEF7A4FB00224FF400610748FB
:1047F000FEF79EFB02224FF408710548FFF772FE98
:104800000122D1020148FEF793FB10BD000C0240CB
:10481000100000200EB500200090019002900222AE
:1048200040F60261684602F043F99DF800009DF8E9
:10483000011040EA01209DF8021040EA01409DF875
:10484000031040EA01600EBD1CB502223D480188FC
:1048500001A8FFF712FEBDF8040001903A48007865
:1048600001281AD10A2004F09DF90446A4B10020C1
:1048700020606060208104202080A08820F4706087
:10488000A0800120E080072121810021204600F046
:10489000C7F9204604F03CF900BFBDF80400801DB4
:1048A00080B201902948007810B92948007818B1E1
:1048B00001202849087042E0002026490870BDF810
:1048C000040025490988884202DD234800880190B8
:1048D0002148008804F066F920490860084600680D
:1048E00018B901201B4908701CBDBDF804201548EB
:1048F00001881A480068FFF7C0FD002000900222DE
:1049000040F604016846FFF7B8FDBDF800000090CE
:10491000BDF8000000F4006068B100201049088074
:10492000084800880C4A12881044801E81B2022276
:104930000B48FFF7A2FD0948006800F0BBF900BF73
:10494000D2E70000540800206C0800204D08002029
:104950005A0800204C080020520800205C08002063
:104960003C080020F8B504462D48007800F00F0000
:10497000012801D1F020F8BD2A48007808B9F020BC
:10498000F9E72948007808B10720F4E72588A81D31
:1049900082B2264801882046FFF7D7FD002000900C
:1049A000022240F60C016846FFF767FDBDF80000E3
:1049B0000090BDF8000000F40060F8B91C480178D0
:1049C000A81D081AC6B200201A490880022E09DA6A
:1049D000A81D40084700C6F10202E1191548FBF77F
:1049E00020FC00BF11480088114A12881044801E24
:1049F00081B202220F48FFF7A8FD00BF0E480068F1
:104A000018B100200D49086002E00D480B4908600C
:104A1000094804600120044908700020ABE7000049
:104A2000320800204E0800204D08002056080020C3
:104A3000500800203C080020600800205C0800208E
:104A4000C80C002008B52220204908804FF480704F
:104A50001F49088000011F4908801F490880002065
:104A60001E49088048800A20888000201C49088050
:104A700048800A20888000201A4908601A49086086
:104A80001A4908601A4908601A4908700090022201
:104A900040F60E016846FFF7F0FCBDF8000020F478
:104AA00000700090022240F60E016846FFF74DFDAF
:104AB0000020114908701149087011490870114906
:104AC0000870114908701149087008BD520800208B
:104AD000500800205408002056080020FC0D00203B
:104AE000C80D00205C080020640800206008002039
:104AF000680800204F0800204E0800204D080020C4
:104B00004C0800205A0800205808002059080020AE
:104B100010B50020214908702148006848B121489B
:104B2000006830B91E48006803F0F2FF00201C49FD
:104B300008601D4800681A4908601A48006838B1C2
:104B400018480068FFF70EFF00201649086008E0CB
:104B50001648FEF789F8044614B12046FFF702FF15
:104B600000BF13480078C0B11148007800F002007F
:104B700098B100240E48007820F002000C4908701B
:104B80000C480068FCF782FC04462CB10848007809
:104B900040F002000649087000BF10BD4D0800201B
:104BA000640800206808002060080020C80D00206C
:104BB0005A0800205C08002010B514480068D8B1DD
:104BC000124804681248007878B11248006860B949
:104BD0000120FDF7ACFD104800680E490860012077
:104BE000FDF7B3FF00200A4908702046FFF7BAFE20
:104BF00000200649086000BF0848007808B9012075
:104C000000E000200549087010BD00006408002085
:104C10004D08002068080020600800204F08002090
:104C200070B504460D4600261E48007800F00F00BF
:104C3000012801D1F02070BDA08820F47040A08030
:104C40001948007800F0070010B9012016490870D3
:104C5000A0881549097840EA0130A0802046FFF776
:104C600081FE70B11149204601F0C5F9064616B122
:104C700045F080050AE00C480078401C0A4908709D
:104C800004E009480078401C0749087005F08000DE
:104C900030B105F07F0006490978084304490870DF
:104CA0003046C8E73208002059080020C80D00200F
:104CB0005A0800202DE9F04104460026A08805137B
:104CC0002788B7F5807F0EDD04202080A08820F49F
:104CD0007060A0800120E080082121810021204611
:104CE000FFF79EFF1EE01DB10F480078854215D0EA
:104CF0000D4805700D49204601F07DF906468EB13C
:104D000004202080A08820F47060A0800120E08032
:104D1000268100212046FFF783FF03E0204603F0B1
:104D2000F7FE0024BDE8F08158080020FC0D0020AB
:104D300070B5002400BF00250F48FDF795FF04461D
:104D40001CB1204600F04EF9054665B104202080D4
:104D5000A08820F47060A0800120E08025810021DF
:104D60002046FFF75DFF002CE5D10448007808B12C
:104D7000FFF76AFD70BD0000FC0D00204C0800200C
:104D800070B500250020FDF787FF0446608826499E
:104D900008802088254908800120FDF77DFF044612
:104DA0006088234908802088224908801F4800889D
:104DB0001D49098808441F49098888420ADD1D48A1
:104DC00000881B490988084418490988884201DD80
:104DD000162070BD0020FDF7B8FE0120FDF7B5FEDE
:104DE0001148008803F0DEFE134908600846006899
:104DF00080B90120114908700A2003F0D3FE0E4942
:104E000008600846006800B902250B48006803F0F6
:104E10007FFE06E00020094908700748006803F09B
:104E200077FE2846D5E700005208002054080020ED
:104E300050080020560800205C0800206C08002064
:104E400038B5002036490870FDF771FC0120FDF7E8
:104E50006EFC3448006818B13248006803F058FE10
:104E60003148006848B1304800682E4909688842D6
:104E700003D02D48006803F04BFE2C48006878B141
:104E80002A48006827490968884209D027480068ED
:104E900025490968884203D02448006803F038FE99
:104EA000002020490860214908601F490860204906
:104EB00008700090022240F60E016846FFF7DDFA06
:104EC000BDF8000020F400700090022240F60E01B0
:104ED0006846FFF73AFB002016490870164908702B
:104EE00016490870164908701649087000BF164820
:104EF000FDF7BAFE04461CB1204603F009FE00246B
:104F0000002CF4D100BF1148FDF7AEFE04461CB1E1
:104F1000204603F0FDFD0024002CF4D138BD000034
:104F20004E08002064080020680800206008002067
:104F30004F0800204D0800204C0800205A0800208F
:104F40005808002059080020FC0D0020C80D002042
:104F500008B500BF002000900F48006840F008002E
:104F60000D4908600846006800F00800009000BF86
:104F700000BF0A480A4908604FF4E1304860002148
:104F800007488160C16001610C214161002181619C
:104F9000C161FFF79BF908BD303802400044004072
:104FA000D808002010B50D480D4908604FF48270F4
:104FB000486000210A488160C160016141614FF48D
:104FC000007181611021C161002101624162816231
:104FD0000A21C162FEF724FC10BD0000003C004025
:104FE0001C09002070B50546A888C0F303200328DB
:104FF00004D12846FCF772FB044601E0022400BFFE
:1050000000BF204670BD000010B50024FDF7D6FBA0
:10501000FCF7E8FA002005490880054908600549C1
:105020000870012004490870204610BD18020020B5
:105030001C020020200200202102002010B535486B
:10504000007800B910BD3448007818B133480078B2
:10505000002852D13248007800284ED12E480078DE
:10506000C8B9FFF7DBFA044600BF04F4806040B122
:1050700001202A4908702B48007858B100F0A8FF99
:1050800008E02948008828B904F4006010B1012024
:105090002249087000BF0A20002817DB00F01F0219
:1050A00001219140214A430942F8231000BF00BF6B
:1050B00000BFBFF34F8F00BF00BF00BF00BF00BFE6
:1050C00000BFBFF36F8F00BF00BF00BF00BFFDF781
:1050D00049FB1748007808B100F068FF0A20002853
:1050E00009DB00F01F02012191404209920002F108
:1050F000E022C2F8001100BF00BFFDF7EDFBFCF796
:10510000F9F9FCF70FFB0A48007808B1FDF744F9FC
:1051100000BF97E72102002020080020020800209D
:1051200004080020000800202C08002080E100E096
:105130000108002000BFFEE7FEF714F900BFFEE7FC
:1051400010B530238370642391FBF3F30478234478
:105150000370642391FBF3F403FB1413DAB20A2304
:1051600092FBF3F34478234443700A2392FBF3F455
:1051700003FB142384782344837010BD2DE9FF5F63
:105180000F4690461C460026D8F81490B8F80C003C
:10519000C0F3032B17B1BBF1070F0BD14846FBF748
:1051A00064F886B2002C49D0324649462046FBF7C7
:1051B00038F843E0BBF1090F2ED14FF0010A0397F5
:1051C0004846FBF752F8401C00EB090519E003982C
:1051D00082450DD12846FBF748F886B234B12EB18E
:1051E000324629462046FBF71CF800E0002611E075
:1051F0000AF101001FFA80FA2846FBF736F8401C36
:1052000005440398824505DC2878FF2802D02878D9
:10521000FE28DCD100BF00BF86B90C2674B1094B53
:105220000FCB8DE80F0039460DF10900FFF788FF1D
:105230000D2269462046FAF7F4FF00BF304604B05D
:10524000BDE8F09F8008002030B502469489C4F381
:105250000323082B05D109B9106907E01469A01DC3
:1052600004E001EB4105146904EB450030BDF0B5E5
:1052700004460D460021A889C0F30326002C02DD58
:1052800001F1100081B2072E01D10020F0BD0123F1
:105290006CE0082E02D12869821D04E003EB43076D
:1052A000286900EB470210881F281FD00ADCA0F1F4
:1052B0000300092851D2DFE800F0163250173133CD
:1052C00050501A00B0F5187F12D006DC202829D0E3
:1052D0002E280AD02F2840D123E0A0F2622010B35C
:1052E00001283AD120E000BF00BF00BF00BF00BFCF
:1052F00001F10F004FF6F07700EA0701A3420CDA44
:1053000010880B2803D01088B0F5187F02D1508880
:10531000084481B201F1100081B224E000BF00BF57
:1053200000BF00BF00BF00BF01F11F004FF6E077D4
:1053300000EA0701A3420FDA108840F26227B84260
:1053400003D010887F1CB84203D15088084481B232
:1053500002E001F1200081B205E0A34202DA5088A8
:10536000084481B200BF00BF581C83B2A34290DD45
:1053700008468BE72DE9F04705462020A8401FFA94
:1053800080F9FCF7A7F804464FF000081FE02089D9
:10539000B0F5805F1ADB2E4696B194F80CA000277A
:1053A0000AE0F9B22046FFF74FFF808800EA0900C3
:1053B00000B10026781C87B20EB15745F1DD00BF61
:1053C0001EB908F101001FFA80F800BF6468002CC4
:1053D000DDD14046BDE8F087014601F10A00704783
:1053E00070B50546FCF776F8044605E02089A8422A
:1053F00001D1204670BD6468002CF7D10020F9E788
:105400002DE9F04184460C461E469089C0F30323E3
:10541000177B00212EB3072B02D10020BDE8F081BD
:10542000082B0BD1906907781069008900FB07F100
:10543000C81DC10804B9891C0846EFE7012508E02A
:1054400005EB4508106900EB480040880144681CE2
:10545000C5B2BD42F4DDC81DC10804B9891C0846A7
:10546000DCE7072B04D110694088C01DC010D5E7C8
:105470000CB90120D2E7082B04D110690089C01DA6
:10548000C010CBE704EB4405106900EB45004088F1
:10549000C01DC010C2E700002DE9FC5F05460E46A6
:1054A00017469846DDF830B02020A84080B2019021
:1054B0003088B0F5805F0AD1FCF70CF8044644B997
:1054C000BBF1000F05D01B208BF8000001E0204845
:1054D00004688CB32DE02089B0F5805F28DBA946F5
:1054E000B9F1000F19D0207B00904FF0000A0DE0B9
:1054F00051462046FFF7A8FE80880199084008B170
:105500004FF000090AF1010000F0FF0AB9F1000FA5
:1055100002D000988245EBDD00BFB9F1000F06D143
:105520002089A8F8000008F10208B81E87B200BF61
:1055300064680CB1012FCEDC14B12089308002E008
:105540004FF6FF703080024804603846BDE8FC9F8B
:10555000AC0800202DE9FF4F87B0824689461F46E0
:10556000149CC846B889C0F303200690387B059088
:10557000CDF810900698072805D0BAF5805F02DBB9
:10558000B86900780590159860B10698072802D090
:10559000BAF5805F03DA05200BB0BDE8F08F0598FF
:1055A00004901EE00598814501DD1120F4E708F024
:1055B000FF013846FFF748FE0546A88888B1F8483D
:1055C000007800F00F00297901F00701B0EB410FDE
:1055D00007DD287900F0070008B90620DCE71A206B
:1055E000DAE7F86940B1159800902346FE6949460C
:1055F0005046099AB047CFE7BAF5805F4BDAB9F168
:10560000000F48D0BE6949463846FFF71DFE0546E3
:105610006888C01D4FEAE00B0396A9F10100039EC4
:1056200056F8206006F0010040B30020B1B221F02E
:10563000010600BF0BE03188090A21802188B27879
:1056400041EA02212180A41CB61C411C88B20BEB4C
:10565000DB72B0EB620FEEDB59460BEBD1725210EE
:10566000ABEB4202012A08D1218801F47F4121805D
:105670002188328841EA122121800BE03088208085
:1056800070886080241D361DABF10402314620462F
:10569000FAF7C7FD98E1002003900290C8468AE11E
:1056A000D7F818B00026B8F1000F08D0BAF5805F1F
:1056B00005DB08F0FF003946FFF7D9FD064630113B
:1056C0000BEB400B08F0FF013846FFF7BDFD054628
:1056D000B348007800F00F00297901F00701B0EB22
:1056E000410F7CDCC84504D01598002878D0C84507
:1056F00076DBB8F1000F06D10698072803D005988D
:105700002080A41C24E1288800902888B0F5E06F50
:1057100012DB6888082804DC68882F3080B200908B
:105720000AE06888102802D10620009004E068880A
:10573000202801D10720009000981F287ED013DC7C
:105740001F287CD2DFE800F03A535D8F9F5E909E69
:10575000A0E4C5C6FEFEFEFEFEB0FEFEFEB1FEFEED
:10576000FEFEFEB2FEFE5F00342845D012DC30287B
:105770003ED008DC202874D02D2841D02E2874D0AB
:105780002F285CD181E0312833D0322832D0332821
:10579000F7D130E0B0F5187F72D006DC35282CD078
:1057A00036282BD03728ECD129E0A0F26120002840
:1057B00067D001286FD00228E3D18FE0159898B107
:1057C000A87800F00F00002805DDA878304400F02C
:1057D0000F0000B9A41CA878C0F3031001E0B8E0E2
:1057E000E5E004EB400401E01820D5E6ACE000BFA2
:1057F00000BF00BF00BF00BF00BF00BF00BF00BFB1
:1058000000BF00BF00BF00206988664A32F811104F
:1058100006F00F02914089B20191BBF8000006F03A
:105820000F0109B90021218021882180159939B102
:105830002188019A02401143218009E016E081E0AD
:105840000199014006F00F02114122881143218085
:1058500021882180A978314401F00F0101B9A41CED
:1058600072E013E001E000BF00BF00BF06F00F00D0
:1058700008B1052090E6BBF800002080A41C63E07E
:1058800029E029E000BF00BF00BF00BF06F00F0005
:1058900010B1052080E620E0BBF800002080BBF8B6
:1058A00002006080241D4FE000BF00BF06F00F0023
:1058B00008B1052070E6BBF800002080BBF80200AC
:1058C0006080BBF80400A080BBF80600E0800834CC
:1058D0003AE000BF00BF00BF00BF00BF06F00F00EE
:1058E00008B1052058E66888C01DC21059462046F8
:1058F000FAF797FC688820F00F000F30001104EBD6
:105900004004A87800F00F0008B1207820801BE048
:1059100006F00F0008B105203EE66888C01DC210E1
:1059200059462046FAF77DFC688820F00F000F30BA
:10593000001104EB4004A87800F00F0008B12078B3
:10594000208001E0182027E600BF0120039000BF5F
:105950002DE0002006F00F0109B900212180A9786F
:1059600001F00F01002907DDA978314401F00F0192
:1059700011B9A41C00212180002004E0A41C0021F6
:105980002180411CC8B2A978C1F303118142F5DC22
:10599000297901F0070139B90621029106E00000DA
:1059A00032080020E69400081A21029100BF08F195
:1059B00001001FFA80F8049880457FF771AE0398C4
:1059C00008B90298E8E500BF0020E5E52DE9FF4FA2
:1059D00089B006468B469A46169CD846BAF80C0003
:1059E000C0F303200890002007909AF80C0006905E
:1059F00000200590CDF810B0089807281BD0DAF8E1
:105A00001800007807900798A8B941F61040864220
:105A100003DB41F62F4086420BDDB6F5B05F02DBBB
:105A2000B6F5C05F05DBB6F5D05F04DBB6F5E05F29
:105A300001DA06980790179880B10898072803D1D3
:105A400005200DB0BDE8F08FBBF1000F03D10B981E
:105A500008B120780790079804901BE007988345C9
:105A600001DD1120EDE759465046FFF7EDFB0546F5
:105A7000FE48007800F00F01287900F03800B1EB03
:105A8000A00F07DD287900F0380008B90720D8E713
:105A90001A20D6E7BBF1000F1ADD41F6104086420E
:105AA00003DB41F62F4086420BDDB6F5B05F02DB2B
:105AB000B6F5C05F05DBB6F5D05F09DBB6F5E05F94
:105AC00006DADAF81810087808B10121059100BF4C
:105AD000DAF8200048B1179800902346DAF82070D1
